:020000040800F2
:10000000205F00204103000827490008F143000851
:1000100025490008D1120008016D00080000000009
:100020000000000000000000000000008102000845
:100030008914000800000000DD020008714D00086E
:100040005B0300085B0300085B0300085B03000818
:100050005B0300085B0300085B0300085B03000808
:100060005B0300085B0300085B0300085B030008F8
:100070005B0300085B0300085B0300085B030008E8
:100080005B0300085B0300085B0300085B030008D8
:100090005B0300085B0300085B0300085B030008C8
:1000A0005B0300085B0300085B0300085B030008B8
:1000B0005B0300085B030008314E00085B03000887
:1000C0005B0300085B0300085B0300085B03000898
:1000D0005B030008CD5400085B0300085B030008C5
:1000E0005B0300085B0300085B0300085B03000878
:1000F0005B0300085B0300085B0300085B03000868
:100100005B0300085B0300085B0300085B03000857
:100110005B0300085B0300083D4E0008494E0008E1
:10012000CD1300085B0300085B0300085B030008B5
:100130005B0300085B0300085B0300085B03000827
:100140005B0300085B0300085B0300082949000803
:100150005B0300085B030008D91300085B03000879
:100160005B0300085B0300085B0300085B030008F7
:100170005B0300085B0300085B030008000000004D
:100180005B0300085B03000800F002F800F069F868
:100190000AA090E8000C82448344AAF10107DA45E2
:1001A00001D100F05EF8AFF2090EBAE80F0013F0CB
:1001B000010F18BFFB1A43F001031847848D00009C
:1001C000A48D00000A444FF0000C10F8013B13F01E
:1001D000070408BF10F8014B1D1108BF10F8015BA0
:1001E000641E05D010F8016B641E01F8016BF9D193
:1001F00013F0080F1EBF10F8014BAD1C0C1B09D1EA
:100200006D1E58BF01F801CBFAD505E014F8016B5B
:1002100001F8016B6D1EF9D59142D6D370470000ED
:100220000023002400250026103A28BF78C1FBD8FF
:10023000520728BF30C148BF0B607047642900F0E7
:100240005781002070471FB508F044FA9DE803006D
:1002500000F0E8FC00F0DAFA1FBD10B500F03FFB3B
:1002600010BD00F0A2FB1146FFF7EDFF06F0B4FD54
:1002700000F0A6FC03B4FFF7F0FF03BC00F064FE3F
:100280002C4B19680868B0E8F04F80F30988BFF379
:100290006F8F4FF0000080F311887047000000005E
:1002A00008480068006880F308884FF0000080F379
:1002B000148862B661B6BFF34F8FBFF36F8F00DF54
:1002C00000BF00BF08ED00E0DFF80C00016841F45A
:1002D00070010160704700BF88ED00E0EFF3098016
:1002E000BFF36F8F134B1A681EF0100F08BF20ED7D
:1002F000108A20E9F04F106009B44FF0500080F3ED
:100300001188BFF34F8FBFF36F8F07F0B5FC4FF02D
:10031000000080F3118809BC19680868B0E8F04F44
:100320001EF0100F08BFB0EC108A80F30988BFF3ED
:100330006F8F704790000020EFF30580704700003A
:100340000948804709480047FEE7FEE7FEE7FEE769
:10035000FEE7FEE7FEE7FEE7FEE7FEE704480549A5
:10036000054A064B70470000214E0008890100082D
:1003700020590020205F0020205B0020205B00200F
:1003800053EA020C00F069802DE9F04B4FF00006B3
:10039000002B1FBFB3FA83F503FA05F424FA05F620
:1003A0005E4012BF1643B2FA82F502FA05F4C5F1B7
:1003B00020051EBF22FA05FC44EA0C04203556EA4B
:1003C000044C4FEA144418BF641C4FF000084FF06F
:1003D0000009904271EB030C39D3002919BFB1FA1F
:1003E00081F701FA07F6B0FA80F700FA07F6C7F1CD
:1003F00020071EBF20FA07FC46EA0C062037B6FB92
:10040000F4FCA7EB0507103F07F01F0BCBF120060C
:100410000CFA0BFB2CFA06F644BFB3460026202F3D
:10042000A4BF5E464FF0000B5BEA060C08BF4FF01E
:10043000010B19EB0B09ABFB027C48EB0608C01B58
:1004400006FB02CC0BFB03CC71EB0C01C1E70B46A6
:10045000024641464846BDE8F08B13B54FF0000018
:100460004FF00001AFF30080BDE81C407047000072
:100470000FB4044910B503AA029800F045F910BC66
:100480005DF814FB185800202DE9F0410E46044693
:10049000002020622046E168884730B3252805D037
:1004A000D4E901219047206A401CF2E7E168204628
:1004B00000278847050018D0A5F14100192802D867
:1004C00020354FF400673246294620462760FFF763
:1004D000B5FE40B1012804D0F61D26F00706083607
:1004E000D8E7361DD6E72846DAE7206ABDE8F0816E
:1004F0002DE9F0410646002410687529314616A5FD
:1005000010D0AFF30080002802DA404213A507E0C4
:1005100031688A0701D512A502E0490704D511A563
:10052000012401E0AFF3008000210A2206F1240734
:1005300009E0B0FBF2FCB0FBF2F302FB1C00303030
:1005400078541846491C0028F3D123462A463046E1
:10055000BDE8F04100F07FB8000000002D00000071
:100560002B00000020000000032A40F2308010F031
:10057000030C00F0158011F8013BBCF1020F62443E
:1005800098BF11F801CB00F8013B38BF11F8013BCF
:10059000A2F1040298BF00F801CB38BF00F8013B7C
:1005A00011F0030300F0C280083AC0F0088051F84F
:1005B000043B083A51F804CBA0E80810F5E7121DF7
:1005C0005CBF51F8043B40F8043BAFF30080D20716
:1005D00024BF11F8013B11F801CB48BF11F8012BE2
:1005E00024BF00F8013B00F801CB48BF00F8012B05
:1005F000704702F0FF0343EA032242EA024200F09E
:10060000C9B84FF0000200B513469446964620390B
:1006100022BFA0E80C50A0E80C50B1F12001BFF4BB
:10062000F7AF090728BFA0E80C5048BF0CC05DF821
:1006300004EB890028BF40F8042B08BF704748BF6F
:1006400020F8022B11F0804F18BF00F8012B7047E3
:100650007047704770472DE9F0470D46994692461E
:10066000044600F124080168880604D5E06921F0F9
:100670001001216000E00120A84201DD471B00E0DD
:100680000027A1697A1902EB0900081AA0612078F5
:10069000C00602D42046AFF30080002608E0D4E96B
:1006A00001211AF806009047206A401C761C20623F
:1006B0004E45F4DB2078C0060AD52046AFF3008013
:1006C00006E0D4E9012130209047206A401C2062D6
:1006D000381EA7F10107F4DC07E0D4E9012118F87E
:1006E00005009047206A401C2062281EA5F10105E4
:1006F000F3DC2046AFF300802078000602D502200C
:10070000BDE8F0870120FBE7074B70B50D467B4441
:1007100000F065F80446284600F074F810B14FF078
:10072000FF3070BD204670BDAF66000010B5203AA6
:10073000C0F00B80B1E81850203AA0E81850B1E89A
:100740001850A0E81850BFF4F5AF5FEA027C24BF50
:10075000B1E81850A0E8185044BF18C918C0BDE847
:1007600010405FEA827C24BF51F8043B40F8043B10
:1007700008BF7047D20728BF31F8023B48BF11F8C5
:10078000012B28BF20F8023B48BF00F8012B70471F
:100790004FF000020429C0F0128010F0030C3FF467
:1007A00032AFCCF1040CBCF1020F18BF00F8012BE2
:1007B000A8BF20F8022BA1EB0C01FFF724BF5FEAD2
:1007C000C17C24BF00F8012B00F8012B48BF00F8C2
:1007D000012B704701694A1C02610878704700B517
:1007E0008FB0CDE901310021059105497944CDE96A
:1007F000031011466846FFF747FE0FB000BD00002A
:10080000E5FFFFFF007B00F08000704710B5424815
:100810005421FFF7F6FE41485421FFF7F2FE40480D
:100820005421FFF7EEFE3F493B483C4A3F4B0860EE
:100830003D490A603A491960531C0365481C10651C
:10084000012008653B48344A39A1784400F01CF97E
:1008500020B9384878440A3800F0BBF937482F4AA5
:1008600035A1784400F010F920B9344878440A38AA
:1008700000F0AFF932482A4A2FA1784400F004F979
:1008800020B92F4878440A3800F0A3F940232248C1
:10089000DC000021224600F0D4F820B1254878443D
:1008A000543800F096F91D4822464023002100F0FC
:1008B000C8F820B121487844543800F08AF9184823
:1008C00022461023002100F0BCF8002806D01C4866
:1008D0007844BDE81040563800F07BB910BD104890
:1008E00070B5006D20F001040B4800F043F90B488F
:1008F00000F040F90A4800F03DF909E0206D20F0D1
:100900000105204600F036F9204600F073F82C4629
:10091000002CF3D170BD0000C457002018580020EF
:100920006C580020D8010020DC010020E0010020EC
:1009300072000000D67E000077000000C27E00003A
:10094000AE7E00000EB5CDE9000100F0DDFA0290A8
:1009500069460120ABBE0EBD08B569460090022075
:10096000ABBE08BD1FB58DE8070069460520ABBECC
:1009700004B010BD1FB58DE80F0069460620ABBE60
:10098000F6E708B5694600900920ABBE08BD1CB566
:10099000CDE9000169460A20ABBE1CBD704708B511
:1009A000694600900C20ABBE08BD754600F018F9F2
:1009B000AE4605006946534620F00700854618B04C
:1009C00020B5FFF7CBFCBDE820404FF000064FF00C
:1009D00000074FF000084FF0000B21F00701AC4674
:1009E000ACE8C009ACE8C009ACE8C009ACE8C00993
:1009F0008D46704770B50446051F00F0F7F8006893
:100A0000002C14BF446870BD002C18BFAC423CBF22
:100A100020466468F8D301680A18AA4218BF4560E6
:100A200003D12A6805461144016028684119A14292
:100A30001CBF6C6070BD61686960216808442860F3
:100A400070BD70B5C468A50713D0650211D4B2F5A6
:100A5000807F09D0B2F5007F06D0B2F5806F08D153
:100A6000012300F1240106E05D1E6FF07F46B542D0
:100A700001D3012070BD0161C361416024F4706144
:100A80001143C160002070BD2DE9F0410C460746BE
:100A90001646104600F06EF82078611C61280AD0D6
:100AA000722802D077283CD102E00125002405E01D
:100AB0000225042402E0082448F2020511F8010B83
:100AC0002B2806D0622809D011F8010C74280AD00E
:100AD0000BE045F0030544F00204EFE745F00405A0
:100AE00044F00104EAE744F0100438462146FFF7D9
:100AF00029FF411C15D00021316171604FF4007154
:100B0000F560F1617061200704D5304602220021B2
:100B100000F0E6F8306D40F0010030653046BDE889
:100B2000F0810020FBE72DE9F0410D460646104C10
:100B3000206DC10704D0410804D020F00104F7E77C
:100B400022460EE0542000F09CF807000ED0206DE5
:100B500047F001010843542120653846FFF751FD55
:100B60003A4629463046BDE8F0418DE70020D6E7F9
:100B7000C45700202DE9F04704464FF000094FF01C
:100B8000FF37C568D4E90486A80707D0204600F0DF
:100B900057F93046FFF7E0FE002802DA3846BDE894
:100BA000F087280502D54046FFF724FF4C21204658
:100BB000FFF727FD206D20F0010020654846EEE795
:100BC00010B50446AFF300802046BDE81040FFF7A3
:100BD00051BB10B500F07EF9BDE8104000F074B9CB
:100BE00000487047C0580020704700000048704718
:100BF000C8580020704770477047704738B50446A2
:100C00000A4600206946AFF30080002808BF38BDBF
:100C100002460099204600F0A4F9012038BD0120C9
:100C200000F0F3B9F8B5AFF30080054600200C469C
:100C3000102000BF0646A819A0420DD932466946C9
:100C40000020AFF30080070008BF00F0DEF9009835
:100C5000A04218BF0546C419FFF7C8FF0560074644
:100C6000F01D20F007004619284600F073F9B44241
:100C700008BFF8BDA21B31463868BDE8F84000F057
:100C800070B970B50646FFF7B1FF056806F10B00B5
:100C900020F00704B4429CBF002070BD2B466A6858
:100CA000BAB11068A04210D304F1080188423CBFD9
:100CB0005068586007D35168101941601168091BCA
:100CC000016058601460101D70BD13465268002A00
:100CD000E7D121462846FFF791FF0028DED170BDFD
:100CE0002DE9F041044616460D464769007B800712
:100CF0002ED03846FFF745FE50BB3EB3012E02D042
:100D0000022E25D104E0204600F045F905441DE0FF
:100D10003846FFF744FEE168002841F01001E16029
:100D200005DA204600F058F80120BDE8F081C9033B
:100D30000BD56268E16A914200D81146A26911445C
:100D40002269891A814200DD08460544002D01DA36
:100D50000220EAE7E16A6068E268814206D2910314
:100D6000E06203D522F4003141F01002A6690027A9
:100D7000AE4213DCE16A814201D90B4600E0034632
:100D800003EB060C2369ACEB030CAC4506DD81429A
:100D900001D98C4600E084469C4505D1A7602760B8
:100DA00042F02000A5620DE0AD1BE669AE1B81425A
:100DB000A66000D90846C01A281A20605819606039
:100DC00022F0200003490840E060002084F84870C9
:100DD000ABE70000BFCFD7FFC16821F4001141F09D
:100DE0008001C16000218160016070472DE9F047FA
:100DF000814614460E464FF0FF383248D568576991
:100E0000054209D03846A169FFF7C1FD002811DB72
:100E10002C48C0430540E5602B46324649463846DB
:100E2000FFF7A0FDA16920F00042B21A114400288A
:100E3000A16103D02046FFF7CFFF4046BDE8F08711
:100E400070B504460569C06A6168884200D80846E2
:100E5000E16821F42011E160C90312D5A84208D04D
:100E60002246411B2846FFF7C1FF10B14FF0FF306B
:100E700070BD0020E562C4E90150E06820F48030D4
:100E8000E060002070BD10B50446C06820F020006E
:100E9000E060A16AA06988420DD02046FFF7D0FF2C
:100EA000E06820F4405040F01000E060A06AA061CB
:100EB0002069E062606044F24001E0688843E060DD
:100EC00010BD000010000200002801D000F03CB866
:100ED0007047000010B5014602A000F07DF8012027
:100EE00010BD000053494752545245443A205265C0
:100EF0006469726563743A2063616E2774206F7051
:100F0000656E3A200000000010B5431C02E010F8A6
:100F1000011B71B18107FAD14FF0013202C88C1A5E
:100F20008C4314EAC211F9D0C01A0A0603D0C01EBD
:100F300010BDC01A10BD0A0401D0801E10BD0902E8
:100F4000FCD0401E10BD000001491820ABBEFEE7DA
:100F50002600020000210160C0E901107047102046
:100F60007047034640688C46002818BF88423CBF43
:100F700003464068F8D318681844884207D00CF13B
:100F8000030020F00700001D411A521A0146081DF7
:100F90000A60FFF72FBD10B50146C268900703D065
:100FA000900607D5886A0AE000F03EF8012101604A
:100FB000881E10BD8B69486818440B69C01A91F8E7
:100FC00048301BB191F84910401A10BD1103FCD5EF
:100FD0000028FADD401E10BD70B505460C460A20FB
:100FE00000E06D1C00F018F835B128780028F8D121
:100FF00002E0641C00F010F814B120780028F8D149
:10100000BDE870400A2000F007B810B500F010F8F5
:10101000BDE81040FFF758BF08B569468DF80000DD
:101020000320ABBE08BD000000487047C058002038
:1010300010B5012805D0002103A0FFF7CDFF012046
:1010400010BD09A1F8E7000053494752544D454DE2
:101050003A204F7574206F662068656170206D6559
:101060006D6F7279000000003A2048656170206D54
:10107000656D6F727920636F72727570746564004C
:101080009FED221A9FED222A20EE010AB5EE001AEA
:1010900030EE010ABDEEC01A11EE100AB5EE400A9C
:1010A000F1EE10FAB8BF013801EE100AB8EEC11A1D
:1010B00030EE410A20EE020ABDEEC01A9FED152A5D
:1010C00011EE100A002130EE021AB1EB502F48F257
:1010D0003C711CBF0020B0EE410AC0F6000101EED9
:1010E000100A01EB8001B8EE411A30EE410A91ED91
:1010F000001A91ED012AB7EE003A33EE403A23EEA2
:10110000011A20EE020A31EE000A704783F9223EEE
:1011100000000044000000C49FED201A9FED202A2B
:1011200020EE010ABDEEC01A11EE100AB5EE400A1B
:10113000F1EE10FAB8BF013801EE100AB8EEC11A8C
:1011400030EE410A20EE020ABDEEC01A9FED152ACC
:1011500011EE100A002130EE021AB1EB502F48F2C6
:101160003C711CBF0020B0EE410AC0F6000101EE48
:10117000100A01EB8001B8EE411A30EE410A91ED00
:10118000001A91ED012AB7EE003A33EE403A23EE11
:10119000011A20EE020A31EE000A704783F9223E5E
:1011A00000000044000000C4464910B54A6822F41B
:1011B00040324A604A6843681A434A6001684A6894
:1011C00022F480724A6001684A68036942EA032295
:1011D0004A6001684A6822F040724A6001684A68C1
:1011E00083681A434A6001688A6822F400628A6050
:1011F00001688A68C3681A438A60816A6FF0706206
:10120000D14201688A6822F070628A6001688A6847
:101210000CD0836A1A438A6001688A6822F04052BF
:101220008A6001688A68C36A1A4301E022F040526A
:101230008A6001688A6822F002028A6001688A680E
:10124000037E42EA43028A6090F820100029016878
:101250004A680FD042F400624A6001684A6822F48A
:1012600060424A6001684A68174C436A04EB4333A2
:101270001A4301E022F400624A600168CA6A22F45B
:101280007002CA620168CA6A838B104C04EB035374
:101290001A43CA6201688A6822F400728A6001688F
:1012A0008A6890F8303042EA43228A6001688A688E
:1012B00022F480628A6001688A68406942EA80207C
:1012C000886010BD0023014000E0FFFF0000F0FF38
:1012D000FEE701EE901A30EE201A10B5F8EE611A12
:1012E000029CB4EEE11AF1EE10FA0FDDC0EE011A25
:1012F00000EE101AB8EE400A21EE800AC0EE811A04
:1013000000EE901AF8EE600A61EEA00A01EE101AE3
:10131000F5EE001AF6EE002AB8EE411A072831EE73
:10132000401A31EE601A61EE211AB0EE611A00EE39
:10133000221AB0EE412A00EEA22A46D2DFE800F0DF
:10134000450C360421192900BCEEE10A10EE100A02
:10135000BCEEC10A108006E0BCEEC10A10EE100A15
:10136000BCEEE10A108010EE100ABCEEC20A188032
:1013700028E0BCEEC20A10EE100ABCEEE10A1080B2
:101380001BE0BCEEC20A10EE100ABCEEC10A1080CF
:1013900006E0BCEEC10A10EE100ABCEEC20A1080D4
:1013A00010EE100ABCEEE10A18800BE0BCEEE10A78
:1013B00010EE100ABCEEC20A108010EE100ABCEE4D
:1013C000C10A188010EE100A208010BD014800F0FC
:1013D00035BA000038020020014800F02FBA0000A2
:1013E0006404002001681823CAB2103AB2FBF3F279
:1013F000054B6FF30901032A9B5CC36500D9091DE6
:1014000081650846704700000487000810B5014652
:1014100000208B698A6A4FF0C07453B1B3F5005F46
:1014200015D072B1012A0CD0022A0AD0032A09D1A0
:1014300004E01AB1012A06D0022A03D1C96AC901FF
:1014400000D5012010BDC96AA142FAD010BD002A02
:10145000F7D0012AF2D0022AF3D0032AF3D010BD2C
:1014600030B50468256825F480252560046863602C
:101470008368402B036803D099600068C26030BD68
:101480009A600068C16030BD7047000038B5012225
:1014900011021A4800F04EFC4FF4FA7000F040FBC5
:1014A00017A0FEF7E5FF41F25144204606F0DEF9B1
:1014B000214617A0FEF7DCFF4FF4104006F0D6F9E6
:1014C000684606F0B5F9BDF8001014A0FEF7D0FF8D
:1014D00041F60C04204606F0C9F921460CA0FEF79F
:1014E000C7FF4FF4184006F0C1F9684606F0A0F9AE
:1014F000BDF8001009A0FEF7BBFF38BD0004024094
:10150000454E5F47415445205345540A00000000B2
:10151000575F4331363A25640A000000525F433179
:10152000363A25640A00000072B6FEE778B500245A
:10153000009490F83C20012A19D0012280F83C2028
:101540000A6807230568092A13D9EE680A3A02EBEC
:10155000420293409E43EE600B788A680A3B03EB9D
:1015600043039A400368DD682A43DA6010E00220F2
:1015700078BD2E6902EB420293409E432E610B78A8
:101580008A6803EB43039A4003681D692A431A6182
:101590004A681F23072A13D205686E6B521E02EB9E
:1015A000820293409E436E630B790A885B1E92B25F
:1015B00003EB83039A4003685D6B2A435A6327E079
:1015C00005680D2A12D22E6BD21F02EB82029340C5
:1015D0009E432E630B790A88DB1F92B203EB8303D1
:1015E0009A4003681D6B2A431A6311E0EE6A0D3AB4
:1015F00002EB820293409E43EE620B790A880D3B18
:1016000092B203EB83039A400368DD6A2A43DA62ED
:10161000164B0568144A9D4206D10D68122D03D160
:10162000556845F48005556005689D4218D10B68E2
:10163000102B01D0112B13D1536843F400035360D6
:10164000096810290CD10A490A4A0968B1FBF2F16C
:1016500001EB8101490000E0491E00910029FBD106
:1016600080F83C40002078BD00230140002001406C
:101670008C00002040420F0070B504004FF00005C0
:1016800003D0206C002610B107E0012070BD204679
:1016900000F01CF8666484F83C60206CC00610D42E
:1016A000206C20F4885040F0020020642046FFF7B0
:1016B0007BFD6664206C20F0020040F00100206495
:1016C00000E0012584F83C60284670BD70B586B006
:1016D000064614216846FEF794FF24493068884284
:1016E00042D123480025016841F4807101600068FF
:1016F0001F4900F4807014390590086840F0040018
:101700000860086800F004000590086840F00100D7
:1017100008600868032400F0010005900F208DE8A0
:1017200031006946134800F00DFA0E208DE83100B3
:101730006946114800F006FA114C1048C4E900054A
:101740000015A560C4E90350400060618000A061FD
:101750004011C4E907052046656200F03FF908B171
:10176000FFF7E2FEB463A66306B070BD002001403F
:101770004438024000080240000002401064024069
:10178000380200202DE9F0410446876D00F0D8FAB8
:10179000064694F835000025022806D080206065B2
:1017A00084F834500120BDE8F0812068016821F000
:1017B000160101602068416921F080014161206CBF
:1017C00008B9A06C20B12068016821F0080101600F
:1017D0002068016821F0010101600CE000F0B0FA1E
:1017E000801B052807D920206065032084F8350078
:1017F00084F83450D7E720680068C007EED194F829
:101800005C103F208840B860012084F8350084F8DF
:1018100034500020C7E790F83510022903D080210A
:10182000416501207047052180F835100068016886
:1018300021F0010101600020704700002DE9F8430C
:1018400004464FF00009CDF8009063484FF416515C
:10185000A56D0068B0FBF1F72E6894F85C100820C5
:1018600000FA01F131420FD021680A6852070BD506
:101870000A6822F004020A6094F85C108840A860AC
:10188000606D40F00100606594F85C104FF0010855
:1018900008FA01F0304208D021684969090604D5E8
:1018A000A860606D40F00200606594F85C10042050
:1018B0008840304208D021680968890704D5A860AB
:1018C000606D40F00400606594F85C101020884062
:1018D000304218D021680968090714D5A86020682B
:1018E0000168490304D50068000308D5A16C07E02E
:1018F0000168C90503D4016821F008010160216C69
:1019000009B12046884794F85C1020208840304276
:1019100031D021680968C9062DD5A86094F8350032
:1019200005282068016806D0490347D500680003F0
:101930001DD4616C1CE021F0160101602068416932
:1019400021F080014161206C08B9A06C20B12068B1
:10195000016821F00801016094F85C103F20884084
:10196000A86084F8358084F83490216D1FE0E16B25
:1019700009B120468847606D00282BD0606DC007F4
:1019800014D0052084F835002068016821F0010199
:1019900001600098401C0090B84203D8206800689D
:1019A000C007F6D184F8358084F83490E16C0029C2
:1019B00010D001B02046BDE8F04308470168C905D2
:1019C000D5D4016821F01001016084F8358084F8D5
:1019D0003490CCE7BDE8F8838C0000202DE9F0417D
:1019E000044600F0ADF906465CB1022084F83500EB
:1019F000002584F834502068016821F0010101605D
:101A00000DE00120BDE8F08100F09AF9801B052867
:101A100005D920206065032084F83500F2E72068AE
:101A20000068C007F0D12268116820480140D4E95D
:101A300001031843D4E90336334318436369184359
:101A4000A3691843E3691843236A18430843616A8A
:101A5000042903D1D4E90B1319430843106020680B
:101A60004069666A20F0070130460E4301270428CA
:101A70000CD1A06A0643E06A40B12046FFF7C6FCDD
:101A800020B14020606584F83570BAE7206846616F
:101A90002046FFF7A7FC94F85C203F21914081602D
:101AA000656584F835700020ACE700003F8010F0D9
:101AB0002DE9F0410446866D90F834000025012898
:101AC0000DD0012084F8340094F835700020012FE7
:101AD00007D084F8340002252846BDE8F0810220B2
:101AE000FBE7022784F8357060652046FFF7B8FCF5
:101AF00094F85C103F208840B0602068016841F095
:101B000016010160206C20B12068016841F00801D5
:101B100001602068016841F001010160DCE700001C
:101B200070B5044600F00CF90546601C02D004486C
:101B30000078044400F004F9401BA042FAD370BDC1
:101B4000800000202DE9F84FDFF8BCA1002201251C
:101B500003264FF00F090AF1040BAAF1040E00BF8F
:101B60000B6805FA02F42340A34270D10F7907F005
:101B70000307012F01D0022F16D187684FEA4208D0
:101B800006FA08FC27EA0C07D1F80CC00CFA08FC8E
:101B90004CEA070CC0F808C04768A7430C79C4F3A7
:101BA000001494403C4344600C79E443A4070AD0F9
:101BB000C4684FEA420C06FA0CF7BC438F6807FA78
:101BC0000CF72743C7600C7904F00304022C12D1F0
:101BD000D40800EB840CDCF820405707FF0E09FA0C
:101BE00007F824EA0804D1F8108008FA07F848EA50
:101BF0000408CCF8208004684FEA420C06FA0CF77F
:101C0000BC430F7907F0030707FA0CF72743076077
:101C10004C6814F4403F70D03C4C276847F4804730
:101C20002760246822F0030704F480440094384CB1
:101C300007EB040CDCF8084897074FEA177809FA15
:101C400008F7BC43334FB84202D1002724E054E0E8
:101C5000314FB84201D101271EE0304FB84201D1C7
:101C6000022719E02E4FB84201D1032714E02D4F6F
:101C7000B84201D104270FE02B4FB84201D105270C
:101C80000AE02A4FB84201D1062705E0284FB842A2
:101C900001D1072700E0082707FA08F72743CCF807
:101CA0000878DAF800405746D1F804C09C435FEA50
:101CB000CC2C00D51C433C60DBF800405F46D1F8DB
:101CC00004C09C435FEA8C2C00D51C433C60DEF8CA
:101CD00000407746D1F804C09C435FEA8C3C00D5B5
:101CE0001C433C60084F083F3C68D1F804C09C434B
:101CF0005FEACC3C00D51C433C60521C102AFFF428
:101D00002FAFBDE8F88F0000083C01404438024086
:101D10000030014000000240000402400008024080
:101D2000000C024000100240001402400018024063
:101D3000001C02400AB1816170470904FBE7000002
:101D400001488068704700008000002070B50400E2
:101D500025D094F83D00002520B984F83C50204659
:101D600000F0B8F8242084F83D002068016821F0D4
:101D7000010101602068016841F4004101602068B0
:101D8000016821F40041016000F074FF4D4A616870
:101D9000914201D84C4900E04C49884201D20120CF
:101DA00070BD4B492368B0FBF1F15E6826F03F0639
:101DB0000E435E606368934206D94FF496735943AD
:101DC0004FF47A73B1FBF3F12368491C1E6A26F0C5
:101DD0003F06314319626168914210D84900401EA4
:101DE000B0FBF1F2521CC2F30B02042A01D2042010
:101DF00022E0B0FBF1F0401CC0F30B001CE0A26835
:101E0000F2B301EBC10303EB0116431EB3FBF6F380
:101E10005B1C43F480431B0549D092B301EBC10224
:101E200002EB0111401EB0FBF1F0401CC0F30B00AF
:101E300040F4804040F400402168CA694CF6FF73CA
:101E40009A431043C861D4E907100143206802682F
:101E500022F0C00211430160D4E90301014320686C
:101E6000826848F2FF339A4311438160D4E9050147
:101E700008432168CA6822F0FF021043C86001E0ED
:101E80000EE016E02068016841F001010160256460
:101E9000202084F83D00256384F83E50002070BD6A
:101EA00001EB4106431EB3FBF6F35B1CB3E70120D5
:101EB000C2E701EB4101401EB0FBF1F0401CC0F352
:101EC0000B00B7E7A086010080841E0000093D00DA
:101ED00040420F0010B586B0044614216846FEF754
:101EE00090FB13492068884220D1124800210268E3
:101EF00042F002020260006800F002000590C0207B
:101F000000901220CDE901010320039004200490E9
:101F100069460948FFF716FE06481030016841F48B
:101F200000110160006800F40010059006B010BDBB
:101F300000540040303802400004024002488168EA
:101F40000278114481607047800000200B4810B572
:101F5000016841F400710160016841F48061016031
:101F6000016841F480710160032000F09FF80F20A8
:101F700000F006F800F050F8002010BD003C0240D0
:101F800030B505461F4887B00024016841F01001B4
:101F90000160006806A900F01000009001A800F0A0
:101FA00043FE0498A8B100F065FE40001649174AA8
:101FB000B0FBF1F11648491E026040F2E732C0E979
:101FC0000324C0E90114846101F016FC040003D06D
:101FD00015E000F04FFEE9E70D4801F07BFC04003E
:101FE0000DD1362000F034F8102D07D200222946FA
:101FF000362000F03BF80748056000E0012407B0F8
:10200000204630BD4038024040420F0000100040E2
:10201000C4040020840000200C4882B0016841F410
:1020200080410160006800F4804000900748001F74
:10203000016841F0805101600068002200F080508A
:1020400000900F21901E02B000F010B844380240FA
:10205000002809DB00F01F020121914040098000A7
:1020600000F1E020C0F8001170470000F0B40E4B02
:102070001B680C46C3F30223C3F10705042D00D9E6
:102080000425191D072901D2002300E0DB1E0126CB
:1020900006FA05F1491E214099409E40761E1640E1
:1020A0003143F0BC04F07CBE0CED00E0064900F0CA
:1020B000070208684FF6FF03184040EA0220034A6F
:1020C00010430860704700000CED00E00000FA05C6
:1020D00070470068416200207047F0B50368586A95
:1020E00039B19C6A4FF4827600EB144400204D1EF7
:1020F0000AE040EA024098620FE006EB8007DF59F1
:10210000401C04EB1744C0B2A842F6D344EA024094
:102110004FF4807202EB810158500020F0BDD0F8DE
:10212000E00403F048BD01EBC10200EB8202D0F8ED
:10213000E004126A03F099BC01EBC10200EB8202D9
:10214000D0F8E004D2F8602203F0EBBCD0F8E00451
:1021500003F033BD0A0601F00F0101EBC10100EBF2
:10216000810101D5143101E001F51571006804F019
:1021700015BC70B504460B0601F00F0000EBC00162
:1021800004EB81014FF001024FF0000502D54A75C2
:10219000143103E081F8555201F51571087094F877
:1021A0009404012808D084F89424206804F010F9DD
:1021B00084F89454002070BD022070BD70B50446B0
:1021C00001F00F002279904201D9012070BD0B0669
:1021D00001F00F0101EBC10104EB81014FF001029D
:1021E0004FF0000502D54A75143103E081F85552CD
:1021F00001F515718D70087094F89404012808D0C9
:1022000084F89424206804F055FA84F8945400204B
:1022100070BD022070BD2DE9F04104460F0601F0AB
:102220000F0000EBC00104EB81014FF001064FF0FD
:10223000000502D54E75143103E081F8555201F5C1
:102240001571C2F30A0208708A600B714A7802B1F4
:102250004883022B00D14D7194F89404012809D0D1
:1022600084F89464206804F001F8284684F89454B3
:10227000BDE8F0810220FBE710B501F00F0404EB8C
:10228000C40100EB8101C1E998230023C1F8683241
:1022900081F8553281F85442837901F51571012B8B
:1022A00000D1CA618279006804F05CFA002010BD98
:1022B00070B504460D4601F00F002179884201D91E
:1022C000012070BD29064FF000064FF0010206D52F
:1022D00000EBC00104EB81014A75143107E005EB06
:1022E000C50104EB810181F8556201F515718A7011
:1022F000087094F89404012807D084F89424206886
:1023000004F004FA280702D007E0022070BDA1798A
:1023100004F29C42206804F0A1F984F8946400203F
:1023200070BD10B501F00F0404EBC40100EB810196
:10233000C1E9082300238B6201234B7501F8144F78
:102340008379012B00D1CA618279006804F00AFA0E
:10235000002010BD2DE9FC5F05680446284604F006
:10236000B9FB00287DD1206804F0E0FB002878D07C
:10237000D5F80808C0F30D20C4F8D404206804F090
:10238000D5FB800704D52068416901F00201416155
:10239000206804F0CBFBC10604F29C40009034D5C9
:1023A0002068816921F0100181612F6A07F00F0018
:1023B00000EBC00004EB8006C7F3434006F515763A
:1023C000022802D0062811D01AE047F6F070074222
:1023D00016D0C7F30A1217462846F16804F0AAFB84
:1023E000F0683844F0607069384408E008222846F4
:1023F000009904F09FFB7069C7F30A1108447061EB
:102400002068816941F010018161206804F08EFB31
:1024100000034FF0080B4FF0000A4FF001097CD584
:102420000026206804F061FB074674E0F80770D0CE
:10243000F1B2206804F072FB8046C00707D005EBBC
:102440004611C1F8089B3146204602F073FA5FEA54
:10245000087024D505EB4611C1F808BB2068016C53
:1024600000E023E200EB46100191D0F8082BFB4B73
:10247000994205D9110403D54FF40041C0F8081B57
:10248000204600F0F6FAF5490198884207D9A0796C
:10249000012804D120680121009A04F0DFF85FEAE6
:1024A000C86004D505EB46111020C1F8080B5FEA9F
:1024B00088701DD56869000605D5D5F8040840F474
:1024C0008061C5F8041806EBC60004EB800090F8A4
:1024D000571200F51570012905D180F803A0F1B25B
:1024E000204600F0E9F905EB46110220C1F8080B7F
:1024F0005FEA886004D505EB46102021C0F8081B70
:102500005FEA884005D505EB46104FF40051C0F84E
:10251000081B7F08761C002F88D1206804F006FB7A
:1025200040036ED5206804F0D9FA0746002666E01D
:10253000F80762D0F1B2206804F0DEFA8046C007E6
:1025400023D006F00F01D5F8342809FA01F18A43A7
:10255000C5F8342805EB4611C1F80899A07901287F
:102560000FD106EBC60004EB8000D0E9072111442F
:10257000016236B9606A20B920680121009A04F02E
:102580006DF8F1B22046FFF7CEFD5FEA087003D583
:1025900005EB4611C1F808B95FEAC86004D505EB40
:1025A00046111020C1F808095FEA486004D505EB20
:1025B00046104021C0F808195FEA887016D53146E8
:1025C000284604F05CFA06EBC60004EB8000C17DEF
:1025D0001430012905D180F803A0F1B2204600F0A3
:1025E00067F905EB46110220C1F808095FEA0860A7
:1025F00003D53146204602F003FA7F08761C002FEF
:1026000096D1206804F092FA002811DAD5F804086F
:1026100020F00101C5F8041894F8CC0401282BD04F
:10262000204600F00BFA2068416901F00041416149
:10263000206804F07BFA00050BD5D5F80808C00720
:1026400002D0204600F03EFA2068416901F40061A2
:102650004161206804F06AFAC00467D5D5F804081F
:1026600020F00100C5F804081021206804F007FAE2
:1026700000214FF67F3220E084F8CCA400212046D0
:10268000FFF726FDCFE700BF05EB4110C0F8082992
:10269000D0F8003923F40013C0F80039C0F8082B33
:1026A000D0F8003B23F40013C0F8003BD0F8003B07
:1026B00043F00063C0F8003B491C20798842E3D80E
:1026C000D5F81C0840F00111C5F81C18E07B002863
:1026D00028460DD0D0F8840840F00B01C5F88418C6
:1026E000D5F8440840F00B012846C5F844180DE021
:1026F000D0F8140842F22B010843C5F81408D5F8A5
:10270000100840F00B012846C5F81018D0F8000852
:1027100020F4FE61C5F80018A1792068009A03F042
:102720009DFF2068416901F480514161206804F0F7
:10273000FDF9800415D5206803F0D8FD206804F069
:10274000BCF9E07100F090FA0146E279206804F0EB
:102750004FFA204600F05CF92068416901F400510D
:102760004161206804F0E2F9000707D5204600F037
:1027700069F92068416901F008014161206804F0AD
:10278000D5F9000616D5A86920F08001A9610126B7
:102790000DE000BF06EBC60004EB800090F8570286
:1027A000012803D1F1B22046FFF7D4FC761C207932
:1027B000B042EFD8206804F0B9F9C0021FD5012655
:1027C0004F4614E005EB4610D0F8000906EBC601B1
:1027D00004EB81010A7E012A08D1002806DACF75B0
:1027E000F0B240F080012046FFF7B4FC761C20795F
:1027F000B042E7D82068416901F480114161206846
:1028000004F094F9800234D501204A4629E000BF43
:1028100005EB4011D1F8001B00EBC00304EB830370
:1028200093F85862012E1BD1002919DA94F8D46468
:10283000C1F3004106F001068E4211D183F8572200
:10284000A96941F08003AB616969090608D4D5F82C
:10285000040840F40070C5F8040805E00A30544F3D
:10286000401C21798142D3D82068416901F40011CC
:102870004161206804F05AF9400007D52046FFF76F
:102880004EFC2068416901F080414161206804F0FC
:102890004DF940070AD520684568680702D52046EB
:1028A000FFF754FC2068416829434160BDE8FC9F64
:1028B000D0F8E00403F0CFB9D0F8E00403F0DFB9BA
:1028C000F8B5040005D094F895042668002510B1E9
:1028D00006E00120F8BD84F89454204600F056F834
:1028E000032084F89504B6F1A04F00D1A5712068AB
:1028F00003F0AEFE207C8DF8000094E80F0003F09A
:1029000003FD0226B8BB0021206804F032F990BB19
:10291000002001270DE000BF00EBC00104EB8101A6
:102920004F750875C8850D76CD610D62401CC0B22B
:102930004D6221798142EFD8002011E000EBC00107
:1029400004EB810181F8555281F8540281F8585204
:10295000C1F85C52C1F86052401CC0B2C1F8645268
:1029600021798142EAD8207C8DF8000094E80F009C
:1029700003F0B0FD10B184F89564AAE7657484F89B
:102980009574206803F098FD0020F8BD10B586B05E
:10299000044614216846FDF734FE2068B0F1A04FCC
:1029A0002FD119480021026842F00102026000683C
:1029B00000F0010005904FF4C05000900220CDE9D6
:1029C0000101032003900A20049069460F48FFF795
:1029D000B9F80D48001D016841F0800101600A4806
:1029E0001430016841F4804101600068002200F465
:1029F0008040059005214320FFF738FB4320FFF777
:102A000027FB06B010BD0000303802400000024035
:102A100070B50446C079012570B1022801D0FEF7D7
:102A200083FD2946D4F8E00403F098F9D4F8E004D3
:102A3000BDE8704003F04CB90025F2E7D0F8E0049F
:102A400003F075B9D0F8E00403F07BB910B5044683
:102A500090F8940401280AD0012084F89404617449
:102A6000206804F0B4F8002084F8940410BD02201B
:102A700010BDD0F8E02400F29C41104603F07AB972
:102A800010B50446006894F89414012909D0012176
:102A900084F89414C168490609D5617B012902D0E4
:102AA00005E0022010BD816B41F480318163206814
:102AB00003F0C3FF206803F0F1FC002084F89404C5
:102AC00010BD000010B50446D0F8E00403F094F9FE
:102AD0002068D0F8001E41F00101C0F8001EE07A25
:102AE000002804D00248016841F00601016010BDD1
:102AF00010ED00E02DE9F0470E46050065D0DFF847
:102B00001481D8F80000F7B200F00700B04207D2F5
:102B100088F80070D8F8000000F00700B04254D1E7
:102B200028683D4C810712D5400703D5206840F442
:102B3000E05020602878000703D5206840F460400A
:102B400020602068A96820F0F00008432060287801
:102B5000C0072DD0304968680839012812D00228F2
:102B600013D0032811D00968890700292DDA2168BC
:102B700021F0030101432160FFF7E2F8814641F2B1
:102B8000883A0EE009688903EFE709688901ECE7F4
:102B9000FFF7D6F8A0EB0901514502D90320BDE8A3
:102BA000F0872068696800F00C00B0EB810FEFD16E
:102BB000D8F80010404601F00701B14207D907706C
:102BC000006800F00700B04201D00120E7E7287854
:102BD000400705D52068E96820F4E05008432060EC
:102BE0002878000706D52068296920F4604040EA6B
:102BF000C100206000F05EF82168084AC1F30311AB
:102C0000515CC8400649086006480068FFF7B8F9FB
:102C10000020C4E7003C0240083802400C8700084E
:102C20008C000020840000200F2202600C4A1368F0
:102C300003F003034360136803F0F0038360136839
:102C400003F4E053C36012684FF4E05303EAD20286
:102C500002610448006800F0070008607047000047
:102C600008380240003C02400148006870470000FC
:102C70008C0000200448054900680968044AC1F333
:102C80008221515CC84070478C0000200838024007
:102C90001C8700080448054900680968044AC1F314
:102CA0004231515CC84070478C0000200838024017
:102CB0001C870008154810B5006810F00C02144875
:102CC00013D04110042A0FD0082A0ED10F4C241F14
:102CD0002268236802F03F025B0207D52068C0F338
:102CE0008810A0FB010106E0084610BD2168C1F371
:102CF0008811A1FB00010023FDF742FB2168C1F30D
:102D00000141491C4900B0FBF1F010BD08380240F8
:102D10000024F4002DE9F84F04006ED02078DFF88D
:102D20004C93C007A9F104054AD009F104000168D9
:102D3000C1F38101012908D00068C0F38100022895
:102D40000AD1D9F80000400206D52868800337D59B
:102D500060680028E1D033E06068B0F5803F10D0B3
:102D6000B0F5A02F286810D020F4803028602868A3
:102D700020F4802028606068A8B1FEF7E1FF0646D5
:102D80000DE0286840F48030F4E740F480202860AB
:102D9000F7E700BFFEF7D4FF801B642873D82868CC
:102DA0008003F7D50CE0FEF7CBFF064605E000BF39
:102DB000FEF7C6FF801B6428F0D828688003F7D48C
:102DC0002078DFF8AC8280074FF0000A3ED5A74894
:102DD000001D016811F00C0F08D00068C0F38100DD
:102DE00002280BD1D9F80000400207D428688007D8
:102DF00016D5E068012800D112E033E1E068B8B1EF
:102E00000120C8F80000FEF79BFF064605E000BF62
:102E1000FEF796FF801B0228C0D828688007F7D5E8
:102E20002868216920F0F80040EAC10028600DE020
:102E3000C8F800A0FEF784FF064604E0FEF780FF16
:102E4000801B02281FD828688007F7D42078000745
:102E500022D5864F87486169703771B101210160C1
:102E6000FEF76EFF064604E0FEF76AFF801B0228AD
:102E700009D838688007F7D50EE0C0F800A0FEF743
:102E80005FFF064605E082E0FEF75AFF801B02283E
:102E90007DD838688007F7D42078400768D5DFF8F8
:102EA000CCB100270BF13C0BDBF80000C0000BD4C9
:102EB000DBF8001041F08051CBF80010DBF8000087
:102EC000012700F0805000906B4E3068C00510D490
:102ED000306840F480703060FEF732FF009005E00B
:102EE000FEF72EFF0099401A022850D83068C0051E
:102EF000F6D55E4EA0686C3601280FD005283068E4
:102F000010D020F001003060306820F00400306004
:102F1000A068B8B1FEF714FF00900FE0306840F0F1
:102F20000100F4E740F004003060F7E7FEF708FF27
:102F30000099411A41F28830814266D83068800792
:102F4000F4D50EE0FEF7FCFE009007E0FEF7F8FE79
:102F50000099411A41F28830814256D83068800782
:102F6000F4D42FB1DBF8001021F08051CBF8001021
:102F7000A069C8B33D49091D0968C1F3810102294F
:102F80004AD00228504607D0C8F8600000E03CE074
:102F9000FEF7D6FE04463BE04746C8F86000FEF761
:102FA000CFFE064605E000BFFEF7CAFE801B0228E2
:102FB0002BD828688001F7D4D4E907010843A16A17
:102FC0002E4A490802EB0141626A41EA8211084334
:102FD00094F82C1040EA0161C9F80010012038660D
:102FE000FEF7AEFE044606E03EE000BFFEF7A8FE98
:102FF000001B022809D828688001F7D534E000BFFB
:10300000FEF79EFE001B022802D90320BDE8F88FC0
:1030100028688001F4D427E00128F7D0D9F800000F
:10302000E26900F4800191421CD1226A00F03F0164
:10303000914217D147F6C071626A0140B1EB821F1D
:1030400010D1A26A4FF0FF3300F4403103EB52027B
:10305000B1EB024F06D194F82C1000F07060B0EB89
:10306000016F01D00120D1E70020CFE704380240F2
:1030700000004742800E4742007000400000FFFF02
:1030800070B5040009D0606A002540B12561656112
:10309000A56294F8510040B10CE0012070BD606859
:1030A000B0F5827FF4D0E561F2E784F85050204615
:1030B00000F044F8022084F851002068016821F0F3
:1030C00040010160A088218900F4827001F404416C
:1030D0000843A18901F400610843217C01F0020149
:1030E0000843217D01F001010843218B01F40071A7
:1030F0000843217F01F03801084394F8201001F0C3
:1031000080010843218D01F40051084321680860C3
:10311000A069042101EA104094F8241001F0100184
:103120000843216848602068C16921F40061C161D9
:103130006565012084F85100002070BD10B586B08F
:10314000044614216846FDF75CFA1349206888425A
:1031500020D112480021026842F4805202600068C7
:1031600000F4805005900D481438026842F00102C6
:103170000260006800F001000590E020009002204D
:10318000CDE901010320039005200490694604481D
:10319000FEF7D8FC06B010BD0030014044380240B4
:1031A000000002402DE9F84F044690F851001D46FA
:1031B00016460F46012838D1002F77D0002E75D043
:1031C00060684FF00408B0F5827F01D1A06810B3A9
:1031D000FEF7B6FD824694F85000012825D04FF046
:1031E000010984F8509084F851804FF00008C4F829
:1031F0005480A763A687E687C4F83080A4F834809B
:10320000A4F83680C4F84080C4F84480A068B0F5C3
:10321000004F0CD015E084F85180009313460A4605
:10322000204600F01CF9BDE8F88F0220FBE720687B
:10323000016821F0400101602068016821F48041AB
:10324000016020680168490603D4016841F040012B
:103250000160E068C0B134E020688168C90709D026
:10326000007BA16B0870A06B401CA063E08F401E28
:10327000E08709E0FEF764FDA0EB0A00A84202D354
:10328000681C01D032E085B3E08F0028E4D11BE058
:1032900020688168C9070AD0C068A16B0880A06B4C
:1032A000801CA063E08F401EE0870AE01BE0FEF771
:1032B00047FDA0EB0A00A84202D3681C01D015E02C
:1032C0009DB1E08F0028E3D152462946204601F007
:1032D00012FC08B12020606584F8519084F8508079
:1032E000606D00289FD001209DE7FFE784F8519092
:1032F00084F85080032096E72DE9F84F984616464B
:103300008A460446FEF71CFD814694F851000128C8
:103310001ED1BAF1000F73D0002E71D094F8500076
:10332000012815D0012784F85070032084F851003B
:1033300000256565C4F830A0A686E686A563A58746
:10334000E58765642564A068B0F5004F03D00CE004
:103350000220BDE8F88F2068016821F0400101607B
:103360002068016841F480410160206801684906D5
:1033700003D4016841F040010160E068B0F5006FDE
:10338000606803D048B3012E27D047E008B1012E72
:103390001FD1206B21680088C86006E02068816822
:1033A000890709D5216B0988C160206B801C2063C7
:1033B000E08E401EE0860CE0FEF7C2FCA0EB0901A7
:1033C000414503D3B8F1FF3F03D035E0B8F1000F1A
:1033D00032D0E08E0028E1D123E0206B2168007814
:1033E000087306E02068816889070AD5216B09788F
:1033F0000173206B401C2063E08E401EE0860DE0D0
:103400002BE0FEF79DFCA0EB0901414503D3B8F189
:10341000FF3F03D010E0B8F1000F0DD0E08E002880
:10342000E0D14A464146204601F094FB08B12020F5
:103430006065A06830B109E084F8517084F850509C
:10344000032086E72068C1688068009084F8517086
:1034500004F8505F60680028F3D0012079E72DE977
:10346000FF4F81B01D46934604464FF001090E9E62
:10347000FEF766FC074694F851006168012806D003
:10348000B1F5827F3CD1A168C9BB042838D102982C
:10349000002871D0BBF1000FFBD0002DF9D094F8BB
:1034A000500001282CD04FF0010A84F850A094F865
:1034B0005100042802D0052084F851004FF0000884
:1034C000C4F85480C4F838B0E587A5870299216311
:1034D000E586A586C4F84080C4F844802068016869
:1034E000490603D4016841F040010160E068B0F58D
:1034F000006F606808D0F0B3012D49D081E0FFE78C
:10350000022005B0BDE8F08F08B1012D39D1206B44
:1035100021680088C860206B801C2063E08E401EFC
:10352000E0862EE02068816889070FD5E18E69B1B9
:10353000B9F1010F0AD1216B0988C160206B801C91
:103540002063E08E401EE0864FF00009206881680D
:10355000C9070CD0E18F51B1C068A16B0880A06B86
:10356000801CA063E08F401EE0874FF00109FEF74A
:10357000E7FBC01B01E00BE067E0B04201D3701C29
:1035800050D1E08E0028CDD1E08F0028CAD13EE096
:10359000206B216800780873206B401C2063E08E4C
:1035A000401EE0862DE02068816889070FD5E18EF6
:1035B00069B1B9F1010F0AD1216B09780173206B50
:1035C000401C2063E08E401EE0864FF0000920681A
:1035D0008168C9070CD0E18F51B1C068A16B087038
:1035E000A06B401CA063E08F401EE0874FF00109F4
:1035F000FEF7A6FBC01BB04202D3701C01D011E045
:1036000086B1E08E0028CED1E08F0028CBD13A469B
:103610003146204601F09EFA50B12020606584F8C2
:10362000508012E084F851A084F85080032068E7AD
:10363000A06818B92068C1688068009084F851A01B
:1036400084F85080606D0028F1D0012059E7704760
:10365000704710B590F83C20012A22D0012280F852
:103660003C20CA688C6822F4407222434C6822F4E1
:10367000806222430C6822F4006222430C6922F427
:10368000805222434C6922F400522243C96900232C
:1036900022F480420A4301684A6480F83C300020EA
:1036A00010BD022010BD000070B590F83C20012A2A
:1036B00032D0012480F83C40022280F83D2003688B
:1036C0005A689D6822F070060A6832435A60134BAC
:1036D00002689A4214D0B2F1804F11D0104B9A4236
:1036E0000ED0104B9A420BD00F4B9A4208D00F4B82
:1036F0009A4205D00E4B9A4202D00E4B9A4204D108
:10370000496825F080031943916080F83D4000210D
:1037100080F83C10084670BD022070BD00000140DA
:103720000004004000080040000C0040000401407C
:10373000004001400018004010B50446022249B183
:1037400004290ED0082913D094F84500012816D07A
:10375000012010BD94F842000128F9D184F84220DC
:103760000FE094F843000128F2D184F8432008E0E8
:1037700094F844000128EBD184F8442001E084F857
:1037800045200422206801F0DAFB2068416C41F4F6
:103790000041416411492068884214D0B0F1804F43
:1037A00011D00F4988420ED00E4988420BD00E49E5
:1037B000884208D00D49884205D00D49884202D080
:1037C0000C49884204D1816801F00701062903D021
:1037D000016841F001010160002010BD00000140BE
:1037E0000004004000080040000C004000040140BC
:1037F000004001400018004010B5040003D094F8C8
:103800003D0010B107E0012010BD002084F83C000D
:10381000204600F01FF8022084F83D00211D20689A
:1038200001F018FB012084F8460084F83E0084F87B
:103830003F0084F8400084F8410084F8420084F896
:10384000430084F8440084F8450084F83D000020DB
:1038500010BD000008B501681A48814209D11A4814
:10386000016841F001010160006800F00100009072
:1038700008BD1548154A001F91420ED1016841F05C
:10388000040101600068002200F00400009005219E
:103890001E20FEF7EBFB1E2010E00D4A9142E7D1FF
:1038A000016841F0200101600068002200F0200062
:1038B000009005213720FEF7D9FB3720BDE80840EE
:1038C000FEF7C6BB0000014044380240000800403B
:1038D0000014004090F83D10012901D001207047EC
:1038E000022180F83D100168CA6842F00102CA60F6
:1038F00000681149884214D0B0F1804F11D00F49AF
:1039000088420ED00E4988420BD00E49884208D01A
:103910000D49884205D00D49884202D00C498842A1
:1039200004D1816801F00701062903D0016841F044
:1039300001010160002070470000014000040040C8
:1039400000080040000C004000040140004001401D
:103950000018004070B5044690F83C00002501288E
:1039600017D0012684F83C60022084F83D002068CE
:10397000826822F0770222F47F4282600868502831
:1039800038D00DDC20284FD005DC90B3102811D1A1
:103990004AE0022070BD302846D040280AD13BE0E2
:1039A00060282FD070280DD0B0F5805F03D0B0F51F
:1039B000005F12D0012584F83D60002084F83C00AF
:1039C000284670BDCB68D1E90121206801F0C4FA16
:1039D0002068816841F0770109E0CB68D1E90121D5
:1039E000206801F0B9FA2068816841F48041816063
:1039F000E1E719E0CA684968206801F081FB5021BD
:103A0000206806E0CA684968206801F08AFB6021E6
:103A1000206801F0ABFACEE7CA684968206801F077
:103A20006FFB40212068F4E7226801461046F0E76A
:103A300070472DE9F04104460068C66805694FF0FB
:103A40000007A90713D5B10711D5F91E016101209F
:103A50002077206880698007204602D0FFF7E8FFC2
:103A600004E000F0BDF8204600F04FF92777680722
:103A700016D5700714D521686FF004000861022084
:103A800020772068806910F4407F204602D0FFF73D
:103A9000CFFF04E000F0A4F8204600F036F92777C5
:103AA000280715D5300713D521686FF00800086185
:103AB000042020772068C0698007204602D0FFF7E5
:103AC000B7FF04E000F08CF8204600F01EF92777DD
:103AD000E80616D5F00614D521686FF010000861CD
:103AE000082020772068C06910F4407F204602D06B
:103AF000FFF79EFF04E000F073F8204600F005F9A0
:103B00002777E80708D0F00706D021686FF001009A
:103B10000861204600F05EF9280608D5300606D573
:103B200021686FF0800008612046FFF790FD68066D
:103B300008D5700606D521686FF040000861204660
:103B400000F0E2F9A8060AD5B00608D521686FF0A2
:103B5000200008612046BDE8F041FFF779BDBDE8CF
:103B6000F081000070B586B0044614216846FCF769
:103B700048FD17492068884228D11648002401686A
:103B800041F002010160016801F002010591016844
:103B900041F0100101600068022500F0100005905E
:103BA00003200090CDE901540126CDE90346694682
:103BB0000948FDF7C7FF4FF42C500090CDE90154A0
:103BC000CDE9034669460548FDF7BCFF06B070BD68
:103BD0000000014030380240000402400010024062
:103BE000704770B5044690F83C0000260D46012849
:103BF0000FD0012084F83C006AB1042A1DD0082AA5
:103C00002FD00C2A3FD00126002084F83C003046FB
:103C100070BD022070BD206801F0B0F92068816994
:103C200041F0080181612068816921F0040181610E
:103C3000206881692A69114311E0206801F0CEF9FA
:103C40002068816941F4006181612068816921F403
:103C500080618161206881692A6941EA022181616C
:103C6000D2E7206801F0F0F92068C16941F008014D
:103C7000C1612068C16921F00401C1612068C16986
:103C80002A69114311E0206801F012FA2068C16925
:103C900041F40061C1612068C16921F48061C161A2
:103CA0002068C1692A6941EA0221C161ACE710B507
:103CB000040003D094F83D0010B107E0012010BDCE
:103CC000002084F83C00204600F01EF8022084F812
:103CD0003D00211D206801F0BDF8012084F8460058
:103CE00084F83E0084F83F0084F8400084F84100E6
:103CF00084F8420084F8430084F8440084F84500C6
:103D000084F83D00002010BD7047704710B5044690
:103D1000022249B104290ED0082913D094F8410099
:103D2000012816D0012010BD94F83E000128F9D1D9
:103D300084F83E200FE094F83F000128F2D184F887
:103D40003F2008E094F840000128EBD184F840209F
:103D500001E084F841200122206801F0E3F81649CF
:103D60002068164A884201D0904203D1436C43F444
:103D7000004343642068884213D0B0F1804F10D0D4
:103D80000F4988420DD00F4988420AD00E49884217
:103D900007D0904205D00D49884202D00C49884294
:103DA00004D1816801F00701062903D0016841F0C0
:103DB00001010160002010BD00000140000401402D
:103DC0000004004000080040000C0040004001409A
:103DD0000018004070B504462DED048B00683C4986
:103DE000884201D1FEF7AAF83A49206888426CD18E
:103DF000394DDFED3A0A9FED3A8AE888DFED398ADE
:103E000000EE100A384C3949B8EE400A60EE200A3C
:103E100080EE880A20EE280A10EE100A84ED040ACB
:103E2000884203DD9FED320A84ED040A9FED319A4A
:103E30002088F2EE081A94ED021AF7EE000AB0EEAE
:103E4000490A00F04DFF94ED020ADFED2B0A2B49E1
:103E500070EE200A10EE900AC4ED020A884201DDDD
:103E600084ED029A288900EE100A2548F8EE400AEF
:103E700080EE880A20EE280A80ED000A698900EEAB
:103E8000101AF8EE400A80EE880A20EE280A80ED2B
:103E9000010AA98900EE101AB8EE400AC0EE080A1D
:103EA00020EEA80A80ED020AD0E9001210EE100AF6
:103EB000E1610D49C4E908201022BDEC048B1C31DE
:103EC000BDE870400F4800F04FBABDEC048B70BDE8
:103ED0000010004000140040E00E00204260054148
:103EE00000F07F45333353400000002000C05A45A6
:103EF00000C05A450000000086C3E43ADA0FC9400A
:103F0000E40100201C040020704770477047000047
:103F1000F8B5016804460868CA684B6910F00F0FCD
:103F20004FF0000559D003F0010602F490773743B3
:103F300065D0C10705D0D10503D5616C41F0010101
:103F40006164410705D5D90703D0616C41F00201D6
:103F50006164810705D5D90703D0616C41F0040184
:103F60006164010707D502F02001314303D0616C81
:103F700041F008016164616C00293AD0800604D5E3
:103F8000900602D5204601F065F920684069616C11
:103F9000C0F38010090700D460B3204601F025F972
:103FA00020684069400621D52068143050E8001F81
:103FB00021F0400140E80012002AF5D1E06BA8B1E1
:103FC00072490165E06BFDF726FC002811D0E06B1B
:103FD000016D01B0BDE8F040084783060FD5930698
:103FE0000DD52046BDE8F84001F034B92046FFF772
:103FF0008DFFF8BD2046FFF789FF6564F8BD266B8D
:104000002023012E7ED1C6067CD5D6067AD5086837
:104010004868009048694FF0020640064DD5E26BB3
:10402000106840684FF480770004000C3AD0A18DEE
:10403000814237D9E085D069B8422DD020680C3054
:1040400050E8001F21F4807140E80012002AF5D1E9
:104050002068143050E8001F21F0010140E80012F0
:10406000002AF5D12068143050E8001F21F04001EB
:1040700040E80012002AF5D184F842302563206818
:104080000C3050E8001F21F0100140E80012002A17
:10409000F5D1E06BFDF776FB6663A08DE18D401AEC
:1040A00081B206E0A18D8142A8D1D069B842A5D1E4
:1040B00066632046FFF729FFF8BDA08DE18D401A09
:1040C00081B2E08D0028F7D00029F5D020680C30AF
:1040D00050E8002F22F4907240E80027002FF5D11D
:1040E0002068143050E8002F22F0010240E8002739
:1040F000002FF5D184F84230256320680C3050E859
:10410000002F00E006E022F0100240E80023002B20
:10411000F3D1CDE705062BD5150629D594F8410036
:104120002128C9D1A068B0F5805F01D12069B0B164
:10413000206A411C2162216800784860E08C401EA2
:104140000004000CE084B7D12068C16821F0800130
:10415000C1602068C16841F04001C160F8BD206ABB
:104160000088C0F308004860206A801C2062E5E7F0
:104170004006F3D55006F1D5CA68204622F0400229
:10418000CA6084F8413000F031F9F8BD47510008A9
:1041900070B5040004D094F84100002510B106E089
:1041A000012070BD84F84050204600F023F8242000
:1041B00084F841002068C16821F40051C1602046A4
:1041C00001F0AAF82068016921F49041016120689A
:1041D000416921F02A0141612068C16841F4005120
:1041E000C1606564202084F8410084F84200656362
:1041F000002070BD70B586B0064614216846FCF7F5
:1042000000FA24493068884241D1234800250168DA
:1042100041F010010160006800F0100005901E4898
:104220001438016841F0010101600068694600F03E
:10423000010005904FF4C06000900220CDE9010517
:1042400003200390072004901448FDF77BFC154CD5
:10425000134820604FF0006060604020C4E9020510
:104260000001C4E90405A561E56125622046656297
:10427000FDF7B4FB08B1FDF757F9B463002205213F
:104280002520A663FDF7F2FE2520FDF7E1FE06B02E
:1042900070BD0000001001404438024000000240A0
:1042A000B86402406404002090F84230202B01D012
:1042B0000220704721B11AB10023036301F0B2B8A4
:1042C0000120704770472DE9F843044690F84100FB
:1042D000984616460D46202802D00220BDE8F883F5
:1042E00085B17EB100206064212084F84100FDF793
:1042F00027FDA6848146E684A0682027B0F5805F6C
:1043000002D003E00120E9E7206910B12E46002524
:104310000EE000260CE08021204601F09EF8A8B9AE
:10432000C6B116F8010B21684860E08C401EE0849D
:10433000E08C4B464FF00002CDF800800028EAD117
:104340004FF04001204601F088F840B184F84170F8
:104350000320C3E735F8020BC0F30800E3E784F855
:1043600041700020BAE7000070B5044690F84100A3
:10437000202801D0022070BD01B3FAB12162A284CD
:10438000E28400206064212384F84130A56B144B43
:10439000EB63A56B134B2B64A56B134BEB64A36B07
:1043A000186520681346A56B021D2846FDF780FBA3
:1043B00030B110206064202084F84100012070BDDD
:1043C00021686FF0400008602068143050E8001F3A
:1043D00041F0800140E80012002AF5D1002070BDB4
:1043E0009F510008E151000855510008704770477F
:1043F000FEE70000F0B500230A24302537261F46CB
:1044000011E000BFB4EB107F02D905EB107C01E096
:1044100006EB107C01F813C001EB430C00015B1CA0
:104420008CF80170DBB29342ECD3F0BD2DE9FF4173
:1044300000253548009501950295324903950160A4
:1044400001244FF480310461C0E90115047680F83D
:1044500020502E49C0E90A150726C661C56080F8BC
:1044600030404461FDF708F908B1FDF75DF80A2016
:104470008DE8310069462448FDF758F808B1FDF78A
:1044800053F80B200225CDE9000569461E48FDF7CB
:104490004DF808B1FDF748F80C200327CDE90007D7
:1044A00069461948FDF742F808B1FDF73DF80D20BF
:1044B00000900420019069461348FDF737F808B1D1
:1044C000FDF732F80520CDE9004069460E48FDF7BA
:1044D0002DF808B1FDF728F80620CDE9005069460F
:1044E0000948FDF723F808B1FDF71EF8CDE900767D
:1044F00069460548FDF71AF8002801D0FDF714F8C1
:10450000BDE8FF8100200140F00100200100000F04
:104510000D4808B5016841F480010160006800227F
:1045200000F48000009005213820FDF79FFD382021
:10453000FDF78EFD002205214620FDF797FDBDE821
:1045400008404620FDF784BD3038024010B5044ACB
:104550000021044802F0D8FC0349086010BD0000A7
:10456000E0860008D54C00082C0000202DE9F0431F
:1045700087B014216846FCF744F83C4800240168E1
:1045800041F004010160016801F004010591016836
:1045900041F020010160016801F0200105910168EE
:1045A00041F080010160016801F08001059101681E
:1045B00041F001010160016801F00101059101680C
:1045C00041F002010160016801F0020105910168FA
:1045D00041F0100101600068254F00F010004FF419
:1045E000C0650590012229463846FDF7A3FBDFF898
:1045F0008480012210214046FDF79CFBDFF8789073
:1046000000224FF488514846FDF794FB00950125A0
:10461000CDE90154694638460394FDF793FA10201A
:104620000226CDE90005CDE9024669464046FDF780
:1046300089FA4FF470408DE8310069463846FDF73D
:1046400081FA28030090CDE9015469464846039455
:10465000FDF778FA280203948DE861006946484620
:10466000FDF770FA07B0BDE8F08300003038024073
:104670000014024000000240000402400D4810B542
:104680000B4901600C49416000214FF48042816078
:10469000C0E9031241618161C1610162FDF756FB0E
:1046A000002803D0BDE81040FCF73EBF10BD00005D
:1046B0000054004098020020A0860100104810B568
:1046C0000E4901604FF48271416000218160012236
:1046D000C160C0E90412520282611022C0E90721C0
:1046E000416281620A21C162FEF7CAFC002803D040
:1046F000BDE81040FCF718BF10BD000000300140BD
:10470000EC02002010B596B000240F941094119480
:10471000129413941C2168461494FBF772FF202115
:1047200007A8FBF76EFF354833490160012141605E
:104730002021816041F26701C0E903144461846172
:10474000FFF75AF808B1FCF7EFFE4FF480500F90D6
:104750000FA92A48FFF7FEF808B1FCF7E5FE274845
:10476000FFF7A5FA08B1FCF7DFFE139413A923485D
:104770001494FEF799FF08B1FCF7D6FE6020009074
:1047800040F2EC40CDE90104039404940594002226
:1047900069461A480694FFF724FA08B1FCF7C4FEEC
:1047A00040F634000190042269461448FFF719FAD4
:1047B00008B1FCF7B9FE40F67C300190082269464A
:1047C0000E48FFF70EFA08B1FCF7AEFE0794089406
:1047D00009944FF400500A94CDE90B4007A907480B
:1047E0000E94FEF736FF08B1FCF79EFE0348FFF774
:1047F000B9F916B010BD00000000014044030020CC
:1048000010B586B0002417480094019402940394D4
:10481000049413490594016040F28F61C0E90114CA
:1048200040F2E731C0E903148461FEF7E5FF08B107
:10483000FCF77AFE4FF48050009069460948FFF774
:1048400089F808B1FCF770FE049404A905480594A2
:10485000FEF72AFF002801D0FCF766FE06B010BD67
:10486000000800408C0300201CB500240E48009472
:104870000C490194C0E9001440F28261C0E9024190
:104880008461FEF7B9FF08B1FCF74EFE009469465B
:1048900005480194FEF708FF002801D0FCF744FE0C
:1048A0001CBD000000140040D40300200C4810B5CB
:1048B0000A4901604FF4E1314160002181600C221E
:1048C000C160C0E904128161C161FFF761FC002889
:1048D00003D0BDE81040FCF727BE10BD001001401A
:1048E0001C04002010B500220B490C4801F098F878
:1048F00008B1FCF719FE0A49084801F0A9FA08B105
:10490000FCF712FE054801F027FB002803D0BDE8A4
:104910001040FCF709BE10BD300000200C0500203F
:1049200014010020FEE7FEE70148FDF713BD00007B
:10493000FC0900202DE9F04103680D4604461E6C79
:1049400003EB4511D1F8080B94F806E04FF400474B
:104950004FF0200C04F29C42BEF1010F09D0DFF8A9
:1049600098E0764539D1020432D500BFC1F8087B02
:104970003FE0224B5FEA007E04D59E4239D9000415
:10498000F4D436E05FEA806E02D5C1F808CB30E09F
:1049900010F0280F2DD19E4201D90004E6D405EB7A
:1049A000C50004EB8000D1F8101BD0F87432C1F3BD
:1049B0001201591AC0F8681200F51570ADB90369F3
:1049C0001BB1C2681144C1600FE0012120680AE0F8
:1049D00080060AD5C1F808CB07E035B9D4F86402DF
:1049E00018B90021184601F039FEE9B22046FDF75A
:1049F000A3FB0020BDE8F0810A31544F0A30544F28
:104A00002DE9F84F0E4601EBC60100EB810481460B
:104A10000568D4E909101434884202D90120BDE8A0
:104A2000F88F081AA168814200D20846C01C870886
:104A300005EB46181BE000BFA0EB010AA06850453B
:104A400000D282460AF10300870899F80600009018
:104A50001FFA8AF3F2B22846E16802F03DF9E168F4
:104A600001EB0A00E060616901EB0A006061D8F8BF
:104A7000180980B2B84205D3D4E90401814201D2B9
:104A80000028D9D1D4E90401884208D806F00F01E2
:104A900001208840D5F834188143C5F83418002027
:104AA000BDE770B50C462DED048BF0EE419AF0EEAB
:104AB000408A0546B0EE608AB0EE690AFCF7E0FA7B
:104AC00020EE289AB0EE690AFCF726FB08EE409A21
:104AD000B0EE690A85ED009AFCF71EFB60EE288AAD
:104AE000B0EE690AFCF7CCFA48EE008AC4ED008A01
:104AF000BDEC048B70BDF8B5044640684FF482737A
:104B0000984221D1A0684FF48065B0F5004F01D0E4
:104B1000A8420AD12068066826F040060660606850
:104B2000984211D1A068A8420ED000920B460022F4
:104B30008021204600F044F8002804D0606D40F049
:104B4000200060650320F8BD00920B460022012181
:104B5000EFE70000F8B515460E460B4600920446F6
:104B60000122022100F02CF8A0B913481349006873
:104B7000B0FBF1F04FF47A71484300906068B0F5F3
:104B8000827F0DD13346002280212046009500F01F
:104B900017F870B1606D40F0200060650320F8BD2B
:104BA000009830B1401E009020688068C043000625
:104BB000F6D50020F8BD00008C00002000366E0104
:104BC0002DE9F8431E46914688460446089DFDF7A8
:104BD000B7F8401B351AFDF7B3F8074626480068BA
:104BE000C0F3CB3068430AE0701C09D0FDF7A8F889
:104BF000C01BA8420FD275B10098B8B3401E0090F8
:104C00002068816838EA010033D000214945EBD1A2
:104C10000020BDE8F8832068416821F0E001416090
:104C20006068B0F5827F0BD1A068B0F5004F02D06C
:104C3000B0F5806F04D12068016821F04001016067
:104C4000A06AB0F5005F09D12068016821F4005125
:104C500001602068016841F400510160012084F87E
:104C60005100002084F850000320D2E7FFE7002520
:104C7000C6E70121CAE700008C00002001784078D7
:104C800041EA0020704700009FED101A9FED102AA6
:104C9000F6EE001A20EE011A20EE020AF5EEC00A26
:104CA000002000EEE11A00EEE10AF1EE10FA00DD5C
:104CB0000120B5EEC01AF1EE10FA00DD801CB5EE51
:104CC000C00AF1EE10FA00DD001D7047D7B35D3F5A
:104CD000D7B35DBFFFF706FE012002F0D9F8FBE76E
:104CE00030B504462DED028B89B0B0EE618ADFED60
:104CF0001E1A02A9CDED011ACDED021A01A8FFF787
:104D0000D0FEDDED020A9DED010AFFF7BDFF00EECA
:104D1000104A054604AAF8EE401A03A9B0EE481A54
:104D2000DDED020A9DED010A01F0ECFF07A80090FD
:104D300006AB05AA2146DDED040A9DED030A2846CF
:104D4000FCF7C7FA0948BDF81410026851630268FD
:104D5000BDF8181091630068BDF81C10C16309B05C
:104D6000BDEC028B30BD00000000000044030020B9
:104D700010B54FF0E020006903F0F6FA012803D0E7
:104D8000BDE8104003F024B810BD000030B593B06A
:104D900030216846FBF735FC14210CA8FBF731FCE9
:104DA0001D480025016841F080510160006800F055
:104DB000805011901948016841F4804101600068F9
:104DC000022400F480401190012000900004019022
:104DD0008001CDE9064004200890A820CDE909040F
:104DE00007200B906846FDF795FF08B172B6FEE705
:104DF0000CA90F2081E831004FF4A0500F904FF420
:104E00008050109005210CA8FDF774FE002801D0F9
:104E100072B6FEE713B030BD40380240007000406B
:104E20000248016841F470010160704788ED00E0BC
:104E30000148FEF7FEBD00008C0300200148FEF78C
:104E4000F8BD0000C40400200148FEF7F2BD0000D8
:104E5000D4030020F0B50268274B284D284E294F77
:104E6000294C4FF0804C984209D0604507D0A842A9
:104E700005D0B04203D0B84201D0A04204D122F004
:104E8000700E4A6842EA0E0298421BD0604519D063
:104E9000A84217D0B04215D0B84213D0A04211D0CA
:104EA0001A4DA8420ED01A4DA8420BD0194DA84257
:104EB00008D0194DA84205D0184DA84202D0184D6F
:104EC000A84203D122F44075CA682A434D6922F0F2
:104ED00080022A438D68C5620D688562984201D0C0
:104EE000A04201D109690163016841F00401016038
:104EF000012141610260F0BD00000140000400405A
:104F000000080040000C0040000401400040014047
:104F1000004401400048014000180040001C0040CF
:104F20000020004010B501F01F030121046A9940E0
:104F30008C430462016A9A401143016210BD10B5AE
:104F400001F00F030421046A99408C430462016A52
:104F50009A401143016210BD10B5846842EA0322F1
:104F600024F47F440A432243826010BD826822F009
:104F700070020A4342F0070181607047F0B5036A8E
:104F8000026A22F00102026242688469124E24F031
:104F900073050C682C4323F002058B682B430D4DE1
:104FA000A84201D0B04205D123F00807CB683B43AB
:104FB00023F00403A84201D0B04205D14D6922F488
:104FC000407215438A692A4342608461496841639B
:104FD0000362F0BD0000014000040140F0B5026A28
:104FE000036A23F010030362436884690D6824F4A4
:104FF000E64444EA05248D6822F0200242EA0512C4
:105000000F4D104EA84201D0B04206D1CF6822F019
:10501000800242EA071222F04002A84201D0B042C8
:1050200007D14D6923F4406343EA85038D6943EA60
:10503000850343608461496881630262F0BD0000BA
:105040000000014000040140F0B5026A036A23F445
:10505000807303624368C46922F4007224F073050C
:105060000C68124E2C438D6842EA05220E4DA84270
:1050700001D0B04206D1CF6822F4006242EA072292
:1050800022F48062A84201D0B04207D14D6923F4D6
:10509000405343EA05138D6943EA05134360C46135
:1050A0004968C1630262F0BD000001400004014094
:1050B00030B5046A026A22F4805202624268C3690F
:1050C0000D6823F4E64343EA05238D6824F4005475
:1050D00044EA0534084DA84202D0084DA84204D144
:1050E0004D6922F4804242EA85124260C3614968F8
:1050F0000164046230BD0000000001400004014072
:1051000010B5036A046A24F001040462846924F07F
:10511000F00444EA021423F00A020A4384610262A2
:1051200010BD10B5036A046A24F010040462846997
:1051300023F0A00324F4704444EA023243EA01114C
:105140008261016210BD10B5806B0021C185FEF740
:10515000DDFE10BD70B5846B2068406994F8411085
:10516000C0F3C0100025212904D118B1E5842046E0
:1051700000F062F82068406994F84210C0F3801093
:10518000222904D118B1E585204600F02EF8606C84
:1051900040F0100060642046FEF7B8FE70BD10B508
:1051A0000146806B09680968C90516D40021C184CD
:1051B0000168143151E8002F22F0800241E80023F9
:1051C000002BF5D101680C3151E8002F42F040026C
:1051D00041E80023002BF5D110BDFFF707F910BD02
:1051E00010B5806BFFF703F910BD01680C3151E871
:1051F000002F22F4907241E80023002BF5D10168C2
:10520000143151E8002F22F0010241E80023002B65
:10521000F5D1016B012909D101680C3151E8002F4A
:1052200022F0100241E80023002BF5D1202180F864
:10523000421000210163704701680C3151E8002FD2
:1052400022F0C00241E80023002BF5D1202180F894
:105250004110704708B590F84210222901D0022071
:1052600008BD82684FF480539A4201D1016921B18F
:10527000816A9A421BD04AB10AE00268816A526888
:10528000C2F308020A80816A891C08E0026972B1CF
:105290000268526802F07F020A70816A491C8162CA
:1052A000C18D491E0904090CC18503D01BE00268A9
:1052B0005268F1E70168CA6822F02002CA600168FA
:1052C000CA6822F48072CA6001684A6922F0010249
:1052D0004A61202180F8421000214163026B012ABB
:1052E00003D0FEF7EFFF002008BD016301680C3119
:1052F00051E8002F22F0100241E80023002BF5D1E5
:1053000001680A68D20602D50A6849680091818D51
:10531000FEF7FBFDE7E7000070B504460068016991
:10532000E26821F44051114301612169A068E269FA
:1053300008436169114308432168CA6849F20C6354
:105340009A430243CA6020684169A26921F440710E
:105350001143416131492068884202D03049884276
:1053600002D1FDF797FC01E0FDF784FCE269002320
:10537000192164253226B2F5004F626828D0A0FBBF
:105380000101930F9200FAF7FBFF0146B0FBF5F025
:105390006FF01802504301EB800006EB0010B0FBE9
:1053A000F5F000F0F002B1FBF5F002EB0012B1FBFA
:1053B000F5F06FF01803584301EB800006EB001086
:1053C000B0FBF5F000F00F0021681044886070BD5C
:1053D000A0FB010192185B41FAF7D2FF0146B0FB36
:1053E000F5F00201B1FBF5F06FF01803584301EB43
:1053F000800006EBC000B0FBF5F000F0F80002EB17
:105400004002B1FBF5F0584301EB800006EBC00011
:10541000B0FBF5F000F00700D6E7000000100140F7
:105420000014014081628285C285002141642221ED
:1054300080F84210016921B10168CA6842F48072A3
:10544000CA6001684A6942F001024A610068C168A5
:1054500041F02001C160002070472DE9F8439846D3
:1054600017460D460446089E24E0701C22D0FCF727
:1054700067FCA0EB0800B0421AD8CEB12068C16822
:10548000490717D5802D15D0402D13D00168C94389
:1054900009070FD401680025406800902046FFF7F7
:1054A000A4FE0820606484F840500120BDE8F88321
:1054B0000320FBE72068006835EA000004D00020E4
:1054C000B842D2D00020F1E70120F9E70148FEF709
:1054D0001FBD00001C04002010B5D0F8B822002425
:1054E0005268904700B10324204610BD0020704749
:1054F00000207047134610B50A46002100F0DFFB7C
:10550000002010BD134610B50A46002100F081FCB2
:10551000002010BD10B50446802100F05BFC204641
:10552000BDE81040002100F055BC10B50521C0F8C1
:10553000941200231A46194600F0C1FB002010BD4A
:1055400010B50223C0F89432426182611346416271
:105550000A46002100F05DFC002010BD10B50421BA
:10556000C0F8941200231A46194600F052FC00209D
:1055700010BD000010B50A46024903A000F00FF963
:10558000004810BDE807002048494420436F6E667C
:105590006967000012200880004870475000002012
:1055A00010B50A46024903A000F0F9F8004810BD02
:1055B000E807002048494420496E746572666163BB
:1055C0006500000004200880004870474C0000205F
:1055D00010B50A46024903A000F0E1F8004810BDEA
:1055E000E807002053544D6963726F656C656374FE
:1055F000726F6E696373000010B50A46024903A01A
:1056000000F0CDF8004810BDE807002053544D339A
:10561000322048756D616E20696E746572666163D3
:105620006500000010B51A2008800A480168001DB6
:105630000468001D0068081809D008220649FEF712
:10564000D9FE0549042210312046FEF7D3FE024858
:10565000801E10BD107AFF1F66000020F8B50446BA
:105660000020ADF8000048880D46010A08295FD2E5
:10567000DFE801F05E0409175E5E3C45D4F8B41221
:10568000207C0A6819E0207C02260028D4F8B802A1
:1056900005D0C16A684688470146467039E0816A8C
:1056A000F8E7C0B2062843D2DFE800F0030A10147E
:1056B000181CD4F8B402426805E0694690471CE023
:1056C000D4F8B402826892B3207CF6E7D4F8B4022E
:1056D000C268F8E7D4F8B4020269F4E7D4F8B40277
:1056E0004269F0E7D4F8B4028269ECE7207CF0B9B3
:1056F000D4F8B802416B68468847014609E0207C2F
:10570000A8B9D4F8B802016B68468847014607205B
:105710004870EA888AB1BDF8000040B1824200D9E1
:105720000246ADF800202046FFF70AFFF8BDFFE76C
:1057300029462046FFF7EEFEF8E72046FFF70EFF6A
:10574000F4E778B50E4642880178002504468A427F
:1057500012D9ADF800100AE0694600F019F8417856
:10576000052904D181780546B14205D0002561881C
:10577000BDF800209142EFD8284678BD01460020B0
:1057800002E0401CC0B2491C0A78002AF9D17047D7
:105790000A8803781A440A8001780844704770B573
:1057A00016460D46002820D00446FFF7E7FF0221E9
:1057B00001EB40014FF40070814204D82046FFF70E
:1057C000DDFF4000801C3080307828700320687036
:1057D0000220002206E02954401CC0B22A54401C7A
:1057E000C0B2641C21780029F5D170BD01004FF0D2
:1057F000000004D0012901D0022901D00320704704
:1058000001207047D0F8D422002100EB8200D0F8AC
:10581000C00201730846704770B5104E04463178D7
:1058200000F01AF93078002500F00F0000EB80003E
:1058300004EB800080F82350C561D4F8D40204EB57
:105840008000D0F8C00238B100F00AFDD4F8D402CC
:1058500004EB8000C0F8C052002070BD4C01002055
:105860000A210180004870478001002010B50446DD
:1058700081210548FFF765FF08B10A2181712220C7
:105880002080014810BD00005001002010B50446E2
:1058900081210548FFF755FF08B1072181712220BA
:1058A0002080014810BD00005001002010B50446C2
:1058B00081210548FFF745FF08B10A2181712220A7
:1058C0002080014810BD0000500100202DE9F0416A
:1058D0000446102000F0C6FC0500D4F8D4024FF0B6
:1058E000000704EB800023D0C0F8C052C4F8BC52BB
:1058F000207C124E00B30A203178042301F00F01FE
:1059000001EB810104EB81010322C861317820465B
:1059100000F0C9F93178012001F00F0101EB81019C
:1059200004EB810181F823002F730020BDE8F08192
:10593000C0F8C0720220F9E70720DDE74C01002023
:1059400038B50346D0F8D402002403EB8000D0F829
:10595000C002ADF8004030B10A7812F0600219D0F0
:10596000202A51D101E0032038BD4A78022A0ED006
:10597000032A06D00A2A06D00B2A45D1897801606D
:1059800046E001222FE04988090A416040E00122F7
:10599000011D29E04A78062A10D003DC3AB1012A19
:1059A00032D135E00A2A23D00B2A2DD128E093F8F2
:1059B0009C02032828D10222694615E04888222249
:1059C000B2EB102F05D1CA884A2A00D94A221348BF
:1059D00009E02122B2EB102F16D11048CA881838DE
:1059E000092A00D9092201461846FFF7A9FD0FE050
:1059F00093F89C22032A07D1012200F10801F3E762
:105A000093F89C22032A05D01846FFF783FD032450
:105A1000204638BD89788160FAE700008C010020BB
:105A200078B10023C0F8B832C0F8C432C0F8D03220
:105A300009B1C0F8B412012180F89C12027000F084
:105A4000CBB80320704710B5D0F8C802FCF7B6FBFE
:105A5000BDE81040FFF7CABE10B5D0F8C802FCF789
:105A600088FBBDE81040FFF7C1BE70B504460025B5
:105A700021B194F89C02032846D050E0D4F8941247
:105A800004F11400022939D1818942688A420AD975
:105A9000511A4160828901691144016142682046BE
:105AA000FFF730FD0FE0914214D10068884211D316
:105AB000D4F8981288420DD2002211462046FFF7F2
:105AC00021FDC4F8985200231A461946204600F0DA
:105AD000F6F813E094F89C02032808D1D4F8B80231
