:020000040800F2
:10000000401000200D0200084B1B00089D1900083D
:10001000491B000877030008613A0008000000004F
:100020000000000000000000000000009D1E00080D
:100030007903000800000000771E0008BD1E0008BC
:1000400027020008270200082702000827020008EC
:1000500027020008270200082702000827020008DC
:1000600027020008270200082702000827020008CC
:1000700027020008270200082702000827020008BC
:1000800027020008270200082702000827020008AC
:10009000E939000827020008270200087B0300084E
:1000A000270200082702000827020008270200088C
:1000B000270200082702000827020008270200087C
:1000C000270200082702000827020008270200086C
:1000D000270200082702000827020008270200085C
:1000E000270200082702000827020008270200084C
:1000F000270200082702000827020008270200083C
:10010000270200082702000827020008270200082B
:10011000270200082702000827020008270200081B
:10012000270200082702000827020008270200080B
:1001300000F002F800F05AF80AA090E8000C82449F
:100140008344AAF10107DA4501D100F04FF8AFF27C
:10015000090EBAE80F0013F0010F18BFFB1A43F0A5
:1001600001031847083A0000283A00000A444FF0FB
:10017000000C10F8013B13F0070408BF10F8014B06
:100180001D1108BF10F8015B641E05D010F8016B4B
:10019000641E01F8016BF9D113F0080F1EBF10F8AF
:1001A000014BAD1C0C1B09D16D1E58BF01F801CBD2
:1001B000FAD505E014F8016B01F8016B6D1EF9D555
:1001C0009142D6D37047000000230024002500266A
:1001D000103A28BF78C1FBD8520728BF30C148BFAA
:1001E0000B6070471FB51FBD10B510BD00F08AF839
:1001F0001146FFF7F7FF03F045FC00F0A8F803B441
:10020000FFF7F2FF03BC00F0AFF800000948804799
:1002100009480047FEE7FEE7FEE7FEE7FEE7FEE7E8
:10022000FEE7FEE7FEE7FEE704480549054A064B00
:1002300070470000391F000831010008400A002003
:1002400040100020400C0020400C002010B5203A47
:10025000C0F00B80B1E81850203AA0E81850B1E87F
:100260001850A0E81850BFF4F5AF5FEA027C24BF35
:10027000B1E81850A0E8185044BF18C918C0BDE82C
:1002800010405FEA827C24BF51F8043B40F8043BF5
:1002900008BF7047D20728BF31F8023B48BF11F8AA
:1002A000012B28BF20F8023B48BF00F8012B704704
:1002B0004FF0000200B5134694469646203922BFFF
:1002C000A0E80C50A0E80C50B1F12001BFF4F7AF4A
:1002D000090728BFA0E80C5048BF0CC05DF804EB2C
:1002E000890028BF40F8042B08BF704748BF20F89A
:1002F000022B11F0804F18BF00F8012B7047704798
:1003000070477047754600F02BF8AE460500694609
:10031000534620F00700854618B020B5FFF784FF4C
:10032000BDE820404FF000064FF000074FF00008F6
:100330004FF0000B21F00701AC46ACE8C009ACE877
:10034000C009ACE8C009ACE8C0098D46704710B5DB
:100350000446AFF300802046BDE81040FFF74FBFD2
:1003600000487047DC09002001491820ABBEFEE7B9
:10037000260002007047FEE7704710B54FF480700A
:1003800000F07AF8BDE810404FF4007000F074B847
:1003900072B6FEE710B50B480168001D0468001D29
:1003A0000068084400280BD00822074901F0F7FA3A
:1003B000054920460422BDE81040103101F0EFBA93
:1003C00010BD0000E8F7FF1F3A00002070B504469A
:1003D00000F07EF90546601C02D004480078044411
:1003E00000F076F9401BA042FAD370BD5400002003
:1003F0002DE9F0474FF48078032504261C4F1D4C4F
:100400004FF40079404518D14946384600F04AF982
:1004100001280DD04946384600F044F9002805D19E
:100420002078012807D0022800D12670BDE8F08787
:1004300001202070FAE72570F8E74845F6D14146DB
:10044000384600F02FF901280CD04146384600F01C
:1004500029F90028EAD12078012806D00228E5D120
:100460002670E3E702202070E0E72570DEE7000059
:10047000001001400000002010B504490A68024243
:1004800002D00860FFF7B4FF10BD00001404014063
:100490002DE9F84F00240023DFF8E0914FF00F081A
:1004A00009F1040A0AF1040B0BF1040EDFE0012745
:1004B000A7403A40BA4275D1DFF8C4C14D68A5EBF8
:1004C0000C0665452BD00DDC032D34D005DC35B38F
:1004D000012D19D0022D2FD11BE0112D16D0122D78
:1004E0002AD119E0B6F5881F19D006DCB6F5803F91
:1004F00015D0B6F5801F1FD111E0B6F5001F0ED044
:10050000B6F5041F18D10AE0CB6815E0CB681B1DB7
:1005100012E0CB6808330FE0CB680C330CE08B683B
:1005200023B1012B04D00823476105E0042303E035
:100530000823076100E00023FF2A01D8054601E0F7
:1005400000F1040502D84FEA840603E0A4F108068E
:100550004FEA86062F6808FA06FC27EA0C0703FA1A
:1005600006F647EA06072F604D68ED007ED5454D3B
:10057000AE6946F00106AE61AD6905F00105009572
:10058000414D24F003067719BE68A5072D0F08FA20
:1005900005FC26EA0C06DFF8F4C0604503D14FF0F5
:1005A000000C25E062E0DFF8E8C0604502D14FF0C2
:1005B000010C1DE0DFF8DCC0604502D14FF0020CF9
:1005C00016E0DFF8D4C0604502D14FF0030C0FE015
:1005D000DFF8C8C0604502D14FF0040C08E0DFF836
:1005E000C0C0604502D14FF0050C01E04FF0060C91
:1005F0000CFA05FC4CEA060CC7F808C04D68ED0380
:1006000005D5D9F800501543C9F8005004E0D9F8D1
:1006100000509543C9F800504D68AD0305D5DAF890
:1006200000501543CAF8005004E0DAF80050954332
:10063000CAF800504D68ED0205D5DBF800501543AF
:10064000CBF8005004E0DBF800509543CBF80050A5
:100650004D68AD0205D5DEF800501543CEF80050C8
:1006600004E0DEF800509543CEF80050641C0A68A0
:1006700032FA04F57FF41BAFBDE8F88F00040140A7
:10068000000011100010024000000140000801406D
:10069000000C01400010014000140140001801400E
:1006A000001C01408068084201D0012070470020F2
:1006B0007047C26821EA02030A4043EA024101612D
:1006C0007047002A01D00161704709040161704739
:1006D000014880687047000054000020024881688B
:1006E00002781144816070475400002010B507481B
:1006F000016841F010010160032000F077F80F203D
:1007000000F006F800F026F8002010BD002002409E
:1007100070B504460D4D4FF47A712878B1FBF0F0B6
:100720000B490968B1FBF0F001F0BAF808B10120FB
:1007300070BD102C07D200222146501E00F036F862
:100740006C60002070BD012070BD000054000020CE
:100750006000002008B50C48816941F00101816109
:10076000816901F001010091C16941F08051C161CD
:10077000C06900F0805000900449486820F0E060B3
:1007800040F00070486008BD0010024000000140C9
:10079000002809DB00F01F02012191404009800080
:1007A00000F1E020C0F8001170470000F0B40D46E1
:1007B0000D4B1B68C3F30223C3F10704042C00D9BB
:1007C0000424191D072901D2002300E0DB1E0126A5
:1007D00006FA04F1491E294099409E40761E1640B3
:1007E0003143F0BC03F03DB90CED00E000F007012F
:1007F000054A10684FF6FF03184040EA01200349FC
:1008000008431060704700000CED00E00000FA059E
:1008100010B50C0607D501F0070101EB810100EBD3
:10082000C100283005E001EB810100EBC10000F5BB
:10083000B47099B232B1012202730181190C418165
:10084000002010BD00220273C180F9E7704701EB60
:10085000810200EBC202D0F8E802D26B01F0E4BEE4
:1008600001EB810200EBC202D0F8E802D2F87C2151
:1008700001F045BF70B504460B0601F0070000EB20
:10088000800104EBC1014FF001024FF0000502D5D9
:1008900028314A7002E001F5B4714D70087094F887
:1008A000A802012808D084F8A822206802F0E1FB01
:1008B00084F8A852002070BD022070BD70B50446B7
:1008C00001F00F006268904201D9012070BD0B0653
:1008D00001F0070000EB800104EBC1014FF00102C1
:1008E0004FF0000502D528314A7002E001F5B471DD
:1008F0004D708D70087094F8A802012808D084F813
:10090000A822206802F067FC84F8A852002070BD7D
:10091000022070BD2DE9F05F0B788D6904685FEAF5
:10092000424A4FF0000C4BF68F7948F2800848F6A7
:100930008F7648F2C0074FF4806E32D5B4F850A0DD
:100940004FF0020B0BEBC30BDA440EEB4A0A34F800
:100950000A40C4F30904A54202D32D1B8D6101E0B6
:10096000C1F818C08D6955B9056835F823C00CEA7F
:10097000090C8CF4005C4CEA080C25F823C05206E4
:1009800007D50B78026832F8235035403D4322F8F2
:100990002350C4B30A8949690068234603F02DF83F
:1009A00031E0B4F850A04FF0060B0BEBC30BDA4468
:1009B0000EEB4A0A34F80A40C4F30904A54202D3F4
:1009C0002D1B8D6101E0C1F818C08D6955B905680E
:1009D00035F823C00CEA090C8CF4005C4CEA080CD6
:1009E00025F823C0520607D40B78026832F823504A
:1009F00035403D4322F823502CB14A8949690068AB
:100A0000234602F0FAFF2046BDE8F09F2DE9F05F93
:100A100005460C4616462178A36928685FEA466AAF
:100A200048F68F774CF280084FF4806E4FF0020941
:100A30004FF0060C4FF0000272D5B0F850B009EB41
:100A4000C10AD3440EEB4B0B30F80B00C0F3090086
:100A5000834202D91B1AA36100E0A261A36973B1AA
:100A6000730407D52B6833F821603E4046EA080638
:100A700023F8216094F82410012952D076E160789F
:100A800010B1012811D018E02868B0F850100844BF
:100A900000EB4A0000F58060018821F4F8410180F4
:100AA000018841F40041018007E02868B0F8501047
:100AB000084400EB4A00A0F800242868617811B1CE
:100AC000012913D01CE0B0F85010084421780CEB39
:100AD000C10100EB410000F58060018821F4F8417C
:100AE0000180018841F40041018009E0B0F8501014
:100AF000084421780CEBC10100EB4100A0F8002470
:100B000021782846FFF7A3FE7004B7D5217828681E
:100B100030F821203A4042EA080220F8212025E15D
:100B200057E0616901446161E1690144E161236960
:100B3000216A994203D31846091A216204E041B19F
:100B400084F8242008462262617829B101292ED038
:100B500038E084F82420F7E72968B1F850201144E0
:100B6000227809EBC20201EB420101F5806158B124
:100B70003E2812D84208C30700D0521C4FF6FF731C
:100B800003EA82220A801DE00A8822F4F8420A80E1
:100B90000A8842F400420A8014E04209C30600D1E8
:100BA000521E4FF4004343EA82220A800AE0296879
:100BB000B1F850201144227809EBC20201EB420146
:100BC000A1F8000483B222896169286802F034FF29
:100BD000CCE0B0F850A00CEBC10BDA440EEB4A0AA3
:100BE00030F80A00C0F30900834202D31B1AA36144
:100BF00000E0A261A36973B1730407D42B6833F8D2
:100C000021603E4046EA080623F8216094F824104B
:100C1000012955D0AAE0607810B1012813D01CE05A
:100C20002868B0F85030184409EBC10100EB4100CE
:100C300000F58060018821F4F8410180018841F4C9
:100C40000041018009E02868B0F85030184409EBF1
:100C5000C10100EB4100A0F800242868617811B1BF
:100C6000012913D01CE0B0F85010084421780CEB97
:100C7000C10100EB410000F58060018821F4F841DA
:100C80000180018841F40041018009E0B0F8501072
:100C9000084421780CEBC10100EB4100A0F80024CE
:100CA00021782846FFF7D3FD70045FD421782868A7
:100CB00030F821203A4042EA080220F8212055E08D
:100CC000616901446161E1690144E1612369216A6B
:100CD000994203D31846091A216204E049B1084633
:100CE000226284F82420296862782AB1012A2DD052
:100CF00036E084F82420F6E7B1F850201144227839
:100D00000CEBC20201EB420101F5806158B13E28B3
:100D100012D84208C30700D0521C4FF6FF7303EAF3
:100D200082220A801CE00A8822F4F8420A800A889B
:100D300042F400420A8013E04209C30600D1521E69
:100D40004FF4004343EA82220A8009E0B1F85020C0
:100D5000114422780CEBC20201EB4201A1F800041D
:100D600083B262896169286802F066FE207829688A
:100D700031F8202048F6BF731A4082F0100282F04A
:100D8000200248F280031A4321F820200020BDE809
:100D9000F09F2DE9F04104460F0601F0070000EB3B
:100DA000800104EBC1014FF001064FF0000502D5B0
:100DB00028314E7002E001F5B4714D7008700A617F
:100DC000CB704A7802B1C881022B00D10D7194F822
:100DD000A802012809D084F8A862206801F0F0FF79
:100DE000284684F8A852BDE8F0810220FBE770B5E0
:100DF0000D4605F0070404EB840100EBC10101F589
:100E0000B4714A618B610022CA614A700C706A0732
:100E100004D0006802F03FFA002070BD006802F0C4
:100E20003AFAF9E770B504460D46616805F0070027
:100E3000884201D9012070BD29064FF000064FF00D
:100E4000010206D500EB800104EBC10128314A7094
:100E500006E005EB850104EBC10101F5B4714E70AC
:100E60008A70087094F8A802012807D084F8A82294
:100E7000206802F0F2F9680702D006E0022070BD97
:100E800004F52C71206802F0A4F984F8A86200200F
:100E900070BD70B50D4605F0070404EB840100EB4E
:100EA000C10128314A618B61012281F824200B6243
:100EB0000023CB614A700C706A0704D0006802F00E
:100EC000EAF9002070BD006802F0E5F9F9E71FB506
:100ED0000446206802F08EFD000402D5204600F092
:100EE00035FE206802F086FD40050CD5206830F8FC
:100EF000441F21F480610180204600F01DF900218B
:100F0000204600F034F9206802F074FD400405D555
:100F1000206830F8441F21F480410180206802F0ED
:100F200069FD800405D5206830F8441F21F4005184
:100F30000180206802F05EFDC00414D5206830F8FE
:100F4000401F21F004010180206830F8401F21F08B
:100F500008010180204600F002F9206830F8441FA3
:100F600021F480510180206802F044FD00053ED547
:100F7000002021686A4631F8203022F81030401CE9
:100F8000C0B20828F7D331F8400F40F001000880C4
:100F9000206830F8401F21F0010101802068B0F87E
:100FA00044104905FBD530F8441F21F480610180CD
:100FB0000020236832F8101023F82010401CC0B223
:100FC0000828F6D3206830F8401F41F0080101805E
:100FD000206830F8441F21F400610180206830F857
:100FE000401F41F004010180204600F0F5F8206820
:100FF00002F000FD800508D5206830F8441F21F478
:1010000000710180204600F0AEF8206802F0F2FC8A
:10101000C00505D5206830F8441F21F48071018097
:101020001FBD2DE9F04186B00446002C04D094F891
:10103000A902002520B108E0012006B0BDE8F0813A
:1010400084F8A852204600F059F8032084F8A90239
:10105000206802F0B7F804F11001142288466846AF
:10106000FFF7F4F894E80F0002F001F8022718B136
:1010700084F8A9720120E0E70021206802F0D3FC87
:10108000002101260DE001EB810004EBC0002830B7
:1010900046700170C181C570056145618561491C5B
:1010A000C9B260688842EED800210DE001EB8100F2
:1010B00004EBC00000F5B47045700170C5700561A7
:1010C00045618561491CC9B260688842EED8142226
:1010D00041466846FFF7BAF894E80F0002F069F855
:1010E00018B184F8A9720120A7E784F8245084F885
:1010F000A962206802F05BF800209EE708B500684E
:101100000B49884212D10B48C16941F40001C16109
:10111000C06900F400000090002211461420FFF77F
:1011200045FBBDE808401420FFF732BB08BD0000B6
:10113000005C00400010024070B504460125A06824
:10114000022801D0FFF724F92946D4F8E80201F07B
:10115000AFFBD4F8E802BDE8704001F06ABBD0F8FC
:10116000E80201F08FBBD0F8E80201F095BB10B5A2
:10117000044694F8A80201280BD0012084F8A802A4
:1011800084F82410206802F050FC002084F8A802A3
:1011900010BD022010BDD0F8E82200F52C711046D9
:1011A00001F092BB10B5044694F8A802012810D0B3
:1011B000012084F8A802206802F00EFC01212046DC
:1011C000FFF744FB206801F0F0FF002084F8A8023C
:1011D00010BD022010BD000010B50446D4F8E8028E
:1011E00001F0B1FBA069002804D00348016841F078
:1011F0000601016010BD000010ED00E02DE9F8438C
:101200000446DFF8F8802078C0075FD00027D8F8C0
:101210001C00C0000BD4D8F81C0040F08050C8F867
:101220001C00D8F81C0000F0805000900127344DBD
:101230002868C00512D4286840F480702860FFF741
:1012400047FA064607E0FFF743FA801B642802D9F5
:101250000320BDE8F8832868C005F4D5D8F820003D
:1012600000F4407010B3A18801F4407181421DD098
:10127000D8F8200020F44070224901220A600022A0
:101280000A60C8F82000C00710D0FFF721FA054611
:1012900041F2883606E0FFF71BFA401BB04201D945
:1012A0000320D6E7D8F820008007F4D5D8F820002E
:1012B000616820F440700843C8F82000012F05D170
:1012C000D8F81C0020F08050C8F81C002078800757
:1012D00007D5D8F80400A16820F440400843C8F8B6
:1012E00004002078C00607D5D8F80400616920F40E
:1012F00080000843C8F804000020AAE7001002405C
:1013000000700040400442422DE9F04704460D467B
:10131000002C17D0DFF83081D8F8000000F007006B
:10132000A84211D2D8F8000020F007002843C8F8DE
:101330000000D8F8000000F00700A84204D0012007
:10134000BDE8F0870120FBE72068404E810712D5F9
:10135000400703D5706840F4E060706020780007B3
:1013600003D5706840F4605070607068A16820F028
:10137000F000084370602078C0072CD06068012816
:1013800006D0022809D0316889070BD40120D7E79D
:101390003168890306D40120D2E73168890101D47C
:1013A0000120CDE7716821F0030101437160FFF76F
:1013B0008FF9074641F2883906E0FFF789F9C01B2B
:1013C000484501D90320BBE77068616800F00C0054
:1013D000B0EB810FF1D1D8F8000000F00700A8426F
:1013E0000ED9D8F8000020F007002843C8F8000004
:1013F000D8F8000000F00700A84201D001209FE7C4
:101400002078400705D57068E16820F4E060084363
:1014100070602078000706D57068216920F460505C
:1014200040EAC100706000F03FF87168084AC1F3FB
:101430000311515CC8400749086007480068FFF77E
:1014400067F900207CE70000002002400010024005
:10145000543B00086000002058000020014800684C
:10146000704700006000002000B5FFF7F7FF044957
:101470004968044AC1F30221515CC84000BD000024
:1014800000100240643B000800B5FFF7E7FF044985
:101490004968044AC1F3C221515CC84000BD000044
:1014A00000100240643B000885B014A090E80E00D4
:1014B000C068CDE902230191049014A00068009057
:1014C000134B5968134801F00C02042A10D0082A63
:1014D0000ED101A8C1F38342805CC9030AD55968C3
:1014E000C1F340411DF801100A4A5043B0FBF1F02E
:1014F00005B0704708494843FAE7000002030405B5
:10150000060708090A0B0C0D0E0F1010010200004F
:101510000010024000127A0000093D002DE9F84F4A
:101520000446002C0ED02078D94DC0075ED06868E4
:10153000C0F3810001280BD06868C0F38100022845
:1015400003D00CE00120BDE8F88F6868C00306D521
:10155000286880034AD56068A8BB0120F3E760686B
:10156000B0F5803F11D0A8B1B0F5A02F1BD02868EE
:1015700020F480302860286820F48020286060688B
:1015800030B3FFF7A5F806461EE0286840F4803027
:101590002860F4E7286820F480302860286820F468
:1015A00080202860EBE7286840F4802028602868C5
:1015B00040F480302860E2E7FFF78AF8801B642857
:1015C00002D90320BFE711E028688003F4D50DE0BD
:1015D000FFF77EF8064606E0FFF77AF8801B6428DE
:1015E00001D90320AFE728688003F5D42078DFF81D
:1015F000A48280074FF0010A4FF0000945D56868C2
:1016000010F00C0F07D06868C0F38100022812D1D7
:101610006868C0030FD42868800704D520690128B2
:1016200001D001208FE72868616920F0F80040EAC6
:10163000C100286029E02069B8B1C8F800A0FFF710
:1016400047F8064606E0FFF743F8801B022801D959
:10165000032078E728688007F5D52868616920F0BD
:10166000F80040EAC10028600FE0C8F80090FFF7DA
:101670002FF8064606E0FFF72BF8801B022801D959
:10168000032060E728688007F5D42078000726D576
:101690008148A16999B1C0F800A0FFF719F8064682
:1016A00006E0FFF715F8801B022801D903204AE75E
:1016B000686A8007F5D5012000F0DEFB0FE0C0F876
:1016C0000090FFF705F8064606E0FFF701F8801BDB
:1016D000022801D9032036E7686A8007F5D420780C
:1016E000400773D50026E869C00008D4E86940F0D7
:1016F0008050E861E86900F0805000900126DFF832
:101700009CB1DBF80000C00514D4DBF8000040F405
:101710008070CBF80000FEF7DBFF074606E0FEF71F
:10172000D7FFC01B642801D903200CE7DBF80000B9
:10173000C005F4D5E068012812D0B0B105281DD04D
:10174000286A20F001002862286A20F0040028623C
:10175000E06841F2883B28B3FEF7BAFF07461DE078
:10176000286A40F001002862F2E7286A20F00100B0
:101770002862286A20F004002862E9E7286A40F01D
:1017800004002862286A40F001002862E0E7FEF7C2
:101790009FFFC01B584501D90320D4E6286A800763
:1017A000F5D50DE0FEF794FF074606E0FEF790FF43
:1017B000C01B584501D90320C5E6286A8007F5D427
:1017C000012E03D1E86920F08050E861E069A0B300
:1017D0006968C1F38101022946D0022805D0C8F802
:1017E0006090FEF775FF04463AE0C8F86090FEF797
:1017F0006FFF064606E0FEF76BFF801B022801D94B
:101800000320A0E628688001F5D4206AB0F5803F67
:1018100005D16868A16820F4003008436860D4E905
:1018200008010843696821F4741108436860C8F826
:1018300060A0FEF74DFF044607E026E0FEF748FFF4
:10184000001B022801D903207DE628688001F5D518
:101850001BE0FEF73DFF001B022801D9032072E6C2
:1018600028688001F5D410E001280CD06868226A4D
:1018700000F48031914204D1616A00F47010884212
:1018800003D001205FE601205DE600205BE600005A
:1018900000100240000042428004424200700040BA
:1018A00010B5401EB0F1807F01D3012010BD4FF074
:1018B000E02460610F21601702F0D3F80020A061DE
:1018C00007202061002010BD70B50446002C04D014
:1018D00094F83D00002510B106E0012070BD84F8A9
:1018E0003C50204600F022F8242084F83D00206877
:1018F000C16821F40051C160204600F01FFB206840
:10190000016921F4904101612068416921F02A01B7
:1019100041612068C16841F40051C1602564202004
:1019200084F83D0084F83E00002070BD30B585B0DD
:10193000002401940294039404940068144988429A
:1019400024D11448816941F480418161816901F4A5
:1019500080410091816941F004018161806900F05A
:10196000040000904FF400700190022002900320C8
:101970000490094D01A92846FEF78AFD2915019119
:101980000294039401A92846FEF782FD05B030BDFC
:10199000003801400010024000080140FEE7F0B5A9
:1019A00000230A2530263727002412E0B5EB107FEC
:1019B00004D906EB107C01F813C003E007EB107CA0
:1019C00001F813C0000101EB430C8CF801405B1CD3
:1019D000DBB29342EAD3F0BD2DE9F04385B0002499
:1019E00001940294039404943348816941F01001F6
:1019F0008161816901F010010091816941F0040168
:101A00008161816901F004010091816941F008015F
:101A10008161816901F008010091816941F0200133
:101A20008161806900F020000090244F0122032191
:101A30003846FEF746FEDFF8888000224021404607
:101A4000FEF73FFE78140190029402250395DFF81B
:101A5000749001A94846FEF71BFD012601960294E9
:101A6000039501A91848FEF713FD03200190029683
:101A70000394049501A93846FEF70AFD4FF440701F
:101A8000019012480290039601A94846FEF700FD16
:101A90004020019002960394049501A94046FEF768
:101AA000F7FC002211461720FEF780FE1720FEF7F4
:101AB0006FFE05B0BDE8F08300100240000C01404D
:101AC00000140140001001400008014000002110F6
:101AD00010B50C480A4901604FF4E1314160002122
:101AE0008160C16001610C2242618161C161FFF7C7
:101AF000EBFE002803D0BDE81040FEF749BC10BD46
:101B000000380140D401002010B500220B490C48D8
:101B100000F062FD08B1FEF73BFC0A49084800F0FE
:101B200037FF08B1FEF734FC054800F0E3FF00285A
:101B300003D0BDE81040FEF72BBC10BD0400002010
:101B40001802002068000020FEE7FEE72DE9F05FA4
:101B5000044640F68F794FF006084FF4806781E124
:101B6000B0F8441001F00F06F6B330F826A05FEA93
:101B70000A417DD530F8261001EA090141F08001C3
:101B800020F8261006EB860004EBC00505F5B475B9
:101B9000287B00286DD0E87802286BD0297820684F
:101BA00030F8212048F68F731A4048F2C0031A43D8
:101BB00020F821202978206830F8212052047CD593
:101BC000B0F85030022202EBC101194407EB410189
:101BD000415AC1F3090BBBF1000F04D02A895B46BF
:101BE000696901F00AFFE4E0FFE7C9062FD4018824
:101BF00048F60F72114041F40041018004F12805BC
:101C00002068B0F850202B78022101EBC301114469
:101C100007EB4101405AC0F30900E86169690844D3
:101C2000686100212046FEF712FE94F82400002887
:101C300095D0A869002892D194F82400216840F03A
:101C40008000A1F84C00002084F824000AE104F58B
:101C5000B47501880A0520D5B0F850102A7808EB31
:101C6000C202114407EB4101405AC0F3090302E0EC
:101C7000B3E070E084E0EB61EA8804F52C71206841
:101C800001F0BBFE2068018801EA090141F08001F2
:101C900001802046FFF77FFAE4E00904D6D50188E9
:101CA00001EA090141F0800101802068B0F850107C
:101CB0002A7808EBC202114400E068E007EB41011A
:101CC000405AC0F30900E86170B1696961B183B23B
:101CD000EA88206801F091FEE96968690844686152
:101CE00000212046FEF7BCFD20680188090531D49B
:101CF000B0F85010084400F20C40296959B13E294F
:101D000012D84A08C90700D0521C4FF6FF7101EAE9
:101D10008221018011E0018821F4F84101800188CD
:101D200041F40041018008E04A09C90600D1521E71
:101D30004FF4004141EA82210180206801884BF67E
:101D40008F72114081F4805181F4005148F2800279
:101D50001143018086E02068B0F850102A7808EB23
:101D6000C202114407EB4101415AC1F3090BBBF117
:101D7000000F1ED0EA885B46696901F03EFE18E05C
:101D8000524629462046FEF7C5FD834611E0B0F8CD
:101D9000502008EBC101114407EB4101415AC1F346
:101DA000090BBBF1000F04D06A895B46696901F039
:101DB00024FEE8695844E861686958446861A86984
:101DC00010B12869584504D929782046FEF748FD06
:101DD00003E02946206801F05EFA5FEA0A6041D517
:101DE00006EB860004EBC0012831206830F826207D
:101DF00048F60F731A4042F4004220F82620C878B3
:101E0000032805D020B1022828D15FEACA5025D482
:101E10002068B0F850300D78022202EBC5021A4457
:101E200007EB4202805AC0F309008A69824202D954
:101E3000121A8A6101E000228A618A694AB14A69FC
:101E400002444A61CA691044C861206801F023FA5B
:101E500008E009782046FEF7FAFC03E052462046E7
:101E6000FEF7D4FD2068B0F8441009043FF578AEC1
:101E70000020BDE8F09F704708B507494FF4FA52BB
:101E80000968B1FBF2F14143009100BF0098411E87
:101E90000091FAD208BD00006000002070470000E9
:101EA00010B50A460146044800F004FBBDE81040A6
:101EB0000120FEF78BBA000018020020FEF70EBCCE
:101EC00030B595B028210BA8FEF7F2F9142106A829
:101ED000FEF7EEF918216846FEF7EAF901200B90AB
:101EE00001040C9100240D940F900225129513917A
:101EF0004FF4E01014900BA8FFF710FB08B1FEF7A9
:101F000047FA0F200690079508944FF480600990D7
:101F10000A94022106A8FFF7F7F908B1FEF738FA8C
:101F20001020009005946846FFF768F9002801D05A
:101F3000FEF72EFA15B030BD7047000070B50446AC
:101F400020680169E26821F4405111430161A168F0
:101F500020690143606901432068C26841F20C6353
:101F60009A430A43C26020684169A26921F4407122
:101F7000114341611E492068884202D1FFF784FA6B
:101F800001E0FFF771FA00EBC00101EB001061689E
:101F900064228900B0FBF1F3B3FBF2F36FF0180693
:101FA0007343B0FBF1F5B0FBF1F605EB830532238B
:101FB00003EB0515B5FBF2F5B6FBF2F605F0F005FF
:101FC00005EB0615B0FBF1F6B0FBF1F0B0FBF2F05B
:101FD0006FF01801484306EB800003EB0010B0FBE4
:101FE000F2F0216800F00F002844886070BD000006
:101FF0000038014010B5D0F8B42252689047002054
:1020000010BD90F89C22012A05D0022A03D0032A91
:1020100001D000F019B84988012904D10021C0F885
:10202000A41200F035B8704710B513460A460021D7
:1020300000F0F6FB002010BD10B513460A46002143
:1020400000F089FC002010BD10B504468021204618
:1020500000F067FC2046BDE81040002100F061BCA4
:1020600010B50521C0F8941200231A46194600F055
:10207000D7FB002010BD10B50223C0F89432C26116
:10208000026213460A46002100F065FC002010BDE4
:1020900010B50421C0F8941200231A46194600F026
:1020A0005AFC002010BD000010B5002806D00A46DA
:1020B000054906A000F088F9034810BD0A46024908
:1020C00002A000F081F9F7E7DC0400204849442031
:1020D000436F6E66696700001220088000487047F1
:1020E0002400002010B5002806D00A46054906A0A5
:1020F00000F06AF9034810BD0A46024902A000F048
:1021000063F9F7E7DC04002048494420496E746510
:102110007266616365000000042008800048704713
:102120002000002010B50A46024903A000F04CF937
:10213000004810BDDC04002053544D6963726F6584
:102140006C656374726F6E696373000010B500286C
:1021500006D00A46054906A000F036F9034810BD2E
:102160000A46024902A000F02FF9F7E7DC0400203C
:1021700053544D3332204B657962726F61640000B5
:1021800010B51A200880FEF705F9014810BD0000BF
:10219000380000200A46D188012902D01146FFF7F5
:1021A00053BF90F89C12012906D0022904D00329BC
:1021B00009D01146FFF748BF00218160012200F1DC
:1021C0000801FFF758BF0122011DFFF754BF2DE999
:1021D000F84304460F46002000900026002578882A
:1021E000010A082970D2DFE801F0AB040C22ABAB86
:1021F0008B9AD4F8B012207C0A686946904706464C
:10220000A3E0207C4FF0020840B1D4F8B402C16AC8
:1022100068468847064686F8018096E0D4F8B402FE
:10222000816A68468847064686F801808DE0C0B21C
:1022300006285FD2DFE800F0031221303F4FD4F8C8
:10224000B002426822B1207C6946904706467CE095
:1022500039462046FFF7F8FE012576E0D4F8B002B3
:10226000826822B1207C6946904706466DE0394677
:102270002046FFF7E9FE012567E0D4F8B002C26806
:1022800022B1207C6946904706465EE039462046EA
:10229000FFF7DAFE012558E0D4F8B002026922B156
:1022A000207C6946904706464FE039462046FFF7B6
:1022B000CBFE012549E0D4F8B00242692AB1207C66
:1022C00069469047064640E03AE039462046FFF727
:1022D000BBFE012539E0D4F8B002826922B1207C2E
:1022E00069469047064630E039462046FFF7ACFE87
:1022F00001252AE039462046FFF7A6FE012524E005
:10230000207C28B139462046FFF79EFE01251CE0BF
:10231000D4F8B402416B68468847064615E0207C35
:1023200028B139462046FFF78FFE01250DE0D4F88D
:10233000B402016B6846884706460721717004E0C5
:1023400039462046FFF780FE0125002D12D1BDF849
:10235000000048B1FA883AB1824200D902460092A0
:1023600031462046FFF787FEF888002802D1204634
:10237000FFF78EFEBDE8F883002102E0491CC9B2D8
:10238000401C0278002AF9D1084670470A4690F8A6
:102390009C12012906D0022904D0032902D011463B
:1023A000FFF752BED188022902D01146FFF74CBE7A
:1023B0000121C160D0F8A41209B10321C160022239
:1023C00000F10C01FFF757BE70B504460D461646E6
:1023D000002C17D02046FFF7CFFF022101EB400071
:1023E000308030782870032102206970002306E0D5
:1023F000411CC9B22A54641C481CC0B26B542278D8
:10240000002AF5D170BD01460020002906D001291F
:1024100005D0022905D0032905D0022070470220EB
:1024200070470120704702207047D0F8B8020021A1
:1024300001730020704770B504468121204600F0EA
:10244000EAF80025E562D4F8B80218B100F0B3FC50
:10245000C4F8B852002070BD0A21018000487047BE
:10246000180100202221018000487047A0000020B0
:102470002221018000487047C400002022210180F1
:1024800000487047E800002010B504460D230322E1
:102490008121204600F0B8F90120E062102000F010
:1024A0008BFCC4F8B80218B100210173002010BDE4
:1024B000022010BD10B51346D0F8B82290F89C4207
:1024C000032C07D1147B2CB9012414730A468121F3
:1024D00000F041FA002010BD38B5D0F8B832002223
:1024E000009200240A7812F0600224D0202A04D03E
:1024F000FFF7AAFD0224204638BD4A78022A15D0EB
:10250000032A0AD00A2A0DD00B2A03D0FFF79CFD1C
:102510000224F0E788781860EDE701221946FFF7FA
:10252000AAFDE8E74888000A5860E4E70122191D7F
:10253000FFF7A1FDDFE74A784AB1062A14D00A2A3C
:102540002FD00B2A3BD0FFF77FFD0224D3E790F872
:102550009C22032A03D0FFF777FD0224CBE7022257
:102560006946FFF788FDC6E74A882223B3EB122F9E
:1025700005D1CA88B02A00D9B022164B09E0212320
:10258000B3EB122F09D1134B183BCA88092A00D983
:1025900009221946FFF76FFDADE7FFF755FD02244D
:1025A000A9E790F89C22032A03D0FFF74DFD0224EF
:1025B000A1E7012203F10801FFF75DFD9BE790F819
:1025C0009C22032A03D0FFF73FFD022493E788787B
:1025D000986090E72401002010B5002810D0D0F8B2
:1025E000B43213B10023C0F8B43209B1C0F8B0124C
:1025F000012180F89C12027000F0C4F8002010BD88
:10260000022010BD10B5D0F8C002FEF757F9BDE8A2
:102610001040FFF7F8BE10B5D0F8C002FEF72AF957
:10262000BDE81040FFF7EFBE70B504461346002921
:1026300009D0D4F8B40242691AB194F89C02032874
:1026400059D0022070BD04F11400D4F89412002572
:10265000022903D0042940D0F1B342E0D0E903219C
:102660008A420DD9511AC1608AB219462046FFF735
:10267000E3FC00231A461946204600F0D1F830E06A
:102680008068B0FBF1F201FB12029AB9884211D3C3
:10269000D4F8981288420DD2002211462046FFF746
:1026A000CBFCC4F8985200231A461946204600F085
:1026B000B7F816E0D4F8B402C16829B194F89C02C6
:1026C000032801D1204688478021204600F029F9BF
:1026D0002046FFF7C5FC04E0FFE78021204600F01C
:1026E00020F994F8A002012807D1204600F059F9FA
:1026F00084F8A05201E020469047002070BD70B5DC
:10270000044608461146002809D0D4F8B4128A6954
:102710001AB194F89C1203292FD0022070BD04F541
:10272000AA70D4F89432032B02D0052B1DD027E0D9
:10273000D0E903539D420AD9EB1AC3600069834272
:1027400000D303469AB22046FFF76EFC18E0D4F897
:10275000B402016929B194F89C02032801D12046F2
:1027600088472046FFF794FC0AE00020C4F8940252
:102770000021204600F0D5F802E0014620469047AF
:10278000002070BD10B504461548C0F8E842C4F8F2
:10279000C0021449016008214160022181600021CA
:1027A0008161C1610162FEF73CFC08B1FDF7F0FDFB
:1027B00004F530740022182311462068FEF728F82B
:1027C0005823002280212068FEF722F84FF48073FE
:1027D000002281212068FEF71BF8002010BD0000B8
:1027E000F0060020005C00400A0601F07F01D0F8EE
:1027F000C00201EB810100EBC10002D590F82A0074
:10280000704790F86A01704710B514461A46D0F820
:10281000C0022346FEF7BDFABDE81040FFF7F3BD46
:1028200010B5D0F8C002FEF7E2FABDE81040FFF79D
:10283000EABD70B504460022402311462046FFF74A
:10284000E3FF0125C4F858514026C4F864614023D1
:10285000002280212046FFF7D7FFA561666284F839
:102860009C520020C4F894026060C4F8A402D4F81A
:10287000B80228B1D4F8B40200214268204690473B
:10288000002070BD90F89C12042903D190F89D128D
:1028900080F89C120020704710B590F89C12032914
:1028A00004D1D0F8B412C96901B18847002010BD25
:1028B00001740020704710B5D0F8C002FEF757FC35
:1028C000BDE81040FFF79FBD70B5044604F52A70BF
:1028D000054600F049F80120C4F89402B4F8AE02AD
:1028E000C4F8980294F8A82212F01F000AD0012818
:1028F0000DD0022810D002F08001204600F011F81F
:10290000002070BD2946204600F0F9F8F8E7294676
:10291000204600F01BFAF3E72946204600F024F990
:10292000EEE710B5D0F8C002FEF77CFABDE8104023
:10293000FFF769BD10B5D0F8C002FEF733FCBDE863
:102940001040FFF760BD00F5277001784170042149
:1029500001700020704710B5D0F8C002FEF799FA58
:10296000BDE81040FFF74FBD0A7802704A78427008
:102970008A78CB7802EB032242800A794B7902EB0A
:10298000032282808A79C97902EB0121C1807047D4
:1029900002460020002902D0C2F8B412704702207B
:1029A00070470020704770B504468888002821D100
:1029B000C888F8B9488880281CD200F07F0594F8B0
:1029C0009C0203280DD084F89E5229462046FFF72A
:1029D00072FF2046FFF75CFB45B1022084F89C02A1
:1029E00070BD2046BDE87040FFF72EBB012084F883
:1029F0009C0270BD2046BDE87040FFF725BB10B5B6
:102A00000224D0F8B422002A03D01268904700B9FB
:102A10000024204610BD000070B504460E46304D1F
:102A2000B1782970012905D931462046BDE87040AA
:102A3000FFF70ABB94F89C0202280BD0032823D08E
:102A400031462046FFF700FB29782046BDE870405C
:102A5000FFF7D0BA99B16160032084F89C02204648
:102A6000FFF7CDFF022804D02046BDE87040FFF7F5
:102A70000FBB31462046BDE87040FFF7E5BA20465F
:102A8000BDE87040FFF704BB91B16068884221D077
:102A9000C1B22046FFF7AEFA297861602046FFF701
:102AA000AEFF022810D02046BDE87040FFF7F0BA14
:102AB000022084F89C0261602046FFF79BFA2046C2
:102AC000BDE87040FFF7E4BA31462046BDE87040EB
:102AD000FFF7BABA2046BDE87040FFF7D9BA000048
:102AE000640000204988012903D1C0F8A412FFF72F
:102AF000CFBA704710B5FFF71DFF002010BD10B50D
:102B000000240A7812F060020CD0202A05D0402A56
:102B100003D0FFF799FA204610BDD0F8B42292688E
:102B20009047F8E74A780A2A1BD2DFE802F011172B
:102B30001A141A08051A0E0BFFF749FBEBE7FFF70B
:102B400032FFE8E7FFF768FFE5E7FFF723FBE2E77F
:102B5000FFF71CFCDFE7FFF7C5FFDCE7FFF751FAE3
:102B6000D9E7FFF771FAD6E72DE9F04104460A46A6
:102B700000261179137813F0600011D0202808D0B6
:102B8000402806D011462046FFF75EFA3046BDE8E1
:102B9000F081D4F8B4021146836820469847F5E7DF
:102BA000C3F3411001280BD05078002860D00128D1
:102BB00037D003280CD011462046FFF745FAE5E749
:102BC000D4F8B402114683682046BDE8F0411847A6
:102BD00094F89C02022806D0032814D011462046FF
:102BE000FFF732FAD2E749B1802907D02046FFF734
:102BF00098FE80212046FFF794FEC7E71146204645
:102C0000FFF722FAC2E7508838B931B1802904D0E1
:102C1000D08810B92046FFF784FE2046FFF738FA27
:102C2000B4E794F89C02022806D0032814D0114679
:102C30002046FFF709FAA9E749B1802907D02046C5
:102C4000FFF76FFE80212046FFF76BFE9EE71146DF
:102C50002046FFF7F9F999E75088002896D14806F1
:102C600002D02046FFF7CEFC2046FFF711FA8DE791
:102C700094F89C020027022806D0032824D011468D
:102C80002046FFF7E1F981E731B1802904D01146F0
:102C90002046FFF7D9F979E7080607D501F07F004C
:102CA00000EB800004EB8001143107E001F07F00AD
:102CB00000EB800004EB800101F5AA710F60022295
:102CC0002046FFF7D8F961E708060CD501F00F00A0
:102CD00000EB800004EB8000806968B91146204653
:102CE000FFF7B2F952E701F00F0000EB800004EBB0
:102CF0008000D0F8580148B108060CD501F07F00DB
:102D000000EB800004EB800514350CE011462046F2
:102D1000FFF79AF93AE701F07F0000EB800004EB3F
:102D2000800505F5AA7541B1802906D02046FFF738
:102D30005BFD20B10120286002E02F6000E02F60E1
:102D4000022229462046FFF796F91FE770B505468F
:102D50000C46207810F0600209D0202A07D0402AC3
:102D600005D021462846FFF76FF9002070BD95F881
:102D70009C22012A08D0022A06D0032A04D0214628
:102D80002846FFF761F9F0E7207901280ED8D5F839
:102D9000B4022146826828469047E1880029E4D1A0
:102DA0000028E2D12846FFF773F9DEE721462846DE
:102DB000FFF74AF9D9E7704700487047DC06002062
:102DC0002DE9F04F00270D7830F8252048F68F13B5
:102DD0001A40CB78002B79D0012B7DD0022B02D06A
:102DE000032B76D0012748F28004224320F82520C7
:102DF0000A7830F8223048F68F7633401343234365
:102E000020F822300B7B48F2C00548F6BF724FF025
:102E1000040A4CF280084BF68F7CEBB30B7830F849
:102E2000239009EA060948F2801B49EA0B0920F8B9
:102E30002390B0F85030034491F8009003EB09134D
:102E4000B1F8089029F00109A3F80094B0F85030C7
:102E5000034491F800900AEBC90903EB4903B1F868
:102E60000A9029F00109A3F800944B78002B69D04F
:102E70000B7830F823905FEA494907D530F8239062
:102E800009EA060949EA080920F823900B7830F886
:102E900023805FEA486800E021E007D530F823800E
:102EA00008EA060848EA050820F82380CB78012BB9
:102EB0006FD00B7830F82350154085F02002224364
:102EC00020F82320C8E001E006E002E042F40072AE
:102ED00089E742F4C06286E742F4806283E74B7878
:102EE0007BB3B0F85030034491F800C003EB0C13EF
:102EF000B1F806C02CF0010CA3F800C40B7830F830
:102F000023C05FEA4C6C07D530F823C00CEA060CEE
:102F10004CEA050C20F823C0CB78012B09D00978A6
:102F200030F82130134083F02002224320F8212082
:102F30009AE0097830F821301340234320F82130FB
:102F400092E000E051E0B0F8502002440B780AEB28
:102F5000C30302EB4302CB8823F00103A2F8003441
:102F6000B0F8502002440B78062505EBC30302EBB2
:102F7000430202F580620B6963B13E2B13D85D08F2
:102F8000DB0700D06D1C4FF6FF7303EA8523138027
:102F900012E05AE0138823F4F8431380138843F4B3
:102FA0000043138008E05D09DB0600D16D1E4FF47D
:102FB000004343EA852313800A7830F822305B040B
:102FC00006D530F82230334043EA080320F8223097
:102FD000097830F8212002EA0C0282F4805282F44F
:102FE0000052224320F821203EE00B7830F8239055
:102FF0005FEA494907D530F8239009EA060949EA0A
:10300000080920F823900B7830F823805FEA48689D
:1030100007D530F8238008EA060848EA050820F8B2
:1030200023800B7830F8235005EA0C0585F4805591
:1030300085F40055254320F82350097830F82130D5
:103040001340234320F821300EE00B7830F8235052
:103050001540254320F82350097830F8212002EA52
:103060000C02224320F821203846BDE8F08F0020D2
:1030700070472DE9F04391F80C904C780A7848F6A7
:10308000BF764BF68F7748F2800548F2C00C4CF2C1
:10309000800848F68F73B9F1000F31D07CB330F857
:1030A0002240640406D530F822401C4044EA08045B
:1030B00020F822400A7830F82240640606D530F81D
:1030C00022401C4044EA0C0420F822400A7830F8E0
:1030D00022401C4044EA080420F822400A7830F8D4
:1030E000223033402B4320F82230097830F8212059
:1030F0003A402A4320F821200020BDE8F08326E052
:1031000094B130F82240640606D530F822401C40C5
:1031100044EA0C0420F82240097830F8212032409B
:103120002A4320F82120E7E730F82240640406D53E
:1031300030F822401C4044EA080420F82240097874
:1031400030F821203A402A4320F82120D4E730F8F3
:103150002240640406D530F822401C4044EA0804AA
:1031600020F822400A7830F82240640606D530F86C
:1031700022401C4044EA0C0420F822400A7830F82F
:1031800022401C4044EA0C0420F822400A7830F81F
:1031900022303B402B4320F82230097830F82120A0
:1031A00032402A4320F82120A6E700207047002063
:1031B0007047012120F8401F002101808180018299
:1031C0000020704730F8401F21F43F41018000206B
:1031D00070470020704730B50A7B002A3BD14A78FF
:1031E00048F68F7548F28004DAB10A7830F8223058
:1031F0005B0607D530F822302B4048F2C0052B4340
:1032000020F82230CA78012A25D0097830F8212008
:1032100048F6BF731A4082F02002224320F8212092
:1032200019E00A7830F822305B0407D530F82230F4
:103230002B404CF280052B4320F82230097830F8DF
:1032400021204BF68F731A4082F4805282F4005290
:10325000224320F82120002030BD10B54A7809789B
:1032600048F28003002A0AD030F8212048F6BF74C3
:10327000224082F010021A4320F8212009E030F8A1
:1032800021204BF68F74224082F480521A4320F89A
:103290002120002010BD2DE9F04F06460C460627E0
:1032A0006378217B4FF0000B4FF0020A48F68F72D3
:1032B0004FF6FF784FF40049012B09D0002974D054
:1032C000E078022872D0012871D00120BDE8F08F8B
:1032D000A5692069854200D90546C9B1E17848F25F
:1032E0008013022925D0207836F820101140194388
:1032F00026F82010206A401B2062207836F8201023
:10330000490676D56178002974D0012973D078E117
:10331000ABB2E2883046616900F08EFBB6F850002F
:10332000304421780AEBC10100EB4100A0F80054C1
:1033300025E2216A814274D9207836F820101140A4
:10334000194326F82010206A401B2062207836F8A6
:10335000201049066FD5617811B1012928D030E0DD
:10336000B6F85010314407EBC00001EB400000F507
:1033700080604DB13E2D10D86908EA0700D0491C85
:1033800008EA812101801CE0018821F4F8410180D4
:10339000018841F40041018013E06909EA0600D187
:1033A000491E49EA812101800BE0F8E127E29CE215
:1033B000B6F85020911907EBC00001EB4000A0F8CF
:1033C00000546289ABB23046616900F035FB606938
:1033D000284460612169206A884202D9401B20622A
:1033E00002E00546C4F820B0607828B101282BD04F
:1033F00034E04CE1D7E0FBE0B6F8500030442178EF
:103400000AEBC10100EB410000F5806055B13E2D93
:1034100012D86908EA0700D0491C08EA8121018016
:103420001CE0A4E0018821F4F8410180018841F406
:103430000041018012E018E06909EA0600D1491E46
:1034400049EA8121018009E0B6F850003044217832
:103450000AEBC10100EB4100A0F800542289ABB295
:103460003046616900F0E8FA89E1617811B101291B
:1034700025D02DE0B6F8501031440AEBC00001EB26
:10348000400000F580604DB13E2D10D86908EA0774
:1034900000D0491C08EA8121018019E0018821F44B
:1034A000F8410180018841F40041018010E0690980
:1034B000EA0600D1491E49EA8121018008E0B6F8F8
:1034C000501031440AEBC00001EB4000A0F800545A
:1034D0002289ABB23046616900F0AEFA60692844D7
:1034E00060612169206A884202D9401B206202E0A3
:1034F0000546C4F820B0607810B1012826D02FE02E
:10350000B6F850003044217807EBC10100EB4100D0
:1035100000F580604DB13E2D10D86908EA0700D053
:10352000491C08EA812101801AE0018821F4F84150
:103530000180018841F40041018011E06909EA0637
:1035400000D1491E49EA8121018009E0B6F85010F6
:103550008819217807EBC10100EB4100A0F8005465
:103560006289ABB23046616900F066FA07E1207803
:1035700036F8202048F68F631A4048F280031A4339
:1035800026F82020B6F85000304422780AEBC20218
:1035900000EB42008BB2A0F800342289304661690A
:1035A00000F04AFAEBE0B6F85010314407EBC000E7
:1035B00001EB400000F580604DB13E2D10D8690848
:1035C000EA0700D0491C08EA8121018019E001883E
:1035D00021F4F8410180018841F40041018010E0AC
:1035E0006909EA0600D1491E49EA8121018008E003
:1035F000B6F85020911907EBC00001EB4000A0F88D
:1036000000546289ABB23046616900F015FA606916
:10361000284460612169206A884202D9401B2062E7
:1036200002E00546C4F820B085B3607810B10128E7
:103630001CD025E0B6F85000304421780AEBC101D7
:1036400000EB410101F580613E2D07D86808EA07CB
:1036500000D0401C08EA8020088011E06809EA06D2
:1036600000D1401E49EA8020088009E0B6F85000E9
:10367000304421780AEBC10100EB4100A0F800546E
:103680002289ABB23046616900F0D6F977E0617803
:1036900011B1012925D02DE0B6F8501031440AEBC4
:1036A000C00001EB400000F580604DB13E2D10D808
:1036B0006908EA0700D0491C08EA8121018019E065
:1036C000018821F4F8410180018841F40041018022
:1036D00010E06909EA0600D1491E49EA812101800A
:1036E00008E0B6F8501031440AEBC00001EB40008E
:1036F000A0F800542289ABB23046616900F09CF911
:103700006069284460612169206A884202D9401BAF
:10371000206202E00546C4F820B085B3607810B19D
:1037200001281CD025E0B6F850003044217807EB82
:10373000C10100EB410101F580613E2D07D8680809
:10374000EA0700D0401C08EA8020088011E06809E0
:10375000EA0600D1401E49EA8020088009E0B6F858
:1037600050108819217807EBC10100EB4100A0F847
:1037700000546289ABB23046616900F05DF920788F
:1037800036F8201048F6BF72114081F0100181F028
:10379000200148F28002114326F820101AE1A169A5
:1037A0002069814202D9091AA16102E00846C4F8E1
:1037B00018B0B6F850103144227807EBC20201EB82
:1037C000420101F5806148B13E2810D84208C00787
:1037D00000D0521C08EA82200880ECE0088820F41F
:1037E000F8400880088840F400400880E3E042097F
:1037F000C00600D1521E49EA82200880DBE02BBBC4
:10380000B6F85000304421780AEBC10100EB4100CA
:1038100000F58060216949B13E2910D84B08C907DD
:1038200000D05B1C08EA832101800FE0018821F4AD
:10383000F8410180018841F40041018006E04B0914
:10384000C90600D15B1E49EA83210180607810B16E
:10385000012827D031E0B6F850003044217807EB3A
:10386000C10100EB410000F58060216949B13E29AA
:1038700010D84B08C90700D05B1C08EA83210180DF
:103880001BE0018821F4F8410180018841F40041E6
:10389000018012E04B09C90600D15B1E49EA832171
:1038A00001800AE0B6F850108819217807EBC101B1
:1038B00000EB4100218AA0F80014E069A8B3217848
:1038C00036F82100430401D5430605D400F48043B3
:1038D00000F0400003436ED136F82100104048F25A
:1038E000C002104326F8210065E0A16920698142E9
:1038F00002D9091AA16102E00846C4F818B02BBB2E
:10390000B6F85010314422780AEBC20201EB4201B2
:1039100001F5806150B13E2811D84208C30700D09C
:10392000521C08EA82220A8010E044E00A8822F44D
:10393000F8420A800A8842F400420A8006E04209FE
:10394000C30600D1521E49EA82220A80617811B171
:10395000012926D02FE0B6F850103144227807EB29
:10396000C20201EB420101F5806148B13E2810D846
:103970004208C00700D0521C08EA822008801AE0E2
:10398000088820F4F8400880088840F40040088047
:1039900011E04209C00600D1521E49EA8220088087
:1039A00009E0B6F850209119227807EBC20201EB2A
:1039B0004201A1F80004207836F820104BF68F72EF
:1039C000114081F4805181F4005148F2800211438A
:1039D00026F82010002079E40021403081804FF447
:1039E0003F410180002070470148FDF770BA000098
:1039F000F0060020B0F84400704710B55C0800EBFA
:103A0000420000F58060002C08D030F8042B0A70CA
:103A1000120A4A70891C641E002CF6D1DA0701D004
:103A20000088087010BD00207047002902D1802155
:103A3000A0F84C100020704710B55B1C5B0800EB31
:103A4000420000F58060002B09D00A784C78891C70
:103A500042EA042220F8042B5B1E002BF5D110BD96
:103A6000FEE70907090E002804DB00F1E02080F8DA
:103A70000014704700F00F0000F1E02080F8141DE2
:103A800070470000FCF732FEFEF71AFAFDF7A4FFBC
:103A9000FEF73AF8FEF71CF82D4D2A4FDFF8A890F4
:103AA000DFF8A8A000264FF400586C1C012138460E
:103AB000FCF7F8FD012815D0012211465046FCF70D
:103AC00000FE41464846FCF7EDFD012812D00122D8
:103AD00002215046FCF7F5FD2A78032A14D0042A67
:103AE0001CD024E0002201215046FCF7EAFD2020F2
:103AF0006070E6E7002202215046FCF7E2FD6078A4
:103B000040F008006070E7E701215046FCF7D1FD66
:103B1000607840F0010060702E7008E0012150468E
:103B2000FCF7C7FD607840F0020060702E70084816
:103B30000221401CFEF7B4F90F20FCF747FC667029
:103B4000B4E700000008014000100140000C0140F3
:103B5000000000200000000000000000010203043B
:103B60000607080900000000010203048C3B00085E
:103B700000000020D40100006C010008B43C0008E3
:103B8000D40100206C0E0000C801000811220213AD
:103B9000D920140819211B0825041A4D041A810480
:103BA0001AA9141AE5042F04030904120126111698
:103BB00040E803204E260201020301031A1A0319EA
:103BC0001F1182105324F41389241B0837041AD9B7
:103BD00004819A2B0C811A71141A65041A7D041A37
:103BE0005904140902221301011DE0320904591A73
:103BF000030B1509211101140122B02E07058103C1
:103C00000D6DE924EA02240A2107242948691231AA
:103C10004B0A06F429CC101005010906A101850103
:103C2000050719E029E715281A250175019508816E
:103C3000029501750881039505750105081901298B
:103C4000059112180803910395067508261A653028
:103C500011142965811EC0050C0901412A023B4847
:103C60001109E909EA09E209CD09B109B509B6095D
:103C7000B74B1AC0641A02231A0329111B05094EF7
:103C80002A032D3D95037501681C058101225817F3
:103C900030093109381581257F750895038106C0E3
:103CA000093C05FF090191000B0002B12275069540
:043CB00001B101C09D
:0400000508000131BD
:00000001FF
