:020000040800F2
:1000000068120020A10100088F3D0008793800081F
:100010008D3D00081106000809610008000000007D
:10002000000000000000000000000000E1400008A7
:10003000D5070008000000000B3F0008C941000878
:10004000BB010008BB010008BB010008BB010008A0
:10005000BB010008BB010008BB010008BB01000890
:10006000BB010008BB010008BB010008BB01000880
:10007000BB010008BB010008BB010008BB01000870
:10008000BB010008BB010008BB010008BB01000860
:10009000BB010008BB010008BB010008BB01000850
:1000A000BB010008BB010008BB010008BB01000840
:1000B000BB010008BB01000871420008BB01000839
:1000C000BB010008BB010008BB010008BB01000820
:1000D000BB01000815490008BB010008BB0100086E
:1000E000BB010008BB010008BB010008BB01000800
:1000F000BB010008BB010008BB010008BB010008F0
:10010000BB010008BB010008BB010008BB010008DF
:10011000BB010008BB0100087D42000889420008BD
:100120000D070008BB010008BB010008BB01000867
:10013000BB010008BB010008BB010008BB010008AF
:10014000BB010008BB010008BB010008913D00088D
:10015000BB010008BB01000819070008BB0100082B
:10016000BB010008BB010008BB010008BB0100087F
:10017000BB010008BB010008BB0100080000000033
:10018000BB010008BB010008DFF810D000F092F8B6
:100190000048004775630008AFF300806812002034
:1001A0000648804706480047FEE7FEE7FEE7FEE711
:1001B000FEE7FEE7FEE7FEE7FEE7FEE76142000836
:1001C000890100082DE9F05F0546002092469B4614
:1001D00088460646814640241BE02846414647465D
:1001E000224600F057F853465A46C01A914110D3A0
:1001F00011461846224600F03EF82D1A67EB01081A
:100200004F4622460120002100F035F817EB000987
:100210004E41201EA4F10104DFDC484631462A4647
:100220004346BDE8F09FD2B201E000F8012B491E21
:10023000FBD270470022F6E710B513460A46044683
:100240001946FFF7F0FF204610BD30B50B460146BA
:1002500000202022012409E021FA02F59D4205D365
:1002600003FA02F5491B04FA02F52844151EA2F10F
:100270000102F1DC30BD202A04DB203A00FA02F151
:10028000002070479140C2F1200320FA03F3194384
:1002900090407047202A04DB203A21FA02F0002126
:1002A000704721FA02F3D040C2F120029140084386
:1002B00019467047064C074D06E0E06840F0010320
:1002C00094E8070098471034AC42F6D3FFF760FF7C
:1002D000CC6C0008EC6C000870B58C1810F8015B51
:1002E00015F0070301D110F8013B2A1106D110F8CF
:1002F000012B03E010F8016B01F8016B5B1EF9D1D3
:100300002B0705D40023521E0DD401F8013BFAE758
:1003100010F8013BCB1A921C03E013F8015B01F8C3
:10032000015B521EF9D5A142D8D3002070BD000058
:100330009FED221A9FED222A20EE010AB5EE001A47
:1003400030EE010ABDEEC01A11EE100AB5EE400AF9
:10035000F1EE10FAB8BF013801EE100AB8EEC11A7A
:1003600030EE410A20EE020ABDEEC01A9FED152ABA
:1003700011EE100A002130EE021AB1EB502F46F2B6
:10038000C8411CBF0020B0EE410AC0F6000101EEDA
:10039000100A01EB8001B8EE411A30EE410A91EDEE
:1003A000001A91ED012AB7EE003A33EE403A23EEFF
:1003B000011A20EE020A31EE000A704783F9223E4C
:1003C00000000044000000C49FED201A9FED202A89
:1003D00020EE010ABDEEC01A11EE100AB5EE400A79
:1003E000F1EE10FAB8BF013801EE100AB8EEC11AEA
:1003F00030EE410A20EE020ABDEEC01A9FED152A2A
:1004000011EE100A002130EE021AB1EB502F46F225
:10041000C8411CBF0020B0EE410AC0F6000101EE49
:10042000100A01EB8001B8EE411A30EE410A91ED5D
:10043000001A91ED012AB7EE003A33EE403A23EE6E
:10044000011A20EE020A31EE000A704783F9223EBB
:1004500000000044000000C410B50146806B026C2F
:1004600012F0500F05D0026CD20626D500F0ACFA7F
:1004700010BD016C41F40071016401688A6812F0DA
:10048000405F17D1027EAAB9CA6A12F4700F02D077
:100490008A6852050ED44A6822F020024A60016C34
:1004A00021F480710164016CC90403D4016C41F032
:1004B0000101016400F086FA10BD806BC26CBDE8DA
:1004C00010400846104710B5806B40210164416C14
:1004D00041F00401416400F077FA10BD10B5806B63
:1004E00000F071FA10BD0000464910B54A6822F4C8
:1004F00040324A604A6843681A434A6001684A6861
:1005000022F480724A6001684A68036942EA032261
:100510004A6001684A6822F040724A6001684A688D
:1005200083681A434A6001688A6822F400628A601C
:1005300001688A68C3681A438A60816A6FF07062D2
:10054000D14201688A6822F070628A6001688A6814
:100550000CD0836A1A438A6001688A6822F040528C
:100560008A6001688A68C36A1A4301E022F0405237
:100570008A6001688A6822F002028A6001688A68DB
:10058000037E42EA43028A6090F820100029016845
:100590004A680FD042F400624A6001684A6822F457
:1005A00060424A6001684A68174C436A04EB43336F
:1005B0001A4301E022F400624A600168CA6A22F428
:1005C0007002CA620168CA6A838B104C04EB035341
:1005D0001A43CA6201688A6822F400728A6001685C
:1005E0008A6890F8303042EA43228A6001688A685B
:1005F00022F480628A6001688A68406942EA802049
:10060000886010BD0023014000E0FFFF0000F0FF04
:10061000FEE701EE901A30EE201A10B5F8EE611ADE
:10062000029CB4EEE11AF1EE10FA0FDDC0EE011AF1
:1006300000EE101AB8EE400A21EE800AC0EE811AD0
:1006400000EE901AF8EE600A61EEA00A01EE101AB0
:10065000F5EE001AF6EE002AB8EE411A072831EE40
:10066000401A31EE601A61EE211AB0EE611A00EE06
:10067000221AB0EE412A00EEA22A46D2DFE800F0AC
:10068000450C360421192900BCEEE10A10EE100ACF
:10069000BCEEC10A108006E0BCEEC10A10EE100AE2
:1006A000BCEEE10A108010EE100ABCEEC20A1880FF
:1006B00028E0BCEEC20A10EE100ABCEEE10A10807F
:1006C0001BE0BCEEC20A10EE100ABCEEC10A10809C
:1006D00006E0BCEEC10A10EE100ABCEEC20A1080A1
:1006E00010EE100ABCEEE10A18800BE0BCEEE10A45
:1006F00010EE100ABCEEC20A108010EE100ABCEE1A
:10070000C10A188010EE100A208010BD014800F0C8
:10071000E9BA0000AC010020014800F0E3BA000093
:10072000D80300200722014900F0D6B9540E00205A
:1007300001681823CAB2103AB2FBF3F2054B6FF30B
:100740000901032A9B5CC36500D9091D8165084620
:1007500070470000A864000810B5014600208B69AE
:100760008A6A4FF0C07453B1B3F5005F15D072B10F
:10077000012A0CD0022A0AD0032A09D104E01AB1B6
:10078000012A06D0022A03D1C96AC90100D5012075
:1007900010BDC96AA142FAD010BD002AF7D0012AC3
:1007A000F2D0022AF3D0032AF3D010BD30B504688A
:1007B000256825F480252560046863608368402BE4
:1007C000036803D099600068C26030BD9A60006819
:1007D000C16030BD7047000038B5012211021A48CF
:1007E00000F0FCFC4FF4FA7000F0EEFB17A005F0EF
:1007F000DBFC41F25144204605F038FE214617A0AB
:1008000005F0D2FC4FF4104005F030FE684605F0CC
:100810000FFEBDF8001014A005F0C6FC41F60C0454
:10082000204605F023FE21460CA005F0BDFC4FF448
:10083000184005F01BFE684605F0FAFDBDF80010F3
:1008400009A005F0B1FC38BD00040240454E5F47E9
:10085000415445205345540A00000000575F43317E
:10086000363A25640A000000525F4331363A256467
:100870000A00000072B6FEE778B50024009490F8F4
:100880003C20012A19D0012280F83C200A68072365
:100890000568092A13D9EE680A3A02EB420293402E
:1008A0009E43EE600B788A680A3B03EB43039A4051
:1008B0000368DD682A43DA6010E0022078BD2E6903
:1008C00002EB420293409E432E610B788A6803EB51
:1008D00043039A4003681D692A431A614A681F232B
:1008E000072A13D205686E6B521E02EB82029340F8
:1008F0009E436E630B790A885B1E92B203EB8303FF
:100900009A4003685D6B2A435A6327E005680D2A05
:1009100012D22E6BD21F02EB820293409E432E63B3
:100920000B790A88DB1F92B203EB83039A400368BA
:100930001D6B2A431A6311E0EE6A0D3A02EB820244
:1009400093409E43EE620B790A880D3B92B203EB13
:1009500083039A400368DD6A2A43DA62164B05680E
:10096000144A9D4206D10D68122D03D1556845F4F5
:100970008005556005689D4218D10B68102B01D089
:10098000112B13D1536843F40003536009681029F5
:100990000CD10A490A4A0968B1FBF2F101EB810165
:1009A000490000E0491E00910029FBD180F83C403D
:1009B000002078BD00230140002001408800002075
:1009C00040420F0070477047704770B504004FF009
:1009D000000503D0206C002610B107E0012070BD97
:1009E000204600F01DF8666484F83C60206CC00668
:1009F00010D4206C20F4885040F00200206420467F
:100A0000FFF772FD6664206C20F0020040F00100E8
:100A1000206400E0012584F83C60284670BD000099
:100A200070B586B0064614216846FFF703FC2449DA
:100A30003068884242D123480025016841F4807122
:100A4000016000681F4900F480701439059008683F
:100A500040F004000860086800F004000590086891
:100A600040F0010008600868032400F001000590D0
:100A70000F208DE831006946134800F0B7FA0E20C8
:100A80008DE831006946114800F0B0FA114C104869
:100A9000C4E900050015A560C4E903504000606189
:100AA0008000A0614011C4E907052046656200F09E
:100AB000E9F908B1FFF7DEFEB463A66306B070BDC6
:100AC000002001404438024000080240000002407B
:100AD00010640240AC010020F8B5044600200E4628
:100AE000009094F83C10012907D0012184F83C10B3
:100AF00021688B68DB0702D011E00220F8BD8B680B
:100B000043F001038B604049404B0968B1FBF3F1AE
:100B100001EB410100E0491E00910029FBD1216851
:100B20008B68DB0503D58B6823F480738B602168A9
:100B30008B68DB075DD0236C40F20165AB4343F467
:100B4000807323644968490505D5216C21F400515F
:100B500041F480512164216CC90404D5616C21F0F9
:100B60000601616400E0606484F83C00A16B2948E0
:100B7000274DC863A16B28480864A16B2748C86447
:100B800021686FF0220008602068416841F08061B0
:100B900041602068816841F480718160216813465A
:100BA00032464C31A06B00F0D7F968681C49C0068A
:100BB000206806D0884224D1816811F0405F13D0AC
:100BC0001FE08842F8D0174A904203D1D1F804239D
:100BD000D206F1D0144A904213D1D1F8041301F097
:100BE0001F011029E8D30CE0816841F08041816049
:100BF00007E0206C40F010002064606C40F00100C1
:100C000060640020F8BD00008800002040420F0012
:100C10000023014059040008DD040008C70400084F
:100C20000020014000210140002201402DE9F04157
:100C30000446876D00F0D8FA064694F83500002582
:100C4000022806D08020606584F834500120BDE879
:100C5000F0812068016821F0160101602068416977
:100C600021F080014161206C08B9A06C20B120689E
:100C7000016821F0080101602068016821F001018C
:100C800001600CE000F0B0FA801B052807D9202095
:100C90006065032084F8350084F83450D7E7206875
:100CA0000068C007EED194F85C103F208840B8601F
:100CB000012084F8350084F834500020C7E790F80C
:100CC0003510022903D0802141650120704705219C
:100CD00080F835100068016821F0010101600020F2
:100CE000704700002DE9F84304464FF00009CDF8A5
:100CF000009063484FF41651A56D0068B0FBF1F702
:100D00002E6894F85C10082000FA01F131420FD0EF
:100D100021680A6852070BD50A6822F004020A60AB
:100D200094F85C108840A860606D40F00100606538
:100D300094F85C104FF0010808FA01F0304208D036
:100D400021684969090604D5A860606D40F0020079
:100D5000606594F85C1004208840304208D0216817
:100D60000968890704D5A860606D40F004006065DB
:100D700094F85C1010208840304218D0216809682F
:100D8000090714D5A86020680168490304D50068E4
:100D9000000308D5A16C07E00168C90503D4016808
:100DA00021F008010160216C09B12046884794F8C0
:100DB0005C1020208840304231D021680968C90683
:100DC0002DD5A86094F8350005282068016806D064
:100DD000490347D5006800031DD4616C1CE021F075
:100DE000160101602068416921F080014161206C99
:100DF00008B9A06C20B12068016821F008010160E9
:100E000094F85C103F208840A86084F8358084F80E
:100E10003490216D1FE0E16B09B120468847606D79
:100E200000282BD0606DC00714D0052084F8350051
:100E30002068016821F0010101600098401C0090C9
:100E4000B84203D820680068C007F6D184F835801E
:100E500084F83490E16C002910D001B02046BDE840
:100E6000F04308470168C905D5D4016821F0100195
:100E7000016084F8358084F83490CCE7BDE8F883CD
:100E8000880000202DE9F041044600F0ADF9064647
:100E90005CB1022084F83500002584F834502068C5
:100EA000016821F0010101600DE00120BDE8F08141
:100EB00000F09AF9801B052805D9202060650320E1
:100EC00084F83500F2E720680068C007F0D1226896
:100ED000116820480140D4E901031843D4E90336DE
:100EE0003343184363691843A3691843E3691843FC
:100EF000236A18430843616A042903D1D4E90B1318
:100F000019430843106020684069666A20F00701B1
:100F100030460E43012704280CD1A06A0643E06A3C
:100F200040B12046FFF718FC20B14020606584F8EE
:100F30003570BAE7206846612046FFF7F9FB94F860
:100F40005C203F2191408160656584F83570002008
:100F5000ACE700003F8010F02DE9F0410446866DBB
:100F600090F83400002501280DD0012084F83400C9
:100F700094F835700020012F07D084F83400022542
:100F80002846BDE8F0810220FBE7022784F835708F
:100F900060652046FFF70AFC94F85C103F2088400B
:100FA000B0602068016841F016010160206C20B13A
:100FB0002068016841F0080101602068016841F083
:100FC00001010160DCE7000070B5044600F00CF997
:100FD0000546601C02D004480078044400F004F97F
:100FE000401BA042FAD370BD7C0000202DE9F84FD1
:100FF000DFF8BCA10022012503264FF00F090AF1FA
:10100000040BAAF1040E00BF0B6805FA02F423409A
:10101000A34270D10F7907F00307012F01D0022FEF
:1010200016D187684FEA420806FA08FC27EA0C073F
:10103000D1F80CC00CFA08FC4CEA070CC0F808C048
:101040004768A7430C79C4F3001494403C434460C0
:101050000C79E443A4070AD0C4684FEA420C06FAAC
:101060000CF7BC438F6807FA0CF72743C7600C796D
:1010700004F00304022C12D1D40800EB840CDCF839
:1010800020405707FF0E09FA07F824EA0804D1F8B0
:10109000108008FA07F848EA0408CCF820800468B1
:1010A0004FEA420C06FA0CF7BC430F7907F003072E
:1010B00007FA0CF7274307604C6814F4403F70D0E0
:1010C0003C4C276847F480472760246822F00307D8
:1010D00004F480440094384C07EB040CDCF8084816
:1010E00097074FEA177809FA08F7BC43334FB8421D
:1010F00002D1002724E054E0314FB84201D101274A
:101100001EE0304FB84201D1022719E02E4FB842FD
:1011100001D1032714E02D4FB84201D104270FE07D
:101120002B4FB84201D105270AE02A4FB84201D11E
:10113000062705E0284FB84201D1072700E008271D
:1011400007FA08F72743CCF80878DAF80040574642
:10115000D1F804C09C435FEACC2C00D51C433C6012
:10116000DBF800405F46D1F804C09C435FEA8C2C5A
:1011700000D51C433C60DEF800407746D1F804C03F
:101180009C435FEA8C3C00D51C433C60084F083F01
:101190003C68D1F804C09C435FEACC3C00D51C43BA
:1011A0003C60521C102AFFF42FAFBDE8F88F0000FE
:1011B000083C014044380240003001400000024039
:1011C0000004024000080240000C024000100240EF
:1011D0000014024000180240001C02400AB1816164
:1011E00070470904FBE70000014880687047000071
:1011F0007C00002070B5040025D094F83D00002547
:1012000020B984F83C50204600F0B8F8242084F837
:101210003D002068016821F001010160206801683B
:1012200041F4004101602068016821F4004101603F
:1012300000F06EFF4D4A6168914201D84C4900E0D0
:101240004C49884201D2012070BD4B492368B0FB54
:10125000F1F15E6826F03F060E435E6063689342DC
:1012600006D94FF4967359434FF47A73B1FBF3F1F7
:101270002368491C1E6A26F03F06314319626168E3
:10128000914210D84900401EB0FBF1F2521CC2F34B
:101290000B02042A01D2042022E0B0FBF1F0401C32
:1012A000C0F30B001CE0A268F2B301EBC10303EB37
:1012B0000116431EB3FBF6F35B1C43F480431B058E
:1012C00049D092B301EBC10202EB0111401EB0FB09
:1012D000F1F0401CC0F30B0040F4804040F40040AB
:1012E0002168CA694CF6FF739A431043C861D4E978
:1012F000071001432068026822F0C0021143016018
:10130000D4E9030101432068826848F2FF339A431D
:1013100011438160D4E9050108432168CA6822F0BD
:10132000FF021043C86001E00EE016E0206801688B
:1013300041F0010101602564202084F83D0025630F
:1013400084F83E50002070BD01EB4106431EB3FB04
:10135000F6F35B1CB3E70120C2E701EB4101401E3D
:10136000B0FBF1F0401CC0F30B00B7E7A086010012
:1013700080841E0000093D0040420F0010B586B079
:10138000044614216846FEF755FF13492068884239
:1013900020D112480021026842F002020260006877
:1013A00000F002000590C02000901220CDE901015C
:1013B000032003900420049069460948FFF716FEB5
:1013C00006481030016841F400110160006800F423
:1013D0000010059006B010BD0054004030380240A7
:1013E000000402400248816802781144816070471D
:1013F0007C0000200B4810B5016841F400710160C9
:10140000016841F480610160016841F4807101600C
:10141000032000F09BF80F2000F006F800F050F8D1
:10142000002010BD003C024030B505461F4887B083
:101430000024016841F010010160006806A900F075
:101440001000009001A800F03DFE0498A8B100F043
:101450005FFE40001649174AB0FBF1F11648491EDD
:10146000026040F2E732C0E90324C0E9011484615C
:1014700001F014FC040003D015E000F049FEE9E798
:101480000D4801F079FC04000DD1362000F030F851
:10149000102D07D200222946362000F037F80748E1
:1014A000056000E0012407B0204630BD403802400E
:1014B00040420F000010004038040020800000204F
:1014C0000A4808B5016841F480410160006800F4F1
:1014D000804000900548001F016841F08051016084
:1014E000006800F08050009008BD000044380240C1
:1014F000002809DB00F01F02012191404009800013
:1015000000F1E020C0F8001170470000F0B40E4B6D
:101510001B680C46C3F30223C3F10705042D00D951
:101520000425191D072901D2002300E0DB1E012636
:1015300006FA05F1491E214099409E40761E16404C
:101540003143F0BC04F040BE0CED00E0064900F071
:10155000070208684FF6FF03184040EA0220034ADA
:1015600010430860704700000CED00E00000FA0531
:1015700070470068416200207047F0B50368586A00
:1015800039B19C6A4FF4827600EB144400204D1E62
:101590000AE040EA024098620FE006EB8007DF595C
:1015A000401C04EB1744C0B2A842F6D344EA024000
:1015B0004FF4807202EB810158500020F0BDD0F84A
:1015C000E00403F00ABD01EBC10200EB8202D0F897
:1015D000E004126A03F05FBC01EBC10200EB82027F
:1015E000D0F8E004D2F8602203F0B0BCD0F8E004F8
:1015F00003F0F5BC0A0601F00F0101EBC10100EB9D
:10160000810101D5143101E001F51571006804F084
:10161000C9BB70B504460B0601F00F0000EBC0011A
:1016200004EB81014FF001024FF0000502D54A752D
:10163000143103E081F8555201F51571087094F8E2
:101640009404012808D084F89424206804F0C8F891
:1016500084F89454002070BD022070BD70B504461B
:1016600001F00F002279904201D9012070BD0B06D4
:1016700001F00F0101EBC10104EB81014FF0010208
:101680004FF0000502D54A75143103E081F8555238
:1016900001F515718D70087094F89404012808D034
:1016A00084F89424206804F00DFA84F894540020FF
:1016B00070BD022070BD2DE9F04104460F0601F017
:1016C0000F0000EBC00104EB81014FF001064FF069
:1016D000000502D54E75143103E081F8555201F52D
:1016E000157108708A600B714A7802B14883022B29
:1016F00000D14D7194F89404012809D084F89464C1
:10170000206803F0BFFF284684F89454BDE8F081B8
:101710000220FBE710B501F00F0404EBC40100EB5D
:101720008101C1E998230023C1F8683281F855325C
:1017300081F85442837901F51571012B00D1CA61FA
:101740008279006804F016FA002010BD70B50446D6
:101750000D4601F00F002179884201D9012070BDAA
:1017600029064FF000064FF0010206D500EBC0013C
:1017700004EB81014A75143107E005EBC50104EB68
:10178000810181F8556201F515718A70087094F82D
:101790009404012807D084F89424206804F0BEF94A
:1017A000280702D007E0022070BDA17904F29C4214
:1017B000206804F05BF984F89464002070BD10B5D3
:1017C00001F00F0404EBC40100EB8101C1E908231F
:1017D00000238B6201234B7501F8144F8379012B91
:1017E00000D1CA618279006804F0C4F9002010BDFC
:1017F0002DE9FC5F05680446284604F06FFB0028CD
:101800007DD1206804F096FB002878D0D5F8080830
:10181000C0F30D20C4F8D404206804F08BFB8007CB
:1018200004D52068416901F002014161206804F09B
:1018300081FBC10604F29C40009034D52068816988
:1018400021F0100181612F6A07F00F0000EBC0004A
:1018500004EB8006C7F3434006F51576022802D054
:10186000062811D01AE047F6F070074216D0C7F3E9
:101870000A1217462846F16804F060FBF068384405
:10188000F0607069384408E008222846009904F0A6
:1018900055FB7069C7F30A110844706120688169BB
:1018A00041F010018161206804F044FB00034FF017
:1018B000080B4FF0000A4FF001097CD50026206884
:1018C00004F017FB074674E0F80770D0F1B2206807
:1018D00004F028FB8046C00707D005EB4611C1F88D
:1018E000089B3146204602F059FA5FEA087024D579
:1018F00005EB4611C1F808BB2068016C00E023E24B
:1019000000EB46100191D0F8082BFB4B994205D90A
:10191000110403D54FF40041C0F8081B204600F025
:10192000F6FAF5490198884207D9A079012804D12F
:1019300020680121009A04F099F85FEAC86004D594
:1019400005EB46111020C1F8080B5FEA88701DD521
:101950006869000605D5D5F8040840F48061C5F82B
:10196000041806EBC60004EB800090F8571200F54F
:101970001570012905D180F803A0F1B2204600F0CE
:10198000E9F905EB46110220C1F8080B5FEA88600F
:1019900004D505EB46102021C0F8081B5FEA8840FB
:1019A00005D505EB46104FF40051C0F8081B7F0821
:1019B000761C002F88D1206804F0BCFA40036ED555
:1019C000206804F08FFA0746002666E0F80762D028
:1019D000F1B2206804F094FA8046C00723D006F0E4
:1019E0000F01D5F8342809FA01F18A43C5F83428E3
:1019F00005EB4611C1F80899A07901280FD106EB33
:101A0000C60004EB8000D0E907211144016236B919
:101A1000606A20B920680121009A04F027F8F1B229
:101A20002046FFF7D0FD5FEA087003D505EB4611AD
:101A3000C1F808B95FEAC86004D505EB461110206B
:101A4000C1F808095FEA486004D505EB461040215B
:101A5000C0F808195FEA887016D53146284604F0A8
:101A600012FA06EBC60004EB8000C17D1430012998
:101A700005D180F803A0F1B2204600F067F905EB2C
:101A800046110220C1F808095FEA086003D5314613
:101A9000204602F0E9F97F08761C002F96D12068D5
:101AA00004F048FA002811DAD5F8040820F0010102
:101AB000C5F8041894F8CC0401282BD0204600F077
:101AC0000BFA2068416901F000414161206804F08F
:101AD00031FA00050BD5D5F80808C00702D020461A
:101AE00000F03EFA2068416901F40061416120681C
:101AF00004F020FAC00467D5D5F8040820F00100EE
:101B0000C5F804081021206804F0BDF900214FF643
:101B10007F3220E084F8CCA400212046FFF728FD86
:101B2000CFE700BF05EB4110C0F80829D0F8003915
:101B300023F40013C0F80039C0F8082BD0F8003B9C
:101B400023F40013C0F8003BD0F8003B43F00063DF
:101B5000C0F8003B491C20798842E3D8D5F81C081E
:101B600040F00111C5F81C18E07B002828460DD074
:101B7000D0F8840840F00B01C5F88418D5F8440863
:101B800040F00B012846C5F844180DE0D0F81408C1
:101B900042F22B010843C5F81408D5F8100840F0AC
:101BA0000B012846C5F81018D0F8000820F4FE6193
:101BB000C5F80018A1792068009A03F057FF206843
:101BC000416901F480514161206804F0B3F9800457
:101BD00015D5206803F096FD206804F072F9E071D5
:101BE00000F090FA0146E279206804F005FA2046F8
:101BF00000F05CF92068416901F4005141612068FE
:101C000004F098F9000707D5204600F069F920682C
:101C1000416901F008014161206804F08BF9000678
:101C200016D5A86920F08001A96101260DE000BF4A
:101C300006EBC60004EB800090F85702012803D1A0
:101C4000F1B22046FFF7D6FC761C2079B042EFD8DF
:101C5000206804F06FF9C0021FD501264F4614E03A
:101C600005EB4610D0F8001906EBC60004EB800225
:101C7000107E012808D1002906DAF0B240F0800178
:101C8000D7752046FFF7B6FC761C2079B042E7D81E
:101C90002068416901F480114161206804F04AF92B
:101CA000800234D501204A4629E000BF05EB4011EF
:101CB000D1F8001B00EBC00304EB830393F85862D8
:101CC000012E1BD1002919DA94F8D46401F4803173
:101CD00006F00106B14211D183F85722A96941F0FB
:101CE0008003AB616969090608D4D5F8040840F49B
:101CF0000070C5F8040805E00A30544F401C2179F3
:101D00008142D3D82068416901F400114161206803
:101D100004F010F9400007D52046FFF750FC20687A
:101D2000416901F080414161206804F003F94007F6
:101D30000AD520684568680702D52046FFF756FC9B
:101D40002068416829434160BDE8FC9FD0F8E00469
:101D500003F093B9D0F8E00403F0A3B9F8B5040098
:101D600005D094F895042668002510B106E00120FE
:101D7000F8BD84F89454204600F056F8032084F807
:101D80009504B6F1A04F00D1A571206803F068FE5C
:101D9000207C8DF8000094E80F0003F0C1FC0226BF
:101DA000B8BB0021206804F0E8F890BB00200127B0
:101DB0000DE000BF00EBC00104EB81014F75087519
:101DC000C8850D76CD610D62401CC0B24D6221798F
:101DD0008142EFD8002011E000EBC00104EB81014B
:101DE00081F8555281F8540281F85852C1F85C527A
:101DF000C1F86052401CC0B2C1F8645221798142DE
:101E0000EAD8207C8DF8000094E80F0003F06AFD0A
:101E100010B184F89564AAE7657484F89574206815
:101E200003F052FD0020F8BD10B586B00446142121
:101E30006846FEF7FFF92068B0F1A04F2FD119488E
:101E40000021026842F001020260006800F0010017
:101E500005904FF4C05000900220CDE9010103200D
:101E600003900A20049069460F48FFF7BFF80D4819
:101E7000001D016841F0800101600A4814300168CA
:101E800041F4804101600068002200F48040059028
:101E900011464320FFF73AFB4320FFF729FB06B02A
:101EA00010BD0000303802400000024070B504460A
:101EB000C079012570B1022801D0FEF7DBFC29466C
:101EC000D4F8E00403F05BF9D4F8E004BDE8704016
:101ED00003F010B90025F2E7D0F8E00403F038B9B8
:101EE000D0F8E00403F03EB910B5044690F894042D
:101EF00001280AD0012084F894046174206804F059
:101F00006AF8002084F8940410BD022010BDD0F8B7
:101F1000E02400F29C41104603F03DB910B50446A0
:101F2000006894F89414012909D0012184F89414CC
:101F3000C168490609D5617B012902D005E002206C
:101F400010BD816B41F480318163206803F079FF1B
:101F5000206803F0ABFC002084F8940410BD00005E
:101F600010B50446D0F8E00403F057F92068D0F823
:101F7000001E41F00101C0F8001EE07A002804D0E4
:101F80000248016841F00601016010BD10ED00E05B
:101F90002DE9F0470E46050065D0DFF81481D8F82A
:101FA0000000F7B200F00700B04207D288F80070D6
:101FB000D8F8000000F00700B04254D128683D4C2A
:101FC000810712D5400703D5206840F4E050206017
:101FD0002878000703D5206840F46040206020681E
:101FE000A96820F0F000084320602878C0072DD0B1
:101FF000304968680839012812D0022813D0032814
:1020000011D00968890700292DDA216821F0030120
:1020100001432160FFF7E8F8814641F2883A0EE07B
:1020200009688903EFE709688901ECE7FFF7DCF845
:10203000A0EB0901514502D90320BDE8F0872068D3
:10204000696800F00C00B0EB810FEFD1D8F80010F8
:10205000404601F00701B14207D90770006800F05F
:102060000700B04201D00120E7E72878400705D5F6
:102070002068E96820F4E0500843206028780007D1
:1020800006D52068296920F4604040EAC10020603C
:1020900000F05EF82168084AC1F30311515CC840A2
:1020A0000649086006480068FFF7BEF90020C4E74B
:1020B000003C024008380240B0640008880000205C
:1020C000800000200F2202600C4A136803F0030313
:1020D0004360136803F0F0038360136803F4E05374
:1020E000C36012684FF4E05303EAD202026104486D
:1020F000006800F0070008607047000008380240E0
:10210000003C024001480068704700008800002041
:102110000448054900680968044AC1F38221515CFA
:10212000C84070478800002008380240C06400089A
:102130000448054900680968044AC1F34231515C0A
:10214000C84070478800002008380240C06400087A
:10215000154810B5006810F00C02144813D0411057
:10216000042A0FD0082A0ED10F4C241F226823689E
:1021700002F03F025B0207D52068C0F38810A0FB85
:10218000010106E0084610BD2168C1F38811A1FBDA
:1021900000010023FEF716F82168C1F30141491C34
:1021A0004900B0FBF1F010BD083802400024F400F3
:1021B0002DE9F84F04006ED02078DFF84C93C0076B
:1021C000A9F104054AD009F104000168C1F38101B5
:1021D000012908D00068C0F3810002280AD1D9F88B
:1021E0000000400206D52868800337D560680028C3
:1021F000E1D033E06068B0F5803F10D0B0F5A02F9B
:10220000286810D020F480302860286820F48020CE
:1022100028606068A8B1FEF7E7FF06460DE0286871
:1022200040F48030F4E740F480202860F7E700BFF6
:10223000FEF7DAFF801B642873D828688003F7D57F
:102240000CE0FEF7D1FF064605E000BFFEF7CCFF2D
:10225000801B6428F0D828688003F7D42078DFF842
:10226000AC8280074FF0000A3ED5A748001D0168E8
:1022700011F00C0F08D00068C0F3810002280BD1C8
:10228000D9F80000400207D42868800716D5E06816
:10229000012800D112E033E1E068B8B10120C8F8AC
:1022A0000000FEF7A1FF064605E000BFFEF79CFF19
:1022B000801B0228C0D828688007F7D528682169C4
:1022C00020F0F80040EAC10028600DE0C8F800A046
:1022D000FEF78AFF064604E0FEF786FF801B022811
:1022E0001FD828688007F7D42078000722D5864FAA
:1022F00087486169703771B101210160FEF774FF91
:10230000064604E0FEF770FF801B022809D83868F3
:102310008007F7D50EE0C0F800A0FEF765FF06467F
:1023200005E082E0FEF760FF801B02287DD8386858
:102330008007F7D42078400768D5DFF8CCB10027B4
:102340000BF13C0BDBF80000C0000BD4DBF80010F5
:1023500041F08051CBF80010DBF80000012700F0BD
:10236000805000906B4E3068C00510D4306840F447
:1023700080703060FEF738FF009005E0FEF734FF14
:102380000099401A022850D83068C005F6D55E4E34
:10239000A0686C3601280FD00528306810D020F0D6
:1023A00001003060306820F004003060A068B8B1EF
:1023B000FEF71AFF00900FE0306840F00100F4E7EC
:1023C00040F004003060F7E7FEF70EFF0099411A75
:1023D00041F28830814266D830688007F4D50EE03B
:1023E000FEF702FF009007E0FEF7FEFE0099411A9B
:1023F00041F28830814256D830688007F4D42FB13A
:10240000DBF8001021F08051CBF80010A069C8B3B0
:102410003D49091D0968C1F3810102294AD00228FA
:10242000504607D0C8F8600000E03CE0FEF7DCFE54
:1024300004463BE04746C8F86000FEF7D5FE064676
:1024400005E000BFFEF7D0FE801B02282BD82868CD
:102450008001F7D4D4E907010843A16A2E4A49084C
:1024600002EB0141626A41EA8211084394F82C10A0
:1024700040EA0161C9F8001001203866FEF7B4FE99
:10248000044606E03EE000BFFEF7AEFE001B022859
:1024900009D828688001F7D534E000BFFEF7A4FE14
:1024A000001B022802D90320BDE8F88F28688001AC
:1024B000F4D427E00128F7D0D9F80000E26900F44D
:1024C000800191421CD1226A00F03F01914217D154
:1024D00047F6C071626A0140B1EB821F10D1A26A57
:1024E0004FF0FF3300F4403103EB5202B1EB024FE7
:1024F00006D194F82C1000F07060B0EB016F01D0A1
:102500000120D1E70020CFE7043802400000474215
:10251000800E4742007000400000FFFF70B50400CD
:1025200009D0606A002540B125616561A56294F813
:10253000510040B10CE0012070BD6068B0F5827FB1
:10254000F4D0E561F2E784F85050204600F044F8FA
:10255000022084F851002068016821F040010160E8
:10256000A088218900F4827001F404410843A18904
:1025700001F400610843217C01F002010843217D40
:1025800001F001010843218B01F400710843217F10
:1025900001F03801084394F8201001F0800108434D
:1025A000218D01F40051084321680860A0690421CD
:1025B00001EA104094F8241001F01001084321684A
:1025C00048602068C16921F40061C161656501202E
:1025D00084F85100002070BD10B586B00446142167
:1025E0006846FDF727FE13492068884220D112482B
:1025F0000021026842F480520260006800F48050BA
:1026000005900D481438026842F00102026000682B
:1026100000F001000590E02000900220CDE90101CA
:10262000032003900520049069460448FEF7DEFC71
:1026300006B010BD003001404438024000000240A6
:102640002DE9F84F044690F85100984616460F467B
:102650000025012801D0022598E060684FF0040BA6
:10266000B0F5827F01D1A068F8B194F8500001283C
:1026700026D04FF0010984F85090FEF7B5FD824650
:10268000002F7FD0002E7DD084F851B000206065EF
:10269000A763A687E6872063A086E086206460643F
:1026A000A068B0F5004F0DD016E084F851B0134685
:1026B0000A462046CDF8008000F024F9BDE8F88FE6
:1026C0000220FBE72068016821F0400101602068DA
:1026D000016821F48041016020680168490603D443
:1026E000016841F040010160E068D8B13BE020683A
:1026F0008168C90709D0007BA16B0870A06B401CE2
:10270000A063E08F401EE0870CE0FEF76DFDA0EBBC
:102710000A01414503D3B8F1FF3F03D006E0B8F109
:10272000000F03D0E08F0028E1D11FE003252BE04C
:1027300020688168C90709D0C068A16B0880A06BB8
:10274000801CA063E08F401EE0870CE0FEF74CFD8C
:10275000A0EB0A01414503D3B8F1FF3F03D0E5E701
:10276000B8F1000FE2D0E08F0028E1D15246414697
:10277000204601F0F5FB08B120206065606D00E0A7
:1027800000E008B1012501E084F85190002084F8B0
:102790005000284692E72DE9F84F044690F8500083
:1027A0000026984615468A4601280CD0012784F851
:1027B0005070FEF719FD814694F85100B346012888
:1027C00004D002269AE00220BDE8F88FBAF1000F8B
:1027D0006FD0002D6DD0032084F85100C4F854B0A0
:1027E000C4F830A0A586E586C4F838B0A4F83CB09B
:1027F000A4F83EB0C4F844B0C4F840B0A068B0F546
:10280000004F09D12068016821F040010160206873
:10281000016841F48041016020680168490603D4E1
:10282000016841F040010160E068B0F5006F606848
:1028300003D058B3012D29D049E008B1012D1FD193
:10284000206B21680088C86006E0206881688907DD
:1028500009D5216B0988C160206B801C2063E08E44
:10286000401EE0860CE0FEF7BFFCA0EB09014145ED
:1028700003D3B8F1FF3F03D006E0B8F1000F03D057
:10288000E08E0028E1D125E0032635E0206B2168A9
:102890000078087306E02068816889070AD5216BF3
:1028A00009780173206B401C2063E08E401EE08697
:1028B0000DE01FE0FEF798FCA0EB0901414503D3B2
:1028C000B8F1FF3F03D0DFE7B8F1000FDCD0E08EB6
:1028D0000028E0D14A464146204601F06FFB08B18E
:1028E00020206065A06818B92068C16880680090E1
:1028F000606D08B1012601E084F8517084F850B091
:10290000304661E72DE9FF4F81B0044690F8500052
:1029100000260E9F1D4693464FF0010901280FD057
:102920004FF0010A84F850A0FEF75EFC804694F850
:102930005100616801280DD0B1F5827F08D103E014
:10294000022005B0BDE8F08FA16809B9042801D0C4
:102950000226C9E00298002865D0BBF1000FFBD029
:10296000002DF9D094F85100042802D0052084F8F5
:10297000510000206065C4F838B0E587A58702994A
:102980002163E586A58620646064206801684906A5
:1029900003D4016841F040010160E068B0F5006FC8
:1029A000606803D0F0B3012D47D081E008B1012D5C
:1029B0003CD1206B21680088C860206B801C20639C
:1029C000E08E401EE08631E02068816889070FD5DF
:1029D000E18E69B1B9F1010F0AD1216B0988C1609B
:1029E000206B801C2063E08E401EE0864FF00009C3
:1029F00020688168C9070CD0E18F51B1C068A16B14
:102A00000880A06B801CA063E08F401EE0874FF021
:102A10000109FEF7E9FBA0EB0800B84206D3781CD9
:102A200004D001E009E05BE003265BE0E08E0028D3
:102A3000CAD1E08F0028C7D140E0206B2168007820
:102A40000873206B401C2063E08E401EE0862FE060
:102A50002068816889070FD5E18E69B1B9F1010F4E
:102A60000AD1216B09780173206B401C2063E08E32
:102A7000401EE0864FF0000920688168C9070CD02D
:102A8000E18F51B1C068A16B0870A06B401CA063BE
:102A9000E08F401EE0874FF00109FEF7A5FBA0EB99
:102AA0000800B84202D3781C02D0BAE7002FB8D091
:102AB000E08E0028CCD1E08F0028C9D142463946AB
:102AC000204601F07BFA18B10126202060650BE05A
:102AD000A06818B92068C16880680090606D08B16E
:102AE000012601E084F851A0002084F8500030460F
:102AF00027E77047704710B590F83C20012A22D094
:102B0000012280F83C20CA688C6822F4407222437B
:102B10004C6822F4806222430C6822F40062224353
:102B20000C6922F4805222434C6922F40052224361
:102B3000C969002322F480420A4301684A6480F88C
:102B40003C30002010BD022010BD000070B590F890
:102B50003C20012A32D0012480F83C40022280F837
:102B60003D2003685A689D6822F070060A68324367
:102B70005A60134B02689A4214D0B2F1804F11D0C0
:102B8000104B9A420ED0104B9A420BD00F4B9A42E8
:102B900008D00F4B9A4205D00E4B9A4202D00E4BF2
:102BA0009A4204D1496825F080031943916080F866
:102BB0003D40002180F83C10084670BD022070BDE9
:102BC000000001400004004000080040000C0040EC
:102BD00000040140004001400018004010B50446C8
:102BE000022249B104290ED0082913D094F84500D7
:102BF000012816D0012010BD94F842000128F9D117
:102C000084F842200FE094F843000128F2D184F8C0
:102C1000432008E094F844000128EBD184F84420D4
:102C200001E084F845200422206801F0ACFB206814
:102C3000416C41F40041416411492068884214D03C
:102C4000B0F1804F11D00F4988420ED00E49884212
:102C50000BD00E49884208D00D49884205D00D4955
:102C6000884202D00C49884204D1816801F00701F2
:102C7000062903D0016841F001010160002010BD68
:102C8000000001400004004000080040000C00402B
:102C900000040140004001400018004010B504004D
:102CA00003D094F83D0010B107E0012010BD0020D2
:102CB00084F83C00204600F01FF8022084F83D0014
:102CC000211D206801F0E6FA012084F8460084F80E
:102CD0003E0084F83F0084F8400084F8410084F806
:102CE000420084F8430084F8440084F8450084F8E6
:102CF0003D00002010BD000008B501681A4881425F
:102D000009D11A48016841F001010160006800F032
:102D10000100009008BD1548154A001F91420ED1D0
:102D2000016841F0040101600068002200F0040025
:102D3000009011461E20FEF7E9FB1E2010E00D4A10
:102D40009142E7D1016841F0200101600068002252
:102D500000F02000009011463720FEF7D7FB372007
:102D6000BDE80840FEF7C4BB000001404438024003
:102D7000000800400014004090F83D10012901D0E7
:102D800001207047022180F83D100168CA6842F0B6
:102D90000102CA6000681149884214D0B0F1804F26
:102DA00011D00F4988420ED00E4988420BD00E49EF
:102DB000884208D00D49884205D00D49884202D08A
:102DC0000C49884204D1816801F00701062903D02B
:102DD000016841F0010101600020704700000140DE
:102DE0000004004000080040000C004000040140C6
:102DF000004001400018004070B5044690F83C00C7
:102E00000025012817D0012684F83C60022084F8B0
:102E10003D002068826822F0770222F47F428260BF
:102E20000868502838D00DDC20284FD005DC90B33E
:102E3000102811D14AE0022070BD302846D0402829
:102E40000AD13BE060282FD070280DD0B0F5805F0C
:102E500003D0B0F5005F12D0012584F83D6000205A
:102E600084F83C00284670BDCB68D1E90121206878
:102E700001F096FA2068816841F0770109E0CB689B
:102E8000D1E90121206801F08BFA2068816841F4C2
:102E900080418160E1E719E0CA684968206801F073
:102EA00053FB5021206806E0CA684968206801F099
:102EB0005CFB6021206801F07DFACEE7CA684968B2
:102EC000206801F041FB40212068F4E722680146B8
:102ED0001046F0E770472DE9F04104460068C668E7
:102EE00005694FF00007A90713D5B10711D5F91EE1
:102EF000016101202077206880698007204602D088
:102F0000FFF7E8FF04E000F0BDF8204600F04FF9BD
:102F10002777680716D5700714D521686FF004006D
:102F20000861022020772068806910F4407F2046E5
:102F300002D0FFF7CFFF04E000F0A4F8204600F035
:102F400036F92777280715D5300713D521686FF094
:102F500008000861042020772068C06980072046A7
:102F600002D0FFF7B7FF04E000F08CF8204600F035
:102F70001EF92777E80616D5F00614D521686FF0FC
:102F800010000861082020772068C06910F4407F95
:102F9000204602D0FFF79EFF04E000F073F82046C1
:102FA00000F005F92777E80708D0F00706D0216878
:102FB0006FF001000861204600F05EF9280608D590
:102FC000300606D521686FF0800008612046FFF7C3
:102FD00090FD680608D5700606D521686FF04000A0
:102FE0000861204600F0E2F9A8060AD5B00608D527
:102FF00021686FF0200008612046BDE8F041FFF72E
:1030000079BDBDE8F081000070B586B0044614219A
:103010006846FDF70FF917492068884228D11648FD
:103020000024016841F002010160016801F0020121
:103030000591016841F0100101600068022500F06F
:103040001000059003200090CDE901540126CDE940
:10305000034669460948FDF7C9FF4FF42C5000901C
:10306000CDE90154CDE9034669460548FDF7BEFFA9
:1030700006B070BD0000014030380240000402403C
:1030800000100240704770B5044690F83C000026DE
:103090000D4601280FD0012084F83C006AB1042AB3
:1030A0001DD0082A2FD00C2A3FD00126002084F8FA
:1030B0003C00304670BD022070BD206801F082F9EE
:1030C0002068816941F0080181612068816921F0EF
:1030D00004018161206881692A69114311E0206837
:1030E00001F0A0F92068816941F4006181612068E4
:1030F000816921F480618161206881692A6941EADE
:1031000002218161D2E7206801F0C2F92068C1691B
:1031100041F00801C1612068C16921F00401C16169
:103120002068C1692A69114311E0206801F0E4F9BF
:103130002068C16941F40061C1612068C16921F45E
:103140008061C1612068C1692A6941EA0221C161C7
:10315000ACE710B5040003D094F83D0010B107E0CF
:10316000012010BD002084F83C00204600F01EF82D
:10317000022084F83D00211D206801F08BF8012019
:1031800084F8460084F83E0084F83F0084F840004C
:1031900084F8410084F8420084F8430084F8440035
:1031A00084F8450084F83D00002010BD704770474A
:1031B00010B50446022249B104290ED0082913D0C3
:1031C00094F84100012816D0012010BD94F83E006B
:1031D0000128F9D184F83E200FE094F83F0001283F
:1031E000F2D184F83F2008E094F840000128EBD1A8
:1031F00084F8402001E084F841200122206801F099
:10320000B5F816492068164A884201D0904203D189
:10321000436C43F4004343642068884213D0B0F108
:10322000804F10D00F4988420DD00F4988420AD0F4
:103230000E49884207D0904205D00D49884202D0FD
:103240000C49884204D1816801F00701062903D0A6
:10325000016841F001010160002010BD0000014043
:10326000000401400004004000080040000C004041
:10327000004001400018004070B504462DED048B5D
:1032800000683C49884201D1FEF7ACF83A49206811
:1032900088426CD1394DDFED3A0A9FED3A8AE888D1
:1032A000DFED398A00EE100A384C3949B8EE400A91
:1032B00060EE200A80EE880A20EE280A10EE100A3E
:1032C00084ED040A884203DD9FED320A84ED040A8E
:1032D0009FED319A2088F2EE081A94ED021AF7EE6B
:1032E000000AB0EE490A00F027FF94ED020ADFED74
:1032F0002B0A2B4970EE200A10EE900AC4ED020A48
:10330000884201DD84ED029A288900EE100A2548E2
:10331000F8EE400A80EE880A20EE280A80ED000AC6
:10332000698900EE101AF8EE400A80EE880A20EE55
:10333000280A80ED010AA98900EE101AB8EE400AA9
:10334000C0EE080A20EEA80A80ED020AD0E90012B9
:1033500010EE100AE1610D49C4E908201022BDEC0D
:10336000048B1C31BDE870400F4800F047BABDEC3B
:10337000048B70BD0010004000140040540E00206B
:103380004260054100F07F45333353400000002088
:1033900000C05A4500C05A450000000086C3E43A08
:1033A000DA0FC94058010020900300207047704791
:1033B00070470000F8B5016804460868CA684B69A0
:1033C00010F00F0F4FF0000559D003F0010602F482
:1033D0009077374365D0C10705D0D10503D5616C1F
:1033E00041F001016164410705D5D90703D0616C43
:1033F00041F002016164810705D5D90703D0616CF2
:1034000041F004016164010707D502F02001314356
:1034100003D0616C41F008016164616C00293AD00D
:10342000800604D5900602D5204601F038F92068C0
:103430004069616CC0F38010090700D460B3204676
:1034400001F0F8F820684069400621D52068143062
:1034500050E8001F21F0400140E80012002AF5D199
:10346000E06BA8B16E490165E06BFDF728FC002810
:1034700011D0E06B016D01B0BDE8F0400847830654
:103480000FD593060DD52046BDE8F84001F007B9E9
:103490002046FFF78DFFF8BD2046FFF789FF6564E2
:1034A000F8BD266B2023012E7DD1C6067BD5D6061E
:1034B00079D508684868009048694FF002064006D0
:1034C00041D5E16B086840680004000CE8D0A28D8B
:1034D0008242E5D9E085C869B0F5807F2DD02068AB
:1034E0000C3050E8001F21F4807140E80012002ADF
:1034F000F5D12068143050E8001F21F0010140E8A8
:103500000012002AF5D12068143050E8001F21F085
:10351000400140E80012002AF5D184F842302563CA
:1035200020680C3050E8001F21F0100140E8001224
:10353000002AF5D1E06BFDF779FB6663A08DE18D84
:10354000401A81B22AE0A08DE18D401A81B2E08D4F
:103550000028A5D00029A3D022680C3252E8000F21
:1035600020F4907042E80007002FF5D12068143055
:1035700050E8002F22F0010240E80027002FF5D18B
:1035800084F84230256320680C3050E8002F22F088
:10359000100240E80023002BF5D166632046FFF7B8
:1035A00006FFF8BDFFE705062BD5150629D594F8CB
:1035B00041002128F5D1A068B0F5805F01D12069D4
:1035C000B0B1206A411C2162216800784860E08C1B
:1035D000401E0004000CE084E3D12068C16821F0A3
:1035E0008001C1602068C16841F04001C160D8E736
:1035F000206A0088C0F308004860206A801C2062AE
:10360000E5E74006CDD55006CBD5CA68204622F066
:103610004002CA6084F8413000F02CF9C1E7000094
:103620008F45000870B5040004D094F841000025CF
:1036300010B106E0012070BD84F84050204600F033
:1036400023F8242084F841002068C16821F4005147
:10365000C160204601F084F82068016921F490419E
:1036600001612068416921F02A0141612068C16837
:1036700041F40051C1606564202084F8410084F861
:1036800042006563002070BD70B586B00646142107
:103690006846FCF7CFFD24493068884241D1234871
:1036A0000025016841F010010160006800F0100081
:1036B00005901E481438016841F00101016000685E
:1036C000694600F0010005904FF4C06000900220B0
:1036D000CDE9010503200390072004901448FDF76D
:1036E00085FC154C134820604FF00060606040205E
:1036F000C4E902050001C4E90405A561E56125628C
:1037000020466562FDF7BEFB08B1FDF7B3F8B46370
:10371000002211462520A663FDF7F8FE2520FDF7BF
:10372000E7FE06B070BD00000010014044380240C2
:1037300000000240B8640240D803002090F84230F4
:10374000202B01D00220704721B11AB1002303635E
:1037500001F08CB80120704770472DE9F84304460A
:1037600090F84100984616460D46202802D00220C7
:10377000BDE8F88385B17EB100206064212084F823
:103780004100FDF731FDA6848146E684A06820272C
:10379000B0F5805F02D003E00120E9E7206910B1B5
:1037A0002E4600250EE000260CE08021204601F088
:1037B00078F8A8B9C6B116F8010B21684860E08C0A
:1037C000401EE084E08C4B464FF00002CDF80080B4
:1037D0000028EAD14FF04001204601F062F840B1E4
:1037E00084F841700320C3E735F8020BC0F30800EA
:1037F000E3E784F841700020BAE7000070B50446A2
:1038000090F84100202801D0022070BD49B342B396
:103810002162A284E28400206064212384F8413084
:10382000A56B114BEB63A56B104B2B64A56B104B79
:10383000EB64A36B1865256813462A1DA06BFDF782
:103840008BFB21686FF0400008602068143050E85E
:10385000001F41F0800140E80012002AF5D100204D
:1038600070BD012070BD0000E94500082B4600082E
:103870009F45000870477047FEE70000F0B5002341
:103880000A24302537261F4611E000BFB4EB107F15
:1038900002D905EB107C01E006EB107C01F813C0A7
:1038A00001EB430C00015B1C8CF80170DBB293420E
:1038B000ECD3F0BD2DE9FF41002535480095019579
:1038C000029532490395016001244FF4803104616F
:1038D000C0E90115047680F820502E49C0E90A1588
:1038E0000726C661C56080F830404461FDF76DF879
:1038F00008B1FCF7BFFF0A208DE831006946244873
:10390000FCF7BAFF08B1FCF7B5FF0B200225CDE9A3
:10391000000569461E48FCF7AFFF08B1FCF7AAFF97
:103920000C200327CDE9000769461948FCF7A4FFDE
:1039300008B1FCF79FFF0D2000900420019069461C
:103940001348FCF799FF08B1FCF794FF0520CDE977
:10395000004069460E48FCF78FFF08B1FCF78AFF6C
:103960000620CDE9005069460948FCF785FF08B1FB
:10397000FCF780FFCDE9007669460548FCF77CFF3F
:10398000002801D0FCF776FFBDE8FF810020014050
:10399000640100200100000F0D4808B5016841F4E2
:1039A000800101600068002200F480000090114650
:1039B0003820FDF7ABFD3820FDF79AFD00221146B7
:1039C0004620FDF7A3FDBDE808404620FDF790BD69
:1039D000303802402DE9F04387B014216846FCF7E7
:1039E00029FC3C480024016841F0040101600168A1
:1039F00001F004010591016841F0200101600168B6
:103A000001F020010591016841F080010160016829
:103A100001F080010591016841F001010160016838
:103A200001F001010591016841F0020101600168A6
:103A300001F002010591016841F010010160006888
:103A4000254F00F010004FF4C06505900122294673
:103A50003846FDF7C3FBDFF8848001221021404681
:103A6000FDF7BCFBDFF8789000224FF48851484600
:103A7000FDF7B4FB00950125CDE9015469463846B0
:103A80000394FDF7B3FA10200226CDE90005CDE935
:103A9000024669464046FDF7A9FA4FF470408DE8AA
:103AA000310069463846FDF7A1FA28030090CDE9B8
:103AB0000154694648460394FDF798FA2802039496
:103AC0008DE8610069464846FDF790FA07B0BDE809
:103AD000F083000030380240001402400000024031
:103AE000000402400D4810B50B4901600C494160CB
:103AF00000214FF480428160C0E90312416181617D
:103B0000C1610162FDF776FB002803D0BDE81040DB
:103B1000FCF7B0BE10BD0000005400400C020020B5
:103B2000A0860100104810B50E4901604FF4827163
:103B30004160002181600122C160C0E9041252028B
:103B400082611022C0E90721416281620A21C162BB
:103B5000FEF7E4FC002803D0BDE81040FCF78ABE65
:103B600010BD0000003001406002002010B596B08A
:103B700000240F9410941194129413941C216846FD
:103B80001494FCF757FB202107A8FCF753FB35489A
:103B900033490160012141602021816041F26701C8
:103BA000C0E9031444618461FFF778F808B1FCF7B9
:103BB00061FE4FF480500F900FA92A48FFF71CF9BF
:103BC00008B1FCF757FE2748FFF7C3FA08B1FCF726
:103BD00051FE139413A923481494FEF7B7FF08B1BC
:103BE000FCF748FE6020009040F2EC40CDE9010473
:103BF000039404940594002269461A480694FFF73A
:103C000042FA08B1FCF736FE40F634000190042277
:103C100069461448FFF737FA08B1FCF72BFE40F667
:103C20007C300190082269460E48FFF72CFA08B153
:103C3000FCF720FE0794089409944FF400500A946E
:103C4000CDE90B4007A907480E94FEF754FF08B1D1
:103C5000FCF710FE0348FFF7D7F916B010BD0000BF
:103C600000000140B802002010B586B000241748BB
:103C70000094019402940394049413490594016000
:103C800040F28F61C0E9011440F2E731C0E903144A
:103C90008461FFF703F808B1FCF7ECFD4FF48050A6
:103CA000009069460948FFF7A7F808B1FCF7E2FD64
:103CB000049404A905480594FEF748FF002801D0A4
:103CC000FCF7D8FD06B010BD00080040000300203E
:103CD0001CB500240E4800940C490194C0E900145E
:103CE00040F28261C0E902418461FEF7D7FF08B16A
:103CF000FCF7C0FD0094694605480194FEF726FFD5
:103D0000002801D0FCF7B6FD1CBD000000140040E7
:103D1000480300200C4810B50A4901604FF4E13116
:103D20004160002181600C22C160C0E90412816100
:103D3000C161FFF777FC002803D0BDE81040FCF715
:103D400099BD10BD001001409003002010B5002265
:103D50000B490C4801F07AF808B1FCF78BFD0A49D1
:103D6000084801F086FA08B1FCF784FD054801F027
:103D700003FB002803D0BDE81040FCF77BBD10BD5D
:103D80002C0000208004002090000020FEE7FEE7C9
:103D90000148FDF72DBD0000700900202DE9F0411C
:103DA00003680D4604461E6C03EB4511D1F8080B61
:103DB00094F806E04FF400474FF0200C04F29C42C8
:103DC000BEF1010F09D0DFF898E0764539D1020441
:103DD00032D500BFC1F8087B3FE0224B5FEA007E8E
:103DE00004D59E4239D90004F4D436E05FEA806EEF
:103DF00002D5C1F808CB30E010F0280F2DD19E423B
:103E000001D90004E6D405EBC50004EB8000D1F82D
:103E1000101BD0F87432C1F31201591AC0F868129D
:103E200000F51570ADB903691BB1C2681144C160DA
:103E30000FE0012120680AE080060AD5C1F808CB0E
:103E400007E035B9D4F8640218B90021184601F02A
:103E50000DFEE9B22046FDF7BFFB0020BDE8F08172
:103E60000A31544F0A30544F2DE9F84F0E4601EBFA
:103E7000C60100EB810481460568D4E909101434B9
:103E8000884202D90120BDE8F88F081AA168814252
:103E900000D20846C01C870805EB46181BE000BF8F
:103EA000A0EB010AA068504500D282460AF1030047
:103EB000870899F8060000901FFA8AF3F2B22846A4
:103EC000E16802F00DF9E16801EB0A00E060616968
:103ED00001EB0A006061D8F8180980B2B84205D336
:103EE000D4E90401814201D20028D9D1D4E90401E6
:103EF000884208D806F00F0101208840D5F8341810
:103F00008143C5F834180020BDE7704770B50C46F2
:103F10002DED048BF0EE419AF0EE408A0546B0EEAE
:103F2000608AB0EE690AFCF703FA20EE289AB0EE38
:103F3000690AFCF749FA08EE409AB0EE690A85ED85
:103F4000009AFCF741FA60EE288AB0EE690AFCF7A5
:103F5000EFF948EE008AC4ED008ABDEC048B70BD19
:103F6000F8B5044640684FF48273984221D1A068A6
:103F70004FF48065B0F5004F01D0A8420AD1206807
:103F8000066826F0400606606068984211D1A06875
:103F9000A8420ED000920B4600228021204600F05D
:103FA00043F8002804D0606D40F0200060650320D5
:103FB000F8BD00920B4600220121EFE7F8B5154647
:103FC0000E460B46009204460122022100F02CF816
:103FD000A0B9134813490068B0FBF1F04FF47A71AF
:103FE000484300906068B0F5827F0DD133460022CF
:103FF00080212046009500F017F870B1606D40F008
:10400000200060650320F8BD009830B1401E00908C
:1040100020688068C0430006F6D50020F8BD000087
:104020008800002000366E012DE9F8431E469146B7
:1040300088460446089DFDF7D7F8401B351AFDF762
:10404000D3F8074625480068C0F3CB30684338E012
:10405000701C37D0FDF7C8F8C01BA84203D215B1B9
:10406000009860B32CE02068416821F0E0014160D5
:104070006068B0F5827F0BD1A068B0F5004F02D028
:10408000B0F5806F04D12068016821F04001016023
:10409000A06AB0F5005F09D12068016821F40051E1
:1040A00001602068016841F400510160012084F83A
:1040B0005100002084F850000320BDE8F88300255B
:1040C000401E00902068816838EA010004D0002179
:1040D0004945BDD10020F0E70121F9E78800002023
:1040E00070470178407841EA002070479FED101A30
:1040F0009FED102AF6EE001A20EE011A20EE020AB9
:10410000F5EEC00A002000EEE11A00EEE10AF1EE41
:1041100010FA00DD0120B5EEC01AF1EE10FA00DD54
:10412000801CB5EEC00AF1EE10FA00DD001D7047EC
:10413000D7B35D3FD7B35DBF30B504462DED028BDD
:1041400089B0B0EE618ADFED1E1A02A9CDED011A29
:10415000CDED021A01A8FFF7D9FEDDED020A9DEDB3
:10416000010AFFF7C3FF00EE104A054604AAF8EE65
:10417000401A03A9B0EE481ADDED020A9DED010ACE
:1041800001F0C4FF07A8009006AB05AA2146DDEDAB
:10419000040A9DED030A2846FCF73BFA0948BDF8DE
:1041A0001410026851630268BDF81810916300682A
:1041B000BDF81C10C16309B0BDEC028B30BD00001E
:1041C00000000000B80200207047000030B593B036
:1041D00030216846FCF72EF814210CA8FCF72AF8C9
:1041E0001D480025016841F080510160006800F021
:1041F000805011901948016841F4804101600068C5
:10420000022400F4804011900120009000040190ED
:104210008001CDE9064004200890A820CDE90904DA
:1042200007200B906846FDF7C3FF08B172B6FEE7A2
:104230000CA90F2081E831004FF4A0500F904FF4EB
:104240008050109005210CA8FDF7A2FE002801D097
:1042500072B6FEE713B030BD403802400070004037
:104260000248016841F470010160704788ED00E088
:104270000148FEF730BE0000000300200148FEF7B1
:104280002ABE0000380400200148FEF724BE0000CA
:1042900048030020F0B50268294C2A4D2A4E2B4FC6
:1042A0002B4B4FF0804CA04209D0604507D0A8426C
:1042B00005D0B04203D0B84201D0984204D122F0D8
:1042C000700E4A6842EA0E02A0421BD0604519D027
:1042D000A84217D0B04215D0B84213D0984211D09E
:1042E0001C4DA8420ED01C4DA8420BD01B4DA8421D
:1042F00008D01B4DA84205D01A4DA84202D01A4D35
:10430000A84203D122F44075CA682A434D6922F0BD
:1043100080022A4302608A68C2620A688262A042FE
:1043200001D0984201D1096901630121416101690C
:10433000C90703D0016921F001010161F0BD00004E
:10434000000001400004004000080040000C004054
:104350000004014000400140004401400048014089
:1043600000180040001C00400020004010B501F083
:104370001F030121046A99408C430462016A9A4038
:104380001143016210BD10B501F00F030421046A4E
:1043900099408C430462016A9A401143016210BD46
:1043A00010B5846842EA032224F47F440A4322437E
:1043B000826010BD826822F070020A4342F0070159
:1043C00081607047F0B5036A026A22F0010202625E
:1043D00042688469124E24F073050C682C4323F064
:1043E00002058B682B430D4DA84201D0B04205D188
:1043F00023F00807CB683B4323F00403A84201D015
:10440000B04205D14D6922F4407215438A692A43AE
:1044100042608461496841630362F0BD000001406D
:1044200000040140F0B5026A036A23F0100303623E
:10443000436884690D6824F4E64444EA05248D68E1
:1044400022F0200242EA05120F4D104EA84201D080
:10445000B04206D1CF6822F0800242EA071222F071
:104460004002A84201D0B04207D14D6923F4406315
:1044700043EA85038D6943EA8503436084614968A3
:1044800081630262F0BD00000000014000040140B1
:10449000F0B5026A036A23F4807303624368C46957
:1044A00022F4007224F073050C68124E2C438D68C0
:1044B00042EA05220E4DA84201D0B04206D1CF6893
:1044C00022F4006242EA072222F48062A84201D06C
:1044D000B04207D14D6923F4405343EA05138D6977
:1044E00043EA05134360C4614968C1630262F0BDD9
:1044F000000001400004014030B5046A026A22F461
:10450000805202624268C3690D6823F4E64343EABD
:1045100005238D6824F4005444EA0534084DA8426C
:1045200002D0084DA84204D14D6922F4804242EAEB
:1045300085124260C36149680164046230BD0000B5
:10454000000001400004014010B5036A046A24F031
:1045500001040462846924F0F00444EA021423F0A4
:104560000A020A438461026210BD10B5036A046A3C
:1045700024F010040462846923F0A00324F470443E
:1045800044EA023243EA01118261016210BD10B5B2
:10459000806B0021C185C184FEF70AFF10BD70B594
:1045A000846B2068406994F84110C0F3C010002566
:1045B000212904D118B1E584204600F062F8206872
:1045C000406994F84210C0F38010222904D118B138
:1045D000E585204600F02EF8606C40F01000606425
:1045E0002046FEF7E5FE70BD10B50146806B0968F8
:1045F0000968C90516D40021C1840168143151E845
:10460000002F22F0800241E80023002BF5D1016841
:104610000C3151E8002F42F0400241E80023002B0A
:10462000F5D110BDFFF726F910BD10B5806BFFF76F
:1046300022F910BD01680C3151E8002F22F490726C
:1046400041E80023002BF5D10168143151E8002F17
:1046500022F0010241E80023002BF5D1016B012972
:1046600009D101680C3151E8002F22F0100241E815
:104670000023002BF5D1202180F842100021016396
:10468000704701680C3151E8002F22F0C00241E868
:104690000023002BF5D1202180F84110704708B588
:1046A00090F84210222901D0022008BD82684FF400
:1046B00080539A4201D1016921B1816A9A421BD08B
:1046C0004AB10AE00268816A5268C2F308020A80AD
:1046D000816A891C08E0026972B10268526802F0BE
:1046E0007F020A70816A491C8162C18D491E0904DA
:1046F000090CC18503D01BE002685268F1E701682C
:10470000CA6822F02002CA600168CA6822F4807276
:10471000CA6001684A6922F001024A61202180F8DA
:10472000421000214163026B012A03D0FFF714F805
:10473000002008BD016301680C3151E8002F22F010
:10474000100241E80023002BF5D101680A68D20667
:1047500002D50A6849680091818DFEF728FEE7E7D7
:1047600070B5044600680169E26821F440511143C4
:1047700001612169A068E269084361691143084346
:104780002168CA6849F20C639A430243CA602068F0
:104790004169A26921F440711143416131492068A6
:1047A000884202D03049884202D1FDF7C1FC01E0C5
:1047B000FDF7AEFCE2690023192164253226B2F52B
:1047C000004F626828D0A0FB0101930F9200FBF715
:1047D000F9FC0146B0FBF5F06FF01802504301EB15
:1047E000800006EB0010B0FBF5F000F0F002B1FB2A
:1047F000F5F002EB0012B1FBF5F06FF0180358432F
:1048000001EB800006EB0010B0FBF5F000F00F00AC
:1048100021681044886070BDA0FB010192185B41C3
:10482000FBF7D0FC0146B0FBF5F00201B1FBF5F05F
:104830006FF01803584301EB800006EBC000B0FB9B
:10484000F5F000F0F80002EB4002B1FBF5F0584340
:1048500001EB800006EBC000B0FBF5F000F00700B4
:10486000D6E70000001001400014014081628285FB
:10487000C28500214164222180F84210016921B1E2
:104880000168CA6842F48072CA6001684A6942F0ED
:1048900001024A610068C16841F02001C160002046
:1048A00070472DE9F843984617460D460446089E82
:1048B00024E0701C22D0FCF797FCA0EB0800B0426B
:1048C0001AD8CEB12068C168490717D5802D15D0F8
:1048D000402D13D00168C94309070FD40168002592
:1048E000406800902046FFF7A5FE0820606484F829
:1048F00040500120BDE8F8830320FBE720680068F2
:1049000035EA000004D00020B842D2D00020F1E700
:104910000120F9E70148FEF74DBD0000900300209B
:1049200010B5D0F8B82200245268904700B1032493
:10493000204610BD0020704700207047134610B578
:104940000A46002100F0CDFB002010BD134610B533
:104950000A46002100F06EFC002010BD10B5044690
:10496000802100F048FC2046BDE81040002100F006
:1049700042BC10B50521C0F8941200231A4619460E
:1049800000F0AFFB002010BD10B50223C0F8943238
:1049900082611346C2610A46002100F04BFC0020F0
:1049A00010BD10B50421C0F8941200231A46194610
:1049B00000F040FC002010BD10B50A46024903A0DB
:1049C00000F005F9004810BD5C070020484944206C
:1049D000436F6E66696700001220088000487047C8
:1049E0004C00002010B50A46024903A000F0EFF881
:1049F000004810BD5C07002048494420496E74659A
:104A000072666163650000000420088000487047FA
:104A10004800002010B50A46024903A000F0D7F86C
:104A2000004810BD5C07002053544D6963726F65E8
:104A30006C656374726F6E696373000010B50A462B
:104A4000024903A000F0C3F8004810BD5C07002035
:104A500053544D33322048756D616E20696E746514
:104A6000726661636500000010B51A2008800A486C
:104A70000168001D0468001D0068081809D008229C
:104A80000649FEF7FBFE0549042210312046FEF7D9
:104A9000F5FE0248801E10BD107AFF1F6200002044
:104AA000F8B504460020ADF8000048880D46010A1C
:104AB00008295FD2DFE801F05E0409175E5E3C451D
:104AC000D4F8B412207C0A6819E0207C0226002861
:104AD000D4F8B80205D0C16A6846884701464670D6
:104AE00039E0816AF8E7C0B2062843D2DFE800F077
:104AF000030A1014181CD4F8B402426805E0694691
:104B000090471CE0D4F8B402826892B3207CF6E7A8
:104B1000D4F8B402C268F8E7D4F8B4020269F4E742
:104B2000D4F8B4024269F0E7D4F8B4028269ECE741
:104B3000207CF0B9D4F8B802416B6846884701463A
:104B400009E0207CA8B9D4F8B802016B6846884710
:104B5000014607204870EA888AB1BDF8000040B1DC
:104B6000824200D90246ADF800202046FFF70CFF34
:104B7000F8BDFFE729462046FFF7F0FEF8E720469C
:104B8000FFF70FFFF4E778B50E464288017800255D
:104B900004468A4212D9ADF800100AE0694600F0D6
:104BA0000FF84178052904D181780546B14205D036
:104BB00000256188BDF800209142EFD8284678BDD5
:104BC0000A8803781A440A8001780844704770B54F
:104BD000002300281ED00025044602E06D1CEDB223
:104BE000641C2678002EF9D1022404EB45041480BD
:104BF0001278CA545B1C0322CA5400245B1C06E0D2
:104C0000CA545B1CDAB28C54521CD3B2401C0278DA
:104C1000002AF5D170BD01004FF0000004D0012939
:104C200001D0022901D00320704701207047D0F83D
:104C3000D422002100EB8200D0F8C00201730846A4
:104C40007047000070B5104E0446317800F01AF934
:104C50003078002500F00F0000EB800004EB8000AE
:104C60008584C584D4F8D40204EB8000D0F8C00257
:104C700038B100F002FDD4F8D40204EB8000C0F893
:104C8000C052002070BD0000C80000200A21018031
:104C900000487047FC00002010B5044681210548FB
:104CA000FFF771FF08B10A2181712220208001489D
:104CB00010BD0000CC00002010B50446812105483D
:104CC000FFF761FF08B10721817122202080014890
:104CD00010BD0000CC00002010B50446812105481D
:104CE000FFF751FF08B10A2181712220208001487D
:104CF00010BD0000CC0000202DE9F041044610203A
:104D000000F0BCFC0500D4F8D4024FF0000704EB1F
:104D1000800022D0C0F8C052C4F8BC52207C124E91
:104D2000F8B10A203178042301F00F0101EB810171
:104D300004EB81010322C8843178204600F0C5F9D4
:104D40003178012001F00F0101EB810104EB8101B9
:104D500088842F730020BDE8F081C0F8C072022063
:104D6000F9E70720DEE70000C800002038B5034659
:104D7000D0F8D402002403EB8000D0F8C002ADF8D4
:104D8000004030B10A7812F0600219D0202A51D1C7
:104D900001E0032038BD4A78022A0ED0032A06D04B
:104DA0000A2A06D00B2A45D18978016046E0012203
:104DB0002FE04988090A416040E00122011D29E0F5
:104DC0004A78062A10D003DC3AB1012A32D135E004
:104DD0000A2A23D00B2A2DD128E093F89C0203281D
:104DE00028D10222694615E048882222B2EB102F12
:104DF00005D1CA884A2A00D94A22134809E021224B
:104E0000B2EB102F16D11048CA881838092A00D9D9
:104E1000092201461846FFF7B7FD0FE093F89C22E0
:104E2000032A07D1012200F10801F3E793F89C223D
:104E3000032A05D01846FFF791FD0324204638BD0C
:104E400089788160FAE700000801002078B100232A
:104E5000C0F8B832C0F8C432C0F8D03209B1C0F8D6
:104E6000B412012180F89C12027000F0C7B8032030
:104E7000704710B5D0F8C802FCF7F0FBBDE8104051
:104E8000FFF7C9BE10B5D0F8C802FCF7C2FBBDE8F9
:104E90001040FFF7C0BE2DE9F0411746044600253B
:104EA00021B194F89C02032842D04CE0D4F894122B
:104EB00004F11400022935D1D0E902639E4206D9DB
:104EC000F21A826039462046FFF740FD0FE0B342F8
:104ED00014D14068984211D3D4F8981288420DD268
:104EE000002211462046FFF731FDC4F898520023F6
:104EF0001A461946204600F0F4F813E094F89C0294
:104F0000032808D1D4F8B802C16821B1C4F8D4523A
:104F1000C168204688478021204600F06CF9204671
:104F2000FFF727FD94F8A00268B184F8A0520AE0C8
:104F3000D4F8B802426932B1C4F8D452426920466A
:104F40009047002800D10020BDE8F08170B51346DD
:104F50000446002221B194F89C02032830D03AE0A4
:104F6000D4F8941204F5AA70032934D1D0E902517F
:104F70008D420AD96A1A82600846824200D30246EC
:104F800019462046FFF7DAFC25E094F8AA0210F053
:104F90001F0003D0012802D0022800D0002294F87C
:104FA0009C02032808D1D4F8B802016921B1C4F8E1
:104FB000D4220169204688472046FFF7F2FC0AE028
:104FC000D4F8B802836933B1C4F8D4228269204688
:104FD0009047002800D1002070BD0020704710B518
:104FE0000024012180F89C12D0F8B82222B1526826
:104FF0000179904700B10324204610BD10B5017817
:1050000039BB15490222C1F8E004C0F8C8124FF0BC
:10501000A040086004200871CA71002088714A729B
:105020008872C87208738873C8730846FCF796FEC6
:1050300008B1FBF71FFC80210748FCF79AFA4022D1
:1050400000210548FCF799FA802201210248FCF76B
:1050500094FA002010BD0000700900200A0601F03B
:105060007F01D0F8C80201EBC10100EB810001D53E
:10507000807D704790F85602704710B5D0F8D42262
:1050800000EB8202D2F8B82222B190F89C32032BB6
:1050900002D004E0032010BD126A02B19047002044
:1050A00010BD10B5D0F8D42200EB8202D2F8B8229D
:1050B00022B190F89C32032B02D004E0032010BDF3
:1050C000526A02B19047002010BD10B51C4613462D
:1050D000D0F8C8022246FCF7EEFABDE81040FFF710
:1050E0009ABD10B5D0F8C802FCF714FBBDE810401B
:1050F000FFF791BD2DE9F04100260125044680F817
:105100009C52C4F894626660C4F8A46280F8A062FD
:10511000D0F8B80230B1426822B100212046904751
:1051200000B103260022402311462046FFF7CDFFA1
:105130004027A4F864513B46002280212046C4F851
:105140006071FFF7C2FFA58430462762BDE8F08199
:1051500090F89C12042903D190F89D1280F89C12BB
:105160000020704710B590F89C12032905D1D0F8A3
:10517000B81211B1C96901B18847002010BD01748E
:105180000020704710B5D0F8C802FCF7ADFEBDE8AE
:105190001040FFF740BD70B5044600F2AA20054656
:1051A00000F051F80120C4F89402B4F8B002C4F839
:1051B000980294F8AA0210F01F010AD001290ED01B
:1051C000022912D000F080012046BDE8704000F0B6
:1051D00012B829462046BDE8704000F0CFB82946F5
:1051E0002046BDE8704000F00FBA29462046BDE8D1
:1051F000704000F059B910B5D0F8C802FCF7A6FA13
:10520000BDE81040FFF707BD10B5D0F8C802FCF7A5
:1052100085FEBDE81040FFF7FEBC90F89C12042903
:1052200003D090F89C1280F89D12042180F89C1203
:105230000020704710B5D0F8C802FCF7C0FABDE8EE
:105240001040FFF7E8BC70B5054611F8010B287057
:10525000087868704C1C2046FEF743FF6880A41C49
:105260002046FEF73EFFA880A01CFEF73AFFE8802C
:1052700070BD38B504460020ADF80000A1B1C4F8F7
:10528000B812D4F8D40204EB8000D0F8B802C16A96
:1052900019B168468847C4F8D002D4F8D802401C37
:1052A000C4F8D802002038BD032038BD02460020D3
:1052B000D2F8B832002B02D01B681046184770474E
:1052C0002DE9F04188462B4E89780025044631703F
:1052D000012906D941462046FFF740FB0320BDE8DF
:1052E000F08194F89C02022702280CD003281DD0DC
:1052F00041462046FFF732FB31782046FFF710FB8E
:1053000003252846EBE789B320466160FFF7CEFF0F
:10531000050004D041462046FFF720FB1DE0204653
:10532000FFF73FFB032084F89C02EAE7C1B1606805
:1053300088421BD0C1B22046FFF7F2FA31782046EE
:105340006160FFF7B3FF050010D041462046FFF72C
:1053500005FB21792046FFF7E3FA84F89C72D0E739
:1053600084F89C7220466160FFF7DAFA2046FFF766
:1053700018FBC6E78C000020FFF746BF2DE9F0417F
:105380000A78002512F060020CD0202A01D0402AB1
:105390007DD1D0F8D42200EB8202D2F8B8229268F4
:1053A000904731E04B78002201260A2B6FD2DFE8CC
:1053B00003F041666E586E08056E2D29FFF770FBED
:1053C00067E004468888D8B9C888C8B94888802862
:1053D00016D200F07F0794F89C02032810D084F8BE
:1053E0009E7239462046FFF7CDFE2046FFF7D9FAD8
:1053F0001FB1022084F89C024BE084F89C6248E0D4
:10540000204644E0FFF75CFF054642E0CB88012BD5
:105410003DD190F89C32012B04D0022B02D0032BFB
:1054200035D104E08260012200F1080116E001227A
:10543000011D13E090F89C22012A03D0022A01D01A
:10544000032A24D1CA88022A21D1C660D0F8A41226
:1054500009B10321C160022200F10C01FFF794FAA7
:1054600017E04A88012A02D0022A03D00FE0C0F8D0
:10547000A46216E08988090A80F8A01211E090F869
:105480009C32012B08D0022B06D0032B04D0FFF74F
:1054900065FA2846BDE8F08149880129F9D1C0F8AC
:1054A000A422FFF77EFAF4E72DE9F04105460878DB
:1054B0000C790E464FF0000810F060000BD0202849
:1054C00001D040286AD121462846FFF733FAFF2849
:1054D00000D0D8B395E07078C8B3012824D0032851
:1054E0005CD195F89C02022802D0032856D10CE02A
:1054F000002C53D0802C51D021462846FFF77BFE4C
:1055000080212846FFF777FE7BE0708840B93CB1E8
:10551000802C05D0C88818B921462846FFF76BFEB5
:105520002846FFF73EFA6CE095F89C020228DFD08F
:10553000032863D1708880BB600603D021462846CB
:10554000FFF797FC2846FFF72CFABCE700E00AE0DB
:10555000C5F8D402D5F8B8028268F2B131462846BF
:10556000904780464DE095F89C020027022802D023
:10557000032843D113E00CB1802C3FD1200604F066
:105580007F0000EB800005EB800101D5143101E0C4
:1055900001F5AA7102220F602CE032E02EE0200615
:1055A00004F00F0000EB800005EB800009D5808C33
:1055B00020B304F07F0000EB800005EB800614367A
:1055C0000AE0B0F86401C8B104F07F0000EB80008D
:1055D00005EB800606F5AA764CB1802C07D0214653
:1055E0002846FFF73BFD10B10120306000E0376036
:1055F000022231462846FFF7C7F902E02846FFF7A6
:10560000ADF94046BDE8F08170B505460878002444
:105610000E4610F0600003D0202801D0402827D18A
:1056200095F89C02012803D0022801D003281FD13D
:10563000B088C1B201291AD8C1B22846FFF77CF957
:10564000FF280CD058B9D5F8B8128A683AB1C5F815
:10565000D4028A68314628469047044600E0032475
:10566000F088204307D12846FFF79BF903E0314635
:105670002846FFF773F9204670BD70470048704711
:105680005C09002070B50A78012302F00F054E78FE
:10569000AB401B4CD0F81C58012E17D045EA0343F1
:1056A000C0F81C3800EB4210D0F8002B12040BD4C9
:1056B000D0F8002B0B890979C3F30A031A4344EA93
:1056C00081410A43C0F8002B002070BD9BB21D43EE
:1056D000C0F81C5800EB4210D0F800391B04F3D47A
:1056E000D0F800390D890979C5F30A0589042B43DF
:1056F00041EA82510B432343C0F80039E4E700003C
:1057000000800010D0F800196FF30A01C0F80019EA
:10571000D0F8041841F48071C0F8041800207047D4
:1057200070B50D460446C2F3072104981E460129B0
:105730001BD0E06840F04000E060204600F032F806
:10574000C6F307210029A16B26D021F48031A16383
:10575000C5F30741012907D1A16841F00601A16005
:10576000A16841F02001A16070BDA16B21F48031DE
:10577000A163E1680A4A1140E160E16821F4401147
:10578000E160C0B2012803D1E06840F48010E0601D
:10579000204600F007F8DBE741F48031D7E700004E
:1057A000BFFFBDFF08B500214FF070620091009B64
:1057B0005B1C009393420CD80369002BF7DA00912D
:1057C000016941F0010101610099491C0091914278
:1057D00001D9032008BD0169C907F5D1002008BD22
:1057E00030B54C780A78012300EB4212012C2CD002
:1057F000D2F8004B002C0BDAD2F8004B44F00064D6
:10580000C2F8004BD2F8004B44F08044C2F8004B81
:10581000D0F83C580C7804F00F0403FA04F425EA9D
:105820000444C0F83C48D0F81C48097801F00F0146
:105830008B4024EA0341C0F81C18D2F8000B194928
:105840000840C2F8000B002030BDD2F80049002CFF
:105850000BDAD2F8004944F00064C2F80049D2F8EB
:10586000004944F08044C2F80049D0F83C480D7823
:1058700005F00F0503FA05F5ADB2AC43C0F83C489E
:10588000D0F81C48097801F00F018B4099B28C4385
:10589000C0F81C48D2F8000903490840C2F80009C2
:1058A000D1E700000078F3EF007833ECD0F8001E69
:1058B00021F00301C0F8001ED0F8041821F0020105
:1058C000C0F8041800207047D0F8001E21F0030132
:1058D000C0F8001ED0F8041841F00201C0F8041806
:1058E000002070472DE9F04F00250E46044617466C
:1058F0002846294604EB8002C2F80411401C0F28F8
:10590000F8D3C3F307405FEA0009204616D0806B46
:1059100020F40012A263A06B40F40022A2630846A8
:1059200088462146C4F8000EC7F30720012817D087
:105930000846D1F8001841F0030118E0D0F8040837
:1059400040F00202C4F80428A06B40F40012A263E5
:10595000A06B20F40022A263A06B20F48022DDE77C
:10596000300E0846D1F8001801D041F00101C0F80E
:105970000018102100F087FA00B10125204600F040
:1059800066FA00B101254046C4F81088C4F81488AE
:10599000C4F81C8800214FF0006B4FF0904E4FF67A
:1059A0007F3AF2B215E000BF04EB4113D3F800C90F
:1059B000BCF1000F06DA11B1C3F800E904E0C4F845
:1059C00000B901E0C3F80009C3F81009C3F808A939
:1059D000491C8A42E8D8002115E000BF04EB4113BE
:1059E000D3F800CBBCF1000F06DA11B1C3F800EB1D
:1059F00004E0C4F800BB01E0C3F8000BC3F8100BCF
:105A0000C3F808AB491C8A42E8D8D4F8101821F42E
:105A10008072C4F81028A0616FF080406061C6F306
:105A2000074018B9A06940F01000A061A0690A49B8
:105A30000843A061C7F3074018B1A06940F008000F
:105A4000A061B9F1010F03D1A06904490843A06125
:105A50002846BDE8F08F000000383C80040000407C
:105A6000816821F0010181600020704710B5036C4E
:105A7000134CA34203D9D0F8003B002B1EDB0023BC
:105A8000C0F8103BD0F8103B43F40023C0F8103BA3
:105A9000D0F8103B43F01803C0F8103BD0F8103B8F
:105AA00043F0C043C0F8103B012907D1C0F8142BC4
:105AB000D0F8001B41F08021C0F8001B002010BD71
:105AC0000A30544F4A780B78012A00EB43100BD070
:105AD000D0F8002B22F40012C0F8002B097903291A
